:100000003EC4000059C4000057C4000055C400009D
:1000100053C4000051C400004FC400004DC4000090
:100020004BC400000C94621147C400000C94902152
:100030000C94D41E0C94FD1E0C94261F0C944F1F80
:100040000C94781F0C94A11F0C94CA1F0C94F31FDE
:100050000C941C200C9445202FC400000C94821397
:100060002BC4000029C4000027C4000025C40000E0
:1000700023C4000021C400001FC400001DC40000F0
:100080001BC4000019C400000C949B1D0C94D118D3
:100090000C946E200C9497200C94C0200C94E920B2
:1000A0000C94CC1509C4000007C40000C811CD1180
:1000B000FF11FF11FF11FF11FF11FF11FF11FF11C0
:1000C000FF11FF11FF11FF11FF11FF11D211FF11DD
:1000D000FF11FF11FF11FF11FF11FF11FF11FF11A0
:1000E000FF11FF11FF11FF11FF11FF11FF11D711B8
:1000F000DC11FF11FF11FF11FF11FF11FF11FF11A3
:10010000FF11FF11FF11FF11FF11FF11FF11E1118D
:10011000E611FF11FF11FF11FF11FF11FF11FF1178
:10012000FF11FF11FF11FF11FF11FF11FF11EB1163
:10013000F011FF11FF11FF11FF11FF11FF11FF114E
:10014000FF11FF11FF11FF11FF11FF11FF11F51139
:10015000FA11F913F913F913F913F913F913FB133E
:10016000FB13FB13FB13FB13FB13FB13FB13FB131F
:10017000FB13FB13FB13FB13FB13FB13FB13FB130F
:10018000FB13FB13FB13FB13FB13FB13FB13FB13FF
:10019000FB13FB13FB13FB13FB13FB13FB13FB13EF
:1001A000FB13FB13FB13FB13FB13FB13FB13FB13DF
:1001B000FB13FB13FB13FB13FB13FB13FB13FB13CF
:1001C000FB13FB13FB13FB13FB13FB13FB13FB13BF
:1001D000FB13FB13F913F913FB13FB13FB13F913B5
:1001E000F913FB13FB13FB13FB13F913FB13FB13A3
:1001F000F913FB13F913FB13F913FB13FB13F91397
:10020000FB13FB13FB13FB13FB13FB13FB13FB137E
:10021000FB13FB13FB13F913FB13FB13FB13FB1370
:10022000FB13FB13FB13FB13FB13FB13FB13FB135E
:10023000F913F514041548154D1552155715C71522
:10024000C715C715C715C715C715C715C715C715CE
:10025000C715C715C715C715C715C715C715C715BE
:10026000C715C715C715C715C715C715C715C715AE
:10027000C715C715C715C715C715C715C715C7159E
:10028000C715C715C715C715C715C715C715C7158E
:10029000C715C715C715C715C715C715C715C7157E
:1002A000C715C715C715C715C715C715C715C7156E
:1002B000C715C7155E156B14C715C715C715641587
:1002C000C115C715C715C715C7155C15C715C715BF
:1002D000D914C715C315C7156615C715C715C41595
:1002E000C715C715C715C715C715C715C715C7152E
:1002F000C715C715C7156215C715C715C715C71583
:10030000C715C715C715C715C715C715C715C7150D
:1003100060151015181520152815301538154015BD
:100320009F1BE51BF31BC91BAD1BD71BBB1B000091
:1003300014005000B4004001F301CD02CD03F304DA
:100340003D06AD073F09F40AC90CBF0ED4100713D0
:100350005515BE17411ADB1C8B1F502227250F286D
:10036000062B0A2E193132345237773AA03DCB4052
:10037000F5431C473F4A5C4D70507A537856675995
:10038000475C155FCF61756403677969D66B166E3C
:100390003A703F722674EB758F770F796D7AA57B73
:1003A000B87CA57D6C7E0B7F837FD37FFB7FFB7F3B
:1003B000D37F837F0B7F6C7EA57DB87CA57B6D7A18
:1003C0000F798F77EB7526743F723A70166ED66B85
:1003D000796903677564CF61155F475C6759785623
:1003E0007A5370505C4D3F4A1C47F543CB40A03DCB
:1003F000773A5237323419310A2E062B0F28272527
:1004000050228B1FDB1C411ABE1755150713D41041
:10041000BF0EC90CF40A3F09AD073D06F304CD0336
:10042000CD02F3014001B4005000140000000001AF
:10043000010202020203030303030304040404048D
:10044000040404050505050505050505050606065C
:100450000606060606060606060707070707070735
:100460000707070707070708080808080808080813
:1004700008080808080808090909090909090909F3
:100480000909090909090909090A0A0A0A0A0A0AD5
:100490000A0A0A0A0A0A0A0A0A0A0A0A0A0B0B0BB9
:1004A0000B0B0B0B0B0B0B0B0B0B0B0B0B0B0B0B9C
:1004B0000B0B0B0C0C0C0C0C0C0C0C0C0C0C0C0C7F
:1004C0000C0C0C0C0C0C0C0C0C0C0C0D0D0D0D0D67
:1004D0000D0D0D0D0D0D0D0D0D0D0D0D0D0D0D0D4C
:1004E0000D0D0D0D0D0E0E0E0E0E0E0E0E0E0E0E31
:1004F0000E0E0E0E0E0E0E0E0E0E0E0E0E0E0E0E1C
:100500000E0F0F0F0F0F0F0F0F0F0F0F0F0F0F0FFC
:100510000F0F0F0F0F0F0F0F0F0F0F0F0F0F0F10EA
:1005200010101010101010101010101010100006E5
:10053000080A0B0D0E0F10111213141415161717AD
:100540001819191A1B1B1C1C1D1D1E1E1F1F2020E5
:100550002121222223232424252526262627272855
:10056000282829292A2A2A2B2B2B2C2C2D2D2D2EDD
:100570002E2E2F2F2F303030313131323232333373
:100580003334343434353535363636373737373813
:100590003838393939393A3A3A3B3B3B3B3C3C3CB9
:1005A0003C3D3D3D3D3E3E3E3E3F3F3F3F40000BDC
:1005B000101417191C1E2022242627292A2C2D2F1F
:1005C00030313334353637393A3B3C3D3E3F40419C
:1005D0004243444546474848494A4B4C4D4E4E4F8E
:1005E000505152525354555556575858595A5B5BAF
:1005F0005C5D5D5E5F5F60616162636364656566EB
:1006000066676868696A6A6B6B6C6D6D6E6E6F6F3A
:100610007071717272737374747576767777787897
:1006200079797A7A7B7B7C7C7D7D7E7E7F7F0010F2
:10063000171C2024272A2D303335373A3C3E4042C0
:10064000444648494B4D4E505253555658595B5CA1
:100650005D5F60616364656668696A6B6D6E6F702B
:1006600071727374767778797A7B7C7D7E7F8081F6
:1006700082838485868788898A8B8B8C8D8E8F90E8
:1006800091929394949596979899999A9B9C9D9EF4
:100690009E9FA0A1A2A2A3A4A5A6A6A7A8A9A9AA15
:1006A000ABACACADAEAFAFB0B1B1B2B3B4B4B5B644
:1006B000B6B7B8B9B9BABBBBBCBDBDBEBFBFC0C180
:1006C000C1C2C3C3C4C5C5C6C7C7C8C8C9CACACBC7
:1006D000CCCCCDCECECFCFD0D1D1D2D2D3D4D4D515
:1006E000D5D6D7D7D8D8D9DADADBDBDCDDDDDEDE6C
:1006F000DFDFE0E1E1E2E2E3E3E4E5E5E6E6E7E7C8
:10070000E8E8E9EAEAEBEBECECEDEDEEEEEFEFF02A
:10071000F1F1F2F2F3F3F4F4F5F5F6F6F7F7F8F891
:10072000F9F9FAFAFBFBFCFCFDFDFEFEFFFF70078A
:10073000780F74177C1F72277A2F76377E3F7147A8
:10074000794F75577D5F73677B6F6003680B641328
:100750006C1B62236A2B66336E3B6143694B6553A6
:100760006D5B5005580D54155C1D52255A2D56359C
:100770005E3D5145594D4001480944114C194221F3
:100780004A2946314E393006380E34163C1E322680
:100790003A2E2002280A24122C1A1004180C427631
:1007A000FC30825A825AFC3042768A7DF9184276B1
:1007B000FC306E6A1D47825A825A1D476E6AFC30B1
:1007C0004276F9188A7D627F8C0C8A7DF9187D7AD1
:1007D00028254276FC30E370573C6E6A1D47F26272
:1007E0003451825A825A3451F2621D476E6A573C24
:1007F000E370FC30427628257D7AF9188A7D8C0CCE
:10080000627FD97F4806627F8C0C9D7EC8128A7DEC
:10081000F9182A7C1A1F7D7A282585781F2B4276A5
:10082000FC30B673BA36E370573CCA6DCE416E6A7F
:100830001D47D066404CF2623451D75EF655825A5D
:10084000825AF655D75E3451F262404CD0661D474D
:100850006E6ACE41CA6D573CE370BA36B673FC304F
:1008600042761F2B857828257D7A1A1F2A7CF91855
:100870008A7DC8129D7E8C0C627F4806D97F112428
:100880001FBECFEFCDBFDFE2DEBF11E2A0E0B0E2DE
:10089000E4EFFDE402C005900D92A430B107D9F752
:1008A0002BE2A4E0B1E201C01D92A533B207E1F74B
:1008B0000E94221B0C94F826A3CB609180006270EA
:1008C000616024E0829FC00111248C73682B80E852
:1008D00090E00E947A1EE0E8F0E0828180FDFDCF8A
:1008E0000895609180006C7F616080E890E00C94D6
:1008F0007A1E0895609180006C73636080E890E0D8
:100900000E947A1EE0E8F0E0828180FDFDCF08952C
:100910001F93CF93DF93CDB7DEB76197CDBFDEBF17
:10092000182FBE016F5F7F4F80E092E00E94081E8B
:1009300099812A812F7822612A8382E08C83917E9B
:10094000906199831B828FB7F89498E09093080286
:100950008FBFBE016F5F7F4F80E092E00E94C91D94
:10096000AE01485F5F4F61E080E092E00E94521E5E
:100970001430B9F028F4113041F0123061F021C088
:100980001530A9F01630C1F01CC0198A81E08887A3
:1009900080E2898716C0198A8AE0888788E089877B
:1009A00010C0198A8AE0888783E189870AC081E0BC
:1009B000888780E6898705C0188688E0898786E46D
:1009C000898B8A851C86807F8A87AE01485F5F4F4E
:1009D00061E080E092E00E942A1E80E092E00E94A6
:1009E000711D9FB7F894E0E0F2E08081846080831D
:1009F0009FBF868180FFFDCF81E0809306026196D4
:100A0000CDBFDEBFDF91CF911F9108951F93CF938C
:100A1000DF93CDB7DEB72A97CDBFDEBF182FAE016B
:100A20004F5F5F4F61E080E092E00E94521E143001
:100A3000B9F028F4113041F0123061F021C01530C6
:100A4000A9F01630C1F01CC01A8681E0898380E2CB
:100A50008A8316C01A868AE0898388E08A8310C058
:100A60001A868AE0898383E18A830AC081E08983C8
:100A700080E68A8305C0198288E08A8386E48A87B3
:100A8000AE014F5F5F4F61E080E092E00E942A1E5E
:100A90002A96CDBFDEBFDF91CF911F91089580913F
:100AA0004521843009F44CC028F4813051F0823063
:100AB00009F10895853009F469C0863009F475C0DC
:100AC00008950E943816811192C08091452180932B
:100AD000442186E0809345218091452197DF80E085
:100AE00098E00E94122180E498E00E9444210C9436
:100AF0008116089580910521909106219C012F5F18
:100B00003F4F2093052130930621880F991FFC0148
:100B1000EA58F64D4083518380910521909106213A
:100B20008038910508F463C01092052110920621C7
:100B300081E08093042180E098E00C9444210895A2
:100B400080910521909106219C012F5F3F4F2093BA
:100B5000052130930621880F991FFC01EA58F64DB4
:100B60004083518380910521909106218038910521
:100B700008F43DC0109205211092062181E0809377
:100B8000042180E098E00C94442108954093402192
:100B90005093412181E080933D21809144218093B5
:100BA00045218091452132CF089540933E215093B5
:100BB0003F2181E080933C210E9438168823B9F0C0
:100BC0004FEF60E080E00E943D16809145218093C8
:100BD000442181E0809345218091452117DF80E009
:100BE00098E00E94442180E498E00C94122108953A
:100BF000CF93DF93CDB7DEB72A97CDBFDEBF80E0BE
:100C000092E00E94881DAE014F5F5F4F61E080E07F
:100C100092E00E94521EE0EAF0E0828181608283CD
:100C20006FE475E080E092E00E94481D8B818C7F2C
:100C300081608B83AE014F5F5F4F61E080E092E0A7
:100C40000E942A1E80E092E00E94711D78942A96EC
:100C5000CDBFDEBFDF91CF910895662369F0FC011F
:100C6000AC01460F511D80E090E02191820F911D53
:100C7000E417F507D1F702C080E090E070E00E9431
:100C8000A926862F08958F929F92AF92BF92EF92DE
:100C9000FF920F931F93CF93DF9380911B2190912D
:100CA0001C21A0911D21B0911E2180930F219093B2
:100CB0001021A0931121B0931221809117219091BE
:100CC0001821A0911921B0911A2180930B219093A2
:100CD0000C21A0930D21B0930E21809113219091AE
:100CE0001421A0911521B091162180930721909392
:100CF0000821A0930921B0930A2110921B21109280
:100D00001C2110921D2110921E2110921721109269
:100D100018211092192110921A2110921321109269
:100D20001421109215211092162100910F2010917C
:100D300010201016110644F5812C912C54010F2E11
:100D4000F3EBEF2EF5E2FF2EF02DC0E0D0E0F7013F
:100D5000819191917F01BC0180E090E00E949025FB
:100D60009B01AC01C501B4010E9494244B015C01BC
:100D70002196C017D1075CF360931B2170931C214F
:100D800080931D2190931E21C0910D20D0910E20A3
:100D9000C00FD11F0C171D076CF580901721909084
:100DA0001821A0901921B0901A21C801880F991F0D
:100DB0009C012D543A4D7901F701819191917F0168
:100DC000BC0180E090E00E9490259B01AC01C50130
:100DD000B4010E9494244B015C010F5F1F4F0C175C
:100DE0001D0754F3609317217093182180931921E4
:100DF00090931A21E0900B20F0900C20EC0EFD1E39
:100E0000CE15DF0554F58090132190901421A09009
:100E10001521B09016218E01000F111F0D541A4D8F
:100E2000F801819191918F01BC0180E090E00E94D6
:100E300090259B01AC01C501B4010E9494244B0193
:100E40005C012196CE15DF055CF36093132170934E
:100E50001421809315219093162110911B21D0917C
:100E60001C21C0911D2100911E218090072090908F
:100E70000820A0900920B0900A20A5019401612FBC
:100E80007D2F8C2F902F0E9442261816ECF0209177
:100E90001721309118214091192150911A21C50133
:100EA000B4010E94F82488237CF020911321309112
:100EB00014214091152150911621C501B4010E94C1
:100EC000F82488230CF045C0A0901721B090182179
:100ED000E0901921F0901A212A2D3B2D4E2D5F2DE7
:100EE000612F7D2F8C2F902F0E944226181624F000
:100EF0001A2DDB2DCE2D0F2DA0901321B090142193
:100F0000E0901521F09016212A2D3B2D4E2D5F2DBE
:100F1000612F7D2F8C2F902F0E944226181624F0CF
:100F20001A2DDB2DCE2D0F2D812F9D2FAC2FB02F05
:100F30008093722990937329A0937429B093752993
:100F40008093072090930820A0930920B0930A2053
:100F500014C020910320309104204091052050912D
:100F60000620C501B4010E944626609307207093B5
:100F700008208093092090930A2020911F2130910E
:100F800020214091212150912221609107207091D0
:100F900008208091092090910A200E9493249B01AF
:100FA000AC0160E070E08FE793E40E94FC244B0109
:100FB0005C0120911B2130911C2140911D215091F9
:100FC0001E210E9446260E946425D62F60939D25EF
:100FD00020911721309118214091192150911A2107
:100FE000C501B4010E9446260E946425C62F609365
:100FF0007028209113213091142140911521509196
:101000001621C501B4010E9446260E946425609302
:1010100071298091272190912821FC01EA54FF4DEC
:10102000D083E0912521F0912621DF01A05EBF4D04
:10103000CC932091232130912421D901AF5EBF4D63
:101040006C9301966EE170E00E94BD26809327218B
:1010500090932821CF01019666E970E00E94BD2699
:101060008093252190932621C90101966FE070E0BD
:101070000E94BD2680932321909324216FE081E17B
:1010800090E2EBDDD82F8093712966E980E290E24F
:10109000E4DDC82F809370286EE186EB90E2DDDD01
:1010A0006091022024E6289FC001112470E00E9474
:1010B000BD26162F60939D25A09101202C9FC00175
:1010C00011246A2F70E00E94BD2660937028309131
:1010D00000202D9FC0011124632F70E00E94BD26C7
:1010E000862F60937129EFEDF0E2208191819217B4
:1010F00048F020819281921728F0412F80E00E94D1
:101100003D1623C0EFEDF0E221819081921748F067
:1011100021819281921728F0412F60E00E943D16B4
:1011200014C0EFEDF0E222819081921748F0228105
:101130009181921728F040E0612F0E943D1605C072
:10114000412F682F80E00E943D16DF91CF911F91C3
:101150000F91FF90EF90BF90AF909F908F90089568
:101160002F923F924F925F926F927F928F929F92B7
:10117000AF92BF92CF92DF92EF92FF920F931F93A5
:10118000CF93DF932F923F924F925F92FF920F93F4
:101190001F93CF93DF93C6E7D9E2EEE2F3E0FF249B
:1011A00040E86591759108811981970320010E032C
:1011B0004F1C10019E035F08300C411C5F1CF8039C
:1011C0005F08300C411C5F1C499259924A9549F7BF
:1011D000DF91CF911F910F91FF905F904F903F90C3
:1011E0002F9011242F923F926F927F92CF93DF9393
:1011F000EEE2F7E048E3A591BB27AA0FBB1FAA5870
:10120000B64D2D903C90C591DD27CC0FDD1FCA58FF
:10121000D64D688079807C926E92288239824A9578
:1012200051F7DF91CF917F906F903F902F902F9249
:101230003F924F925F926F927F928F929F92AF9266
:10124000BF92CF92DF92EF92FF920F931F93CF93B3
:10125000DF93FF2400E1E02EC6E7D9E268807980C1
:101260004A805B8075946794430155944794640C5D
:10127000751C84189508AC80BD804E805F80B59445
:10128000A794650155944794A40CB51CC418D508BF
:10129000688579854A845B84759567958B0155943B
:1012A0004794640D751D041915098C859D854E8420
:1012B0005F84959587959C0155944794840D951D61
:1012C00024193509759467942301B594A7946A0C81
:1012D0007B1C4A185B08959487945401D594C79455
:1012E0008C0C9D1CAC18BD08759567956B01959588
:1012F0008795680F791FC81AD90A759467941301E6
:1013000075956795660E771E261A370A42E85AE5E4
:101310001503C001049FB00114039F09700D811DC6
:101320009F1D509F700D811D9F1D95948794840172
:10133000880E991E081B190B55944794D201D59419
:10134000C7944C0C5D1CAC19BD093503C001249F2A
:10135000B00134039F09700D811D9F1D529F700DB8
:10136000811D9F1DB594A7946501A80EB91EC81ACA
:10137000D90A699279928992999249925992A9923D
:10138000B9922992399209931993A993B993C99261
:10139000D992EA9409F062CF00E2C02EDD240AE27D
:1013A000902EEEE9F7E000E1A02EBB2404E0E02E51
:1013B000A6E7B9E2ED01CA0DDB1D8E2C2D903C9005
:1013C0004880598035942794310155944794640C92
:1013D000751C24183508299239927C926E92AC0DB6
:1013E000BD1D1197EA94088119813C912E91459178
:1013F00055916591759115022001049F1001140308
:101400005F08300C411C5F1C509F300C411C5F1C5E
:1014100037023001269F200C311C461C571C360316
:101420005F08300C411C5F1C729F300C411C5F1C1C
:101430000E01CA19DB0928803980359427943101BF
:10144000640C751C2418350868827982E0012992A1
:10145000399217022001069F100116035F08300C15
:10146000411C5F1C709F300C411C5F1C3502300119
:10147000249F201831084608570834035F1C301891
:1014800041085F08529F301841085F080D01AA19F2
:10149000BB092D903C90359427943101640C751C48
:1014A000241835087C926E92D0012D923C921297AE
:1014B000EA9409F098CFDE01AA19BB092D903C905F
:1014C0004880598035942794310155944794640C91
:1014D000751C24183508288239827C926E92C501C9
:1014E00096958795C80FD91FC637D90540F4DE01F8
:1014F000CA0DDB1DE82CEA19FB0934965FCF85FC89
:1015000006C0EA2CE6945601CC0CDD1C51CFDF91CD
:10151000CF911F910F91FF90EF90DF90CF90BF90F0
:10152000AF909F908F907F906F905F904F903F9083
:101530002F9011242F923F924F925F926F927F9241
:101540008F92FF920F931F93CF93DF93A6E7B9E299
:10155000C3EBD5E2E6E7FAE24F01FF2440E40D9148
:101560001D91980106C0F4010D911D9132912291B7
:101570004F0111022001009F100198035F08300CF9
:10158000411C5F1C33023001229F200C311C461C81
:10159000571CBA035F08300C411C5F1C11275520F3
:1015A00061F018E0F201F03428F5330CEE1FFF1F54
:1015B000330CEE1FFF1F1A951DC0442069F014E084
:1015C000F42DE32DF034B0F4220CEE1FFF1F220C9B
:1015D000EE1FFF1F1A95F6CFF101F03458F4F031E9
:1015E00060F4F13078F0F295E295EF70EF2BE6952C
:1015F000F1E008C0EF2FF2E005C0EE0FFF1FEF2F64
:10160000E068F1E0E25DFB4F04912227112321F015
:10161000000F221F1A95E1F7099329934A9509F0C3
:10162000A2CFDF91CF911F910F91FF908F907F906C
:101630006F905F904F903F902F90112424DB109279
:101640000421DF91CF911F910F91FF90EF90DF90D8
:10165000CF90BF90AF909F908F907F906F905F9052
:101660004F903F902F9008951F93CF93DF93162FA5
:10167000C82FD0E0CE010E94A51ECE010E94801E80
:1016800091E0181390E0892FDF91CF911F91089579
:10169000CF93DF93CDB7DEB72997CDBFDEBF80E80C
:1016A0009AE1A6E0B0E089839A83AB83BC8383E2AE
:1016B00090E0A0E0B0E08D839E83AF83B88780E5A3
:1016C000898760E483E00E94091DBE016F5F7F4F40
:1016D00080E894E00E945A22E0E8F4E0818188608A
:1016E000818378942996CDBFDEBFDF91CF91089595
:1016F00040E059E160E280E496E00E94201D80E233
:101700008093B000E0E4F6E0828781E08187E0EA40
:10171000F0E08281816082837894089541E050E016
:1017200060E280E096E00E94201D41E050E060E42D
:1017300080E096E00E94201D41E050E060E880E0FB
:1017400096E00E94201D41E050E060E480E696E0D3
:101750000E94201D41E050E061E080EE97E00E9491
:10176000201D41E050E061E080E696E00E94201DEF
:1017700041E050E062E080E696E00C94201D089580
:10178000CF93DF93CDB7DEB76197CDBFDEBF9AEFC2
:101790009093D42095E5998394E09A8395E19B8377
:1017A0008C836D834E830E94D419BE01695F7F4F85
:1017B0008BE0FB0111928A95E9F785E28F83CE01D8
:1017C00001968D879E8786E090E08F87988B40E01A
:1017D00080E894E00E946F228093D42091E090935F
:1017E0003421811101C090E0892F6196CDBFDEBF09
:1017F000DF91CF9108951F93CF93DF93CDB7DEB7DD
:101800002E97CDBFDEBF9AEF9093D42095E59983B4
:1018100011E01A838B830E94D419BE016C5F7F4F45
:101820008BE0FB0111928A95E9F785E28C83CE016A
:1018300001968A879B8783E090E08C879D8740E0B4
:1018400080E894E00E946F228093D420109334218A
:101850002E96CDBFDEBFDF91CF911F910895CF931C
:10186000DF9385E590E00E94801E882309F426C559
:101870000E94D41940E060E08FEF0E943D162FEFE8
:1018800083ED90E3215080409040E1F700C00000DC
:1018900081E0B1DF2FEF83ED90E321508040904055
:1018A000E1F700C0000087E1A6DF2FEF83ED90E3B2
:1018B000215080409040E1F700C000008DE490E0AE
:1018C0000E94801E882309F4BCC040E06FEF8FEFB8
:1018D0000E943D168AE090E00E94801E482F61E041
:1018E00080E04EDFC82F2FEF89E698E1215080403D
:1018F0009040E1F700C000008BE090E00E94801E65
:10190000482F62E080E03CDFC82B2FEF89E698E1AA
:10191000215080409040E1F700C000008CE090E052
:101920000E94801E482F64E080E02ADFC82B2FEF42
:1019300089E698E1215080409040E1F700C0000026
:101940008DE090E00E94801E482F65E080E018DF67
:10195000C82B2FEF89E698E1215080409040E1F7B5
:1019600000C000008EE090E00E94801E482F66E0DC
:1019700080E006DFC82B2FEF89E698E121508040F8
:101980009040E1F700C000008FE090E00E94801ED0
:10199000482F67E080E0F4DEC82B2FEF89E698E15E
:1019A000215080409040E1F700C0000040E060E03E
:1019B00080E0E6DEC82B2FEF89E698E121508040D9
:1019C0009040E1F700C0000040ED63E080E0D8DE29
:1019D000C82B2FEF89E698E1215080409040E1F735
:1019E00000C0000040E068E080E0CADEC82B2FEFB6
:1019F00089E698E1215080409040E1F700C0000066
:101A000040E069E080E0BCDED82F2FEF89E698E166
:101A1000215080409040E1F700C0000087E1EBDEFC
:101A20002FEF83ED90E3215080409040E1F700C01C
:101A30000000CD2B61E009F460E08DE490E00E94AD
:101A4000A51E8EE490E00E94801E882309F496C0B3
:101A500040E06FEF80E00E943D1680E190E00E9440
:101A6000801E482F60E081E08BDEC82F2FEF89E6D3
:101A700098E1215080409040E1F700C0000081E1F2
:101A800090E00E94801E482F61E081E079DEC82B43
:101A90002FEF89E698E1215080409040E1F700C0A7
:101AA000000082E190E00E94801E482F62E081E009
:101AB00067DEC82B2FEF89E698E1215080409040E7
:101AC000E1F700C0000083E190E00E94801E482FF3
:101AD00063E081E055DEC82B2FEF89E698E12150C5
:101AE00080409040E1F700C0000084E190E00E9457
:101AF000801E482F64E081E043DEC82B2FEF89E68B
:101B000098E1215080409040E1F700C0000085E15D
:101B100090E00E94801E482F65E081E031DEC82BF6
:101B20002FEF89E698E1215080409040E1F700C016
:101B3000000086E190E00E94801E482F66E081E070
:101B40001FDED82F2FEF89E698E12150804090408A
:101B5000E1F700C0000087E14EDE2FEF83ED90E358
:101B6000215080409040E1F700C00000CD2B61E0A3
:101B700009F460E08EE490E00E94A51E8FE490E0FE
:101B80000E94801E882309F472C04FEF6FEF80E03F
:101B90000E943D168DE190E00E94801E482F60E07B
:101BA00082E0EEDDC82F2FEF89E698E121508040DA
:101BB0009040E1F700C000008EE190E00E94801E9E
:101BC000482F61E082E0DCDDC82B2FEF89E698E149
:101BD000215080409040E1F700C000008FE190E08C
:101BE0000E94801E482F62E082E0CADDC82B2FEFE2
:101BF00089E698E1215080409040E1F700C0000064
:101C000080E290E00E94801E482F63E082E0B8DD11
:101C1000C82B2FEF89E698E1215080409040E1F7F2
:101C200000C0000081E290E00E94801E482F64E026
:101C300082E0A6DDD82F2FEF89E698E12150804081
:101C40009040E1F700C0000087E1D5DD2FEF83ED84
:101C500090E3215080409040E1F700C00000CD2B80
:101C600061E009F460E08FE490E00E94A51E80E549
:101C700090E00E94801E882309F457C04FEF60E077
:101C800080E0FBD78FE290E00E94801E482F60E04A
:101C900080E176DDC82F2FEF89E698E12150804062
:101CA0009040E1F700C0000080E390E00E94801EB9
:101CB000482F61E080E164DDC82B2FEF89E698E1D1
:101CC000215080409040E1F700C0000041E062E018
:101CD00080E156DDC82B2FEF89E698E12150804046
:101CE0009040E1F700C0000041E063E080E148DDA2
:101CF000D82F2FEF89E698E1215080409040E1F7FE
:101D000000C0000087E177DD2FEF83ED90E32150E5
:101D100080409040E1F700C00000CD2B61E009F465
:101D200060E080E590E00E94A51E81E590E00E94C1
:101D3000801E882309F473C04FEF60E08FEF9DD7BA
:101D400081E390E00E94801E482F60E080E218DD71
:101D5000C82F2FEF89E698E1215080409040E1F7AD
:101D600000C0000082E390E00E94801E482F61E0E6
:101D700080E206DDC82B2FEF89E698E121508040F4
:101D80009040E1F700C0000046E162E080E2F8DC4C
:101D9000C82B2FEF89E698E1215080409040E1F771
:101DA00000C0000045E062E080E3EADCC82B2FEFD2
:101DB00089E698E1215080409040E1F700C00000A2
:101DC0004FEF63E080E3DCDCC82B2FEF89E698E17E
:101DD000215080409040E1F700C0000046E969E0F2
:101DE00080E3CEDCD82F2FEF89E698E121508040A8
:101DF0009040E1F700C0000087E1FDDC2FEF83EDAC
:101E000090E3215080409040E1F700C00000CD2BCE
:101E100061E009F460E081E590E00E94A51E82E5A2
:101E200090E00E94801E882309F483C04FEF60E099
:101E300080E023D783E390E00E94801E482F60E07B
:101E400080E39EDCC82F2FEF89E698E12150804087
:101E50009040E1F700C0000084E390E00E94801E03
:101E6000482F61E080E38CDCC82B2FEF89E698E1F6
:101E7000215080409040E1F700C0000085E390E0F1
:101E80000E94801E482F64E080E37ADCC82B2FEF8D
:101E900089E698E1215080409040E1F700C00000C1
:101EA00086E390E00E94801E482F65E080E368DCB6
:101EB000C82B2FEF89E698E1215080409040E1F750
:101EC00000C0000087E390E00E94801E482F66E07B
:101ED00080E356DCC82B2FEF89E698E12150804043
:101EE0009040E1F700C0000088E390E00E94801E6F
:101EF000482F67E080E344DCD82F2FEF89E698E194
:101F0000215080409040E1F700C0000087E173DC81
:101F10002FEF83ED90E3215080409040E1F700C027
:101F20000000CD2B61E009F460E082E590E00E94C2
:101F3000A51E83E590E00E94801E882309F401C15C
:101F40004FEF60E08FEF99D689E390E00E94801E0A
:101F5000482F60E080E514DCC82F2FEF89E698E178
:101F6000215080409040E1F700C000008AE390E0FB
:101F70000E94801E482F61E080E502DCC82B2FEF15
:101F800089E698E1215080409040E1F700C00000D0
:101F90008BE390E00E94801E482F62E080E5F0DB3A
:101FA000C82B2FEF89E698E1215080409040E1F75F
:101FB00000C000008CE390E00E94801E482F63E088
:101FC00080E5DEDBC82B2FEF89E698E121508040C9
:101FD0009040E1F700C000008DE390E00E94801E79
:101FE000482F64E080E5CCDBC82B2FEF89E698E131
:101FF000215080409040E1F700C000008EE390E067
:102000000E94801E482F65E080E5BADBC82B2FEFC9
:1020100089E698E1215080409040E1F700C000003F
:102020008FE390E00E94801E482F66E080E5A8DBE9
:10203000C82B2FEF89E698E1215080409040E1F7CE
:1020400000C0000080E490E00E94801E482F67E0FE
:1020500080E596DBC82B2FEF89E698E12150804080
:102060009040E1F700C0000081E490E00E94801EF3
:10207000482F68E080E584DBC82B2FEF89E698E1E4
:10208000215080409040E1F700C0000082E490E0E1
:102090000E94801E482F69E080E572DBC82B2FEF7D
:1020A00089E698E1215080409040E1F700C00000AF
:1020B00083E490E00E94801E482F6AE080E560DBA8
:1020C000C82B2FEF89E698E1215080409040E1F73E
:1020D00000C0000084E490E00E94801E482F6BE066
:1020E00080E54EDBC82B2FEF89E698E12150804038
:1020F0009040E1F700C0000085E490E00E94801E5F
:10210000482F6CE080E53CDBD82F2FEF89E698E183
:10211000215080409040E1F700C0000087E16BDB78
:102120002FEF83ED90E3215080409040E1F700C015
:102130000000CD2B61E009F460E083E590E00E94AF
:10214000A51E84E590E00E94801E882309F45FC0EC
:102150004FEF6FEF8FEF91D58AE490E00E94801EE1
:10216000482F67E080EF0CDBC82F2FEF89E698E15E
:10217000215080409040E1F700C000008BE490E0E7
:102180000E94801E482F69E080EFFADAC82B2FEFFB
:1021900089E698E1215080409040E1F700C00000BE
:1021A0008CE490E00E94801E482F6AE080EFE8DA1D
:1021B000C82B2FEF89E698E1215080409040E1F74D
:1021C00000C0000083E390E00E94801E482F60E082
:1021D00080E3D6DAD82F2FEF89E698E121508040AE
:1021E0009040E1F700C0000087E105DB2FEF83EDB1
:1021F00090E3215080409040E1F700C00000CD2BDB
:1022000061E009F460E084E590E00E94A51E80E0B2
:10221000F2DA2FEF83ED90E3215080409040E1F718
:1022200000C0000087E1E7DA2FEF83ED90E3215053
:1022300080409040E1F700C000008DE490E00E94F3
:10224000801EC82F8DE490E00E94801EC82B8EE473
:1022500090E00E94801EC82B8FE490E00E94801EB8
:10226000C82B80E590E00E94801EC82B81E590E09D
:102270000E94801EC82B82E590E00E94801EC82B21
:1022800083E590E00E94801EC82B84E590E00E94C8
:10229000801E6C2F682B85E590E00E94A51E85E5C9
:1022A00090E00E94801E882331F040E060E08FEFD4
:1022B000E4D480E004C0F7D481E001C081E0DF9184
:1022C000CF9108951F920F920FB60F9211240F9382
:1022D0001F932F933F934F935F936F937F938F93AE
:1022E0009F93AF93BF93EF93FF93CF93DF93CDB7BC
:1022F000DEB76197CDBFDEBF80E280934C06809150
:102300003421882321F0813009F47FC09CC0FE0174
:102310003C9686E0DF011D928A95E9F7BE016F5F6A
:102320007F4F8BE0DB011D928A95E9F785E2898377
:10233000EF83F88786E090E089879A8741E080E81C
:1023400094E00E946F228D8582FB002700F910E047
:102350000093772A012B09F476C0A6E7BAE28877C2
:1023600090E09595879595958795959587958C930C
:102370008E85E82FEF771796EC938E2F90E0FC0177
:102380007097E335F105D8F5EA5AFF4F0C94F22621
:1023900080EA8093292181E035C081EA8093292158
:1023A00082E030C082EA8093292183E02BC083EA57
:1023B0008093292184E026C083EA8093292184E048
:1023C00021C084EA8093292185E01CC084EA80939F
:1023D000292185E017C085EA8093292186E012C073
:1023E00085EA8093292186E00DC086EA8093292121
:1023F00087E008C086EA8093292187E003C0109215
:10240000292180E0809333211EC0BE016F5F7F4F82
:102410008BE0FB0111928A95E9F785E289830AE254
:1024200011E20F83188789E090E089879A8741E05D
:1024300080E894E00E946F2210923421D801139614
:102440008C918093D5206196CDBFDEBFDF91CF9177
:10245000FF91EF91BF91AF919F918F917F916F917C
:102460005F914F913F912F911F910F910F900FBE50
:102470000F901F901895E0E0F8E0848581608487D4
:1024800081E080937F2A9FB7F894E0E0F2E08081BA
:10249000846080839FBF089581E08093802A80912B
:1024A000D6209091D720009749F001978093D620AD
:1024B0009093D720892B11F410923521E0E4F9E0B4
:1024C000848581608487089581E080937E2AE0E49A
:1024D000F8E08485816084875FC4089588EC90E08B
:1024E0008093D6209093D72081E080933521089562
:1024F000CF93DF9380E098E00E941221C0E0D8E003
:102500008E818C7F8E838E8181608E838981887F8E
:1025100089836BE372E180E098E00E94762180E598
:1025200090E08EA39FA38881807F84608883E0EA07
:10253000F0E08281816082837894DF91CF91089569
:10254000CF93DF93C0E4D8E08E818C7F8E838E8121
:1025500082608E838981887F898364E672E180E46A
:1025600098E00E94762184E294EF8EA39FA3888155
:10257000807F86608883E0EAF0E0828182608283E7
:102580007894DF91CF910895CF93DF9380E499E021
:102590000E941221C0E4D9E08E818C7F8E838E81CF
:1025A00081608E838981887F89836CE472E180E415
:1025B00099E00E94762182EA90E08EA39FA3888111
:1025C000807F87608883E0EAF0E082818160828397
:1025D0007894DF91CF91089543E050E068E080E681
:1025E00096E00E94201D40E050E064E080E696E026
:1025F0000E94201D68ED70E280EC99E00E94F123BA
:10260000E0ECF9E0828180638283E0EAF0E082819D
:102610008460828378941092012B1092022B08958B
:10262000682F80EC98E00C94C2220895CF93DF933A
:10263000AFEDB0E28C91EBE1FBE2808311968C91DF
:102640001197818312968C91129782838C91818746
:1026500011968C911197828712968C91129783878D
:1026600013968C911397838314968C91149784837B
:1026700015968C911597858313968C911397848763
:1026800014968C911497858715968C91159786874B
:1026900016968C911697868317968C911797878339
:1026A00018968C911897808716968C911697878725
:1026B00017968C911797808B18968C91818BC0E020
:1026C000D0E0FE01E152FF4D60812196CE010E94D3
:1026D000A51EC930D105A9F7CBD2811104C066E08F
:1026E0008BE19BE291D7DF91CF91089580913821C2
:1026F00008958091372110923721089581E08093C9
:10270000372108951F920F920FB60F9211242F9325
:102710003F934F935F936F937F938F939F93AF9369
:10272000BF93EF93FF9380EC98E00E94D0229091AA
:102730003A2191110EC08F3049F481E080933A2103
:1027400096E09093F5208093392138C010923A2179
:1027500035C0292F30E06091F520462F50E04F5FC3
:102760005F4F24173507F1F410923A21803FA9F406
:102770002091032B222361F043E05BE2FA0180E029
:102780009191890F9E2F941B9217D0F3811105C050
:10279000109239218FEF44DF11C0109239218CE063
:1027A0003FDF0CC0F901EE5FF44D80839F5F909393
:1027B0003A218091032B68138093F520FF91EF91CC
:1027C000BF91AF919F918F917F916F915F914F9149
:1027D0003F912F910F900FBE0F901F90189590E092
:1027E000FC013197E037F10530F4E755FF4F0C94C9
:1027F000F22681E0089580E00895FC0190819F37E2
:1028000018F49F5F9083089510820895262F30E07A
:10281000280F311D203831052CF4F901EF57F54D03
:1028200080810895680FE62FF0E0EF5FF54D80811D
:1028300008958091012B9091022B891710F0891B2C
:1028400008958058891B0895CF93DF939091022BB0
:102850008091012B981799F0C2E0DBE202C0CE0113
:10286000CCDFE881F0E0EF57F54D8081B8DF8823B9
:10287000B1F3DFDF91E08B3018F490E001C090E01D
:10288000892FDF91CF9108950F931F93CF93DF93FB
:10289000DBDF882309F47BC1C0E0D0E002E01BE26B
:1028A00060E0F8018081B2DFFE01E851FF4D8083D6
:1028B000C801A3DF2196CB30D10591F78091E820A4
:1028C00090E0FC013197E037F10508F060C1E75E68
:1028D000FE4F0C94F2268091E920893009F057C10F
:1028E0006FEF83E488D4A8EEB0E212968C91129731
:1028F000EBE1FBE2808313968C911397818314960E
:102900008C911497828312968C91129781871396DB
:102910008C911397828714968C91149783871596C0
:102920008C911597838316968C91169784831796AE
:102930008C911797858315968C9115978487169699
:102940008C911697858717968C911797868718967E
:102950008C911897868319968C91199787831A966C
:102960008C911A97808718968C911897878719965B
:102970008C911997808B1A968C91818BC0E0D0E056
:10298000FE01E651FF4D8081FE01E152FF4D808343
:1029900060812196CE010E94A51EC930D10581F724
:1029A00067D1811104C066E08BE19BE22DD696DDF4
:1029B000EEC06FEF80E51FD48091EA20882319F0E4
:1029C000813039F00CC01092382181E0809337219A
:1029D000DEC081E08093382180933721D8C081E028
:1029E0008093382180933721D2C080913821882369
:1029F00029F01092382181E08093372181E0809383
:102A000036216FEFF8D3C3C08091EA2090E0873081
:102A1000910508F0BCC0FC01E757FE4F0C94F2266C
:102A20008091EB2090E08093462190934721AFC0A6
:102A30008091EB2090E08093012190930221A7C028
:102A40008091EB2090E08093FF20909300219FC025
:102A50008091EB2090E08093FD209093FE2097C022
:102A60008091EB2090E08093FB209093FC208FC01E
:102A70008091EB2090E08093F9209093FA2087C01A
:102A80008091EB2090E08093F7209093F8207FC016
:102A90008091EA208093F6207AC08091EA2080938A
:102AA000022075C08091EA208093012070C080913F
:102AB000EA20809300206BC0AFD369C0C6D367C043
:102AC00031D465C008D463C0DAD361C0C8EED0E2A7
:102AD0006B818A8190E00E94A51E8A81803130F44A
:102AE00061E08DE490E00E94A51E45C08091EA203F
:102AF0008D3130F461E08EE490E00E94A51E3BC071
:102B00008091EA208F3230F461E08FE490E00E94FF
:102B1000A51E31C08091EA20813330F461E080E568
:102B200090E00E94A51E27C08091EA20833330F4F4
:102B300061E081E590E00E94A51E1DC08091EA2021
:102B4000893330F461E082E590E00E94A51E13C055
:102B50008091EA20863430F461E083E590E00E94C1
:102B6000A51E09C08091EA208D3428F461E084E537
:102B700090E00E94A51E61E085E590E00E94A51E00
:102B800006C092D304C0FFCF0E942F0C8DD3DF91DB
:102B9000CF911F910F9108951F920F920FB60F9230
:102BA00011240F931F932F933F934F935F936F9332
:102BB0007F938F939F93AF93BF93CF93DF93EF93C5
:102BC000FF938091C10988238CF400EC19E0C1E0E7
:102BD000DBE2F8018081E881F0E0EF57F54D80837A
:102BE000CE010BDEF801818188239CF3FF91EF91E8
:102BF000DF91CF91BF91AF919F918F917F916F9115
:102C00005F914F913F912F911F910F910F900FBEA8
:102C10000F901F9018950F931F93CF93DF9361151B
:102C2000710561F08C01EC01060F171F699180ECB2
:102C300099E00E94C222C017D107C1F7DF91CF915E
:102C40001F910F910895982F977061E070E002C076
:102C5000660F771F9A95E2F786958695869520E20E
:102C6000829FC001112442E050E09A5FE9C60895B6
:102C70008091E80786958170089520E030E0F901A1
:102C8000EE0FFF1FE20FF31FE55EF44D80836183BB
:102C900042832F5F3F4F2630310589F766E08BE195
:102CA0009BE2B2C40895EBE1FBE28FEF80831182D7
:102CB000128213828483158216821782808781870D
:102CC000128613861486858716861786108A818B4E
:102CD00066E0CF0199C4089580E0E82FF0E09F01FD
:102CE000220F331FE20FF31FE55EF44D10821182B5
:102CF00012828F5F863089F766E08BE19BE284C4A5
:102D00000895AFEDB0E28C91EBE1FBE28083119688
:102D10008C911197818312968C91129782831396CE
:102D20008C911397838314968C91149784831596B2
:102D30008C911597858316968C9116978683179696
:102D40008C911797878318968C91189780878C9110
:102D5000818711968C911197828712968C91129788
:102D6000838713968C911397848714968C9114976C
:102D7000858715968C911597868716968C91169750
:102D8000878717968C911797808B18968C91818BDB
:102D900066E0CF0139C4089510927E2A80913B21CC
:102DA0008823C1F180913E2190913F219C012056C2
:102DB00035402F35310548F48091FF209091002156
:102DC000809342219093432123C0815B94408F3AAA
:102DD000910548F48091FB209091FC208093422142
:102DE0009093432115C08091462190914721892BD2
:102DF00039F480E293E0809342219093432108C00C
:102E000080914621909147218093422190934321C4
:102E100010923B212DDF811114C0809145218093B8
:102E2000442186E080934521809145210E9406053A
:102E300080E098E00E94122180E498E00E94442102
:102E400060DF8091422190914321209101213091B6
:102E5000022182179307B8F53FDF4091F6202091B9
:102E60004221309143216091012170910221429FC2
:102E7000C001439F900D11240E94A926EBE1FBE2C3
:102E80006083118212821382148215821682178245
:102E900010864091F6206091012170910221429F9D
:102EA000C001439F900D11240E94A92661871286BC
:102EB00013861486158616861786108A118A66E090
:102EC000CF01A2D364C12091FD203091FE20821752
:102ED000930708F048C000DF8091F620EBE1FBE2A9
:102EE00080831182128213821482158220914221E2
:102EF000309143218091012190910221A091F620EF
:102F00006091FD207091FE20A901481B590BA49FE0
:102F1000C001A59F900D11240E94A92666831782E7
:102F200010868091F6208187128613861486158676
:102F3000168680910121909102214091F6206091A6
:102F4000FD207091FE20281B390B429FC001439F3A
:102F5000900D11240E94A9266787108A118A66E0C5
:102F6000CF0152D314C12091F9203091FA20821759
:102F7000930708F04CC0B0DE8091F620EBE1FBE255
:102F800080831182128220914221309143218091CD
:102F9000FD209091FE20A091F6206091F920709183
:102FA000FA20A901481B590BA49FC001A59F900DB1
:102FB00011240E94A9266383148215828091F62031
:102FC0008683178210868091F62081871286138669
:102FD0008091FD209091FE204091F6206091F92093
:102FE0007091FA20281B390B429FC001439F900D1E
:102FF00011240E94A9266487158616868091F620E2
:103000008787108A118A66E0CF01FED2C0C0209166
:10301000F7203091F8208217930708F094C05CDE07
:10302000EBE1FBE21082209142213091432180911B
:10303000FB209091FC20A091F6206091F7207091E8
:10304000F820A901481B590BA49FC001A59F900D12
:1030500011240E94A9266183128213828091FB2091
:103060009091FC20A091F6206091F7207091F820BB
:10307000A901481B590BA49FC001A59F900D1124C5
:103080000E94A9266483158216828091FB2090916C
:10309000FC20A091F6206091F7207091F820A90102
:1030A000481B590BA49FC001A59F900D11240E949D
:1030B000A9266783108611868091FB209091FC20C1
:1030C000A091F6206091F7207091F820A901481B8B
:1030D000590BA49FC001A59F900D11240E94A92601
:1030E0006287138614868091FB209091FC20A0912A
:1030F000F6206091F7207091F820A901481B590B28
:10310000A49FC001A59F900D11240E94A926658748
:10311000168617868091FB209091FC204091F62026
:103120006091F7207091F820281B390B429FC00155
:10313000439F900D11240E94A926608B118A66E09E
:10314000CF0162D224C0C8DDEBE1FBE210828091A6
:10315000F6208183128213828091F6208483158267
:1031600016828091F6208783108611868091F62042
:103170008287138614868091F620858716861786A7
:103180008091F620808B118A66E0CF013DD280913C
:1031900042219091432101968093422190934321B3
:1031A00008951F920F920FB60F9211242F933F9301
:1031B0004F935F936F937F938F939F93AF93BF933F
:1031C000EF93FF9380E280936C0686DD82E197E2C5
:1031D0000197F1F7FF91EF91BF91AF919F918F917F
:1031E0007F916F915F914F913F912F910F900FBE03
:1031F0000F901F901895CF93DF9300D0CDB7DEB717
:1032000089836A8362E070E0CE01019604DD0F904D
:103210000F90DF91CF910895CF93DF9300D01F924D
:10322000CDB7DEB790914021809141219B838A8365
:103230008DE4898363E070E0CE010196ECDC239697
:10324000CDBFDEBFDF91CF910895CF93DF9300D044
:10325000CDB7DEB780913E2190913F216AE070E0CA
:103260000E94BD266A8382E4898362E070E0CE0119
:103270000196D1DC0F900F90DF91CF910895CF93FD
:10328000DF9300D0CDB7DEB719821A82F1DC8A83D2
:1032900087E4898362E070E0CE010196BCDC0F9088
:1032A0000F90DF91CF910895CF93DF9300D0CDB7EA
:1032B000DEB719821A8285E590E022D58A8388E4F8
:1032C000898362E070E0CE010196A5DC0F900F903B
:1032D000DF91CF910895CF93DF93CDB7DEB72A97D3
:1032E000CDBFDEBFFE0131968AE0DF011D928A95D7
:1032F000E9F783E68983319681E090E0DC01A15211
:10330000BF4D2C912193019689309105B9F76AE060
:1033100070E0CE0101967FDC2A96CDBFDEBFDF9143
:10332000CF910895CF93DF9300D0CDB7DEB7198248
:103330001A82DCD98A8380E7898362E070E0CE015B
:10334000019669DC0F900F90DF91CF910895CF9394
:10335000DF9381E090E0D4D4CFEDD0E2888382E0A7
:1033600090E0CED4898383E090E0CAD48A8384E05D
:1033700090E0C6D48B8385E090E0C2D48C8386E055
:1033800090E0BED48D8387E090E0BAD48E8388E04D
:1033900090E0B6D48F8389E090E0B2D4888746D994
:1033A000DF91CF91089508958091802A882319F0A4
:1033B0001092802AA8950895982F977061E070E088
:1033C00002C0660F771F9A95E2F7869586958695D7
:1033D00020E2829FC001112441E050E09A5F30C397
:1033E0000895DC0111962C91119798E0E0E4F6E045
:1033F00030E422230CF028C03583000000000000D8
:1034000000000000000000000000000000000000BC
:1034100000000000000000000000000000000000AC
:1034200000000000000000000000368300000000E3
:10343000000000000000000000000000000000008C
:1034400000000000000026C03583000000000000DE
:10345000000000000000000000000000000000006C
:1034600036830000000000000000000000000000A3
:10347000000000000000000000000000000000004C
:10348000000000000000000000000000000000003C
:1034900000000000220F915009F0ABCF2C9198E072
:1034A000E0E4F6E030E422230CF028C0358300008D
:1034B000000000000000000000000000000000000C
:1034C00000000000000000000000000000000000FC
:1034D0000000000000000000000000000000368333
:1034E00000000000000000000000000000000000DC
:1034F0000000000000000000000026C0358300002E
:1035000000000000000000000000000000000000BB
:1035100000000000368300000000000000000000F2
:10352000000000000000000000000000000000009B
:10353000000000000000000000000000000000008B
:103540000000000000000000220F915009F0ABCFF6
:1035500012969C9188E0E0E4F6E020E499230CF0D8
:1035600028C02583000000000000000000000000CB
:10357000000000000000000000000000000000004B
:10358000000000000000000000000000000000003B
:103590000000000026830000000000000000000082
:1035A000000000000000000000000000000000001B
:1035B00026C025830000000000000000000000007D
:1035C0000000000000000000000026830000000052
:1035D00000000000000000000000000000000000EB
:1035E00000000000000000000000000000000000DB
:1035F0000000000000000000000000000000990F23
:10360000815009F0ABCF08950F931F93CF93DF93B1
:10361000662351F0062FC82FD92F10E0CE01E1DE2E
:103620001F5F23961013FACF80E48093460689EF3C
:1036300090E00197F1F700C00000DF91CF911F915A
:103640000F910895BFD188E00E945D04A8950E9463
:103650007A040E94C41280E098E016D680E498E0D4
:10366000E1D586E1A9DE38DB0E948E0B0E94480B73
:103670000E94780B0E942F0C0E94EC1289E7E3DA7B
:1036800066DEC1E0C0934521809145210E94060578
:10369000C0933B21809145210E9488040E94F80537
:1036A0000E94A0120E947812E3DA811111C0809169
:1036B00045218093442186E08093452180914521D6
:1036C0000E94060580E498E0DFD580E098E0AAD566
:1036D0000F2EF0E6EF2EF6E0FF2EF02D6894CC24AE
:1036E000C1F8D1E00F2EF0EE6F2EF7E07F2EF02D17
:1036F0006894DD24D6F800E016E06894AA24A7F8C0
:10370000BC2CCD2F6894882485F86894552452F8F1
:103710000F2EF6E09F2EF02D80912921882309F4A9
:1037200071C08091292190E0FC01E05AF109E73055
:10373000F10508F065C0E057FE4F0C94F226F80141
:103740008582FFE72AE186E0F15020408040E1F7E2
:1037500000C00000F801868253C0F801D582FFE75F
:103760002AE186E0F15020408040E1F700C00000EF
:10377000F801D68245C0F801A582FFE72AE186E07C
:10378000F15020408040E1F700C00000F801A6821F
:1037900037C0F701D582FFE72AE186E0F1502040EB
:1037A0008040E1F700C00000F701D68229C0F30194
:1037B000D583FFE72AE186E0F15020408040E1F721
:1037C00000C00000F301D6831BC0F701D583FFE7DB
:1037D0002AE186E0F15020408040E1F700C000007F
:1037E000F701D6830DC0F701C582FFE72AE186E025
:1037F000F15020408040E1F700C00000F701C68290
:103800001092292141D834DA8823F1F080914521A2
:10381000813009F4CEC04FEF60E080E02EDA1092E4
:1038200036218091452180934421C0934521809188
:1038300045210E940605C0933B2180E098E024D5F5
:1038400080E498E0EFD4B5C080914521813089F4BF
:10385000809145218093442190924521809145217A
:103860000E94060580E498E00FD580E098E0DAD465
:1038700048DA0E947613882351F0809145218230E6
:1038800031F080914521843011F00E947E138091A7
:103890003621882391F08091452180934421109214
:1038A000452180E098E0F0D47EDD40E060E080E0FB
:1038B000E4D90E947104F894FFCF0E947913882301
:1038C00059F10E9476138823A1F0C093482180917A
:1038D000452180934421B0924521809145210E9449
:1038E000060580E098E09ED46C2F80E00E94340BA7
:1038F00060C010924821809145218093442190928C
:103900004521809145210E940605E6D960E080E0CE
:103910000E94340BF6D94DC080914821813009F0C6
:1039200048C080913521811144C0809104218823B1
:1039300009F43FC080914521823081F40E94B00893
:1039400080914521809344215092452180914521C9
:103950000E94060580E098E065D429C08091452149
:10396000843029F50E94B00883D9882399F080918A
:10397000452180934421C0934521809145210E9497
:103980000605C0933B2180E098E07ED480E498E077
:1039900049D40DC08091452180934421B0924521A6
:1039A000809145210E94060580E098E03BD410926A
:1039B00004218091802A882309F4AECE1092802AB7
:1039C000A895A0CE8FEF80937000809371008093B4
:1039D00072008093730080937400809375008093CD
:1039E00076009FB7F894E0E5F0E080818260808304
:1039F0009FBF818181FFFDCF61E080E490E07AD1BB
:103A00009FB7F894E0E5F0E080818E7F80839FBFD0
:103A100008959FB7F894E82FF0E0E059FF4F6095C4
:103A20008081682360839FBF08959FB7F894E82F33
:103A3000F0E0E059FF4F8081682B60839FBF0895BD
:103A4000CF93DF93FC01709620E030E0C62FD0E0EA
:103A5000DE01022E02C0B595A7950A94E2F7A0FDFB
:103A600050832F5F3F4F31962830310589F740FF53
:103A70000AC041FF03C0FC01658302C0FC016683EC
:103A8000FC01618302C0FC016283DF91CF91089544
:103A90009C019FB7F8942115324021F46093332B99
:103AA0007093342B9FBF08958115924059F48091F3
:103AB000492191E0980F90934921811103C062E060
:103AC00081E0A7CF08958115924051F4809149215A
:103AD000815080934921811103C062E081E0A5CF2C
:103AE00008951F93CF93DF93EC011FB7F894DCDFA9
:103AF0008881816088831FBF9FB7F894EDE2FBE265
:103B000081818F5F81839FBFDF91CF911F91089546
:103B1000CF93CFB7F894FC0120812E7F2083D3DF91
:103B2000CFBF9FB7F894EDE2FBE2818181508183A2
:103B30009FBFCF9108951F920F920FB60F9211243D
:103B40002F933F934F935F936F937F938F939F93A5
:103B5000AF93BF93EF93FF934091240250912502BE
:103B6000E091332BF091342B61E080E092E00995F5
:103B7000FF91EF91BF91AF919F918F917F916F9145
:103B80005F914F913F912F910F900FBE0F901F901B
:103B90001895DF92EF92FF920F931F93CF93DF93CD
:103BA000811522E0920761F58B01EC0161E270E082
:103BB00082E0F0D0E82EF12C60E270E082E0EAD002
:103BC000FE2CEE24E82ADFB6F894CE016DDF888162
:103BD000817092E09883EC86FD86F801248135811E
:103BE000288F398F91819A8393819C8392819B83C3
:103BF00090819983968198878883CE0164DFDFBEA8
:103C0000DF91CF911F910F91FF90EF90DF9008957A
:103C1000FF920F931F93CF93DF93EC018B01FFB6BD
:103C2000F89442DF888D998DF801848395838A8189
:103C300081838C8183838B81828389818083888542
:103C40008683CE0140DFFFBEDF91CF911F910F91A0
:103C5000FF900895FF920F931F93CF93DF93EC0192
:103C60008A01FFB6F89420DFF801808188A3828161
:103C70008AA3818189A383818EA384818FA3858177
:103C800088A7868189A787818AA780858BA7818558
:103C90008CA7CE0118DFFFBEDF91CF911F910F914E
:103CA000FF900895FF920F931F93CF93DF93EC0142
:103CB0008A01FFB6F894F8DE88A1F80180838AA112
:103CC000828389A181838EA183838FA1848388A528
:103CD000858389A586838AA587838BA580878CA504
:103CE0008187CE01F0DEFFBEDF91CF911F910F9152
:103CF000FF9008951BBEFC0128ED24BF608308954A
:103D00009C01E0ECF1E097859923ECF3F901F05F79
:103D100080810895E0ECF1E087858823ECF38091C1
:103D2000CF0181FF07C086E38093CA0161E08BEC7D
:103D300091E0E0CF0895E0ECF1E097859923ECF372
:103D4000E82FF0E0F05F60830895FF920F931F93D8
:103D5000CF93DF93182FF92EC62F0091CA01DADF17
:103D6000E0ECF1E027852223ECF36C2F812FE3DFD9
:103D7000C0ECD1E01A82F982188385E38A8761E07A
:103D80008BEC91E0B7DF0A87DF91CF911F910F9104
:103D9000FF9008954091CA01E62FF72F8093CA0142
:103DA00084914093CA0108951F920F920FB60F920B
:103DB00011242F933F934F935F936F937F938F9330
:103DC0009F93AF93BF93EF93FF93E0916421F091A2
:103DD0006521309709F00995FF91EF91BF91AF915F
:103DE0009F918F917F916F915F914F913F912F9113
:103DF0000F900FBE0F901F9018951F920F920FB645
:103E00000F9211242F933F934F935F936F937F9360
:103E10008F939F93AF93BF93EF93FF93E0916221B2
:103E2000F0916321309709F00995FF91EF91BF91CF
:103E3000AF919F918F917F916F915F914F913F9142
:103E40002F910F900FBE0F901F9018951F920F92F9
:103E50000FB60F9211242F933F934F935F936F935D
:103E60007F938F939F93AF93BF93EF93FF93E091D3
:103E70006021F0916121309709F00995FF91EF9150
:103E8000BF91AF919F918F917F916F915F914F9172
:103E90003F912F910F900FBE0F901F9018951F927A
:103EA0000F920FB60F9211242F933F934F935F936E
:103EB0006F937F938F939F93AF93BF93EF93FF93F2
:103EC000E0915E21F0915F21309709F00995FF9113
:103ED000EF91BF91AF919F918F917F916F915F9182
:103EE0004F913F912F910F900FBE0F901F901895FB
:103EF0001F920F920FB60F9211242F933F934F935F
:103F00005F936F937F938F939F93AF93BF93EF9341
:103F1000FF93E0915C21F0915D21309709F00995C4
:103F2000FF91EF91BF91AF919F918F917F916F9191
:103F30005F914F913F912F910F900FBE0F901F9067
:103F400018951F920F920FB60F9211242F933F9343
:103F50004F935F936F937F938F939F93AF93BF9391
:103F6000EF93FF93E0915A21F0915B21309709F094
:103F70000995FF91EF91BF91AF919F918F917F91A3
:103F80006F915F914F913F912F910F900FBE0F90C6
:103F90001F9018951F920F920FB60F9211242F9316
:103FA0003F934F935F936F937F938F939F93AF93C1
:103FB000BF93EF93FF93E0915821F09159213097EF
:103FC00009F00995FF91EF91BF91AF919F918F916A
:103FD0007F916F915F914F913F912F910F900FBE05
:103FE0000F901F9018951F920F920FB60F921124E9
:103FF0002F933F934F935F936F937F938F939F93F1
:10400000AF93BF93EF93FF93E0915621F091572127
:10401000309709F00995FF91EF91BF91AF919F9172
:104020008F917F916F915F914F913F912F910F9061
:104030000FBE0F901F9018951F920F920FB60F9200
:1040400011242F933F934F935F936F937F938F939D
:104050009F93AF93BF93EF93FF93E0915421F0911F
:104060005521309709F00995FF91EF91BF91AF91DC
:104070009F918F917F916F915F914F913F912F9180
:104080000F900FBE0F901F9018951F920F920FB6B2
:104090000F9211242F933F934F935F936F937F93CE
:1040A0008F939F93AF93BF93EF93FF93E091522130
:1040B000F0915321309709F00995FF91EF91BF914D
:1040C000AF919F918F917F916F915F914F913F91B0
:1040D0002F910F900FBE0F901F9018951F920F9267
:1040E0000FB60F9211242F933F934F935F936F93CB
:1040F0007F938F939F93AF93BF93EF93FF93E09141
:104100005021F0915121309709F00995FF91EF91DD
:10411000BF91AF919F918F917F916F915F914F91DF
:104120003F912F910F900FBE0F901F9018951F92E7
:104130000F920FB60F9211242F933F934F935F93DB
:104140006F937F938F939F93AF93BF93EF93FF935F
:10415000E0914E21F0914F21309709F00995FF91A0
:10416000EF91BF91AF919F918F917F916F915F91EF
:104170004F913F912F910F900FBE0F901F90189568
:104180001F920F920FB60F9211242F933F934F93CC
:104190005F936F937F938F939F93AF93BF93EF93AF
:1041A000FF93E0914C21F0914D21309709F0099552
:1041B000FF91EF91BF91AF919F918F917F916F91FF
:1041C0005F914F913F912F910F900FBE0F901F90D5
:1041D00018951F920F920FB60F9211242F933F93B1
:1041E0004F935F936F937F938F939F93AF93BF93FF
:1041F000EF93FF93E0914A21F0914B21309709F022
:104200000995FF91EF91BF91AF919F918F917F9110
:104210006F915F914F913F912F910F900FBE0F9033
:104220001F901895CF93CFB7F894282F392F2115C9
:1042300088E0380739F461E083E0EBDB64E083E099
:10424000E8DB17C0203488E0380739F462E083E007
:10425000E0DB64E083E0DDDB0CC02034394039F47E
:1042600062E084E0D6DB64E084E0D3DB02C0CFBF51
:1042700009C09FB7F894EDE2FBE281818F5F8183F3
:104280009FBFCFBFCF910895CF93CFB7F8943FB7DB
:10429000F894EDE2FBE22181215021833FBF282FDA
:1042A000392F211588E0380739F461E083E0BDDB60
:1042B00064E083E0BADB17C0203488E0380739F4C3
:1042C00062E083E0B2DB64E083E0AFDB0CC020346B
:1042D000394039F461E084E0A8DB64E084E0A5DBE8
:1042E00002C0CFBF01C0CFBFCF910895811528E094
:1042F000920729F4609364217093652108958034B6
:1043000028E0920729F46093582170935921089569
:104310008034994021F46093502170935121089585
:104320001F920F920FB60F9211242F933F934F932A
:104330005F936F937F938F939F93AF93BF93CF932D
:10434000DF93EF93FF93E0916621F09167218481E1
:1043500083FF08C08860848383E0838386EF809333
:10436000702195C0982F947131F083E083838FEF93
:10437000809370218CC086FF43C0C6E6D1E2AA813B
:10438000BB818C819D8114962D913C91159782174C
:1043900093076CF49C012F5F3F4F20936A21309369
:1043A0006B21A80FB91F11968C91878370C08091E3
:1043B0006C2190916D2118962D913C91199782173F
:1043C0009307C8F420916E21222321F08681816019
:1043D00086835DC016962D913C911797AC014F5F77
:1043E0005F4F40936C2150936D21D901A80FB91FE5
:1043F0008C9187834CC083E083831092702147C0E7
:1044000088230CF041C0C6E6D1E2AA81BB818E812F
:104410009F8118962D913C9119978217930770F5FB
:1044200016966D917C9117979C012F5F3F4F2093BB
:104430006C2130936D214781860F971FEC014883D3
:10444000EB01888190E0019618964D915C91199747
:104450004817590721F018968D939C931997189631
:104460008D919C9119972817390718F482E083835E
:104470000EC087E083831092702109C083E083839C
:1044800089EF8093702103C08BEF80937021FF919F
:10449000EF91DF91CF91BF91AF919F918F917F91DC
:1044A0006F915F914F913F912F910F900FBE0F90A1
:1044B0001F901895FC01DB0114968C91858388EB85
:1044C000818381E08483E6E6F1E211861286E0EAE8
:1044D000F0E0828182608283789480E00895DC013C
:1044E000892B09F449C06115710509F447C0FB0126
:1044F000928580916F21882319F09923F1F340C0B0
:104500008FB7F894E6E6F1E291E0918790E8928720
:104510008FBFA083B1836283738314821582168256
:1045200017824087FB018081880F24813581232BEE
:1045300011F4411103C016968C9303C08160169646
:104540008C93E6E6F1E282858038E9F3E09166211A
:10455000F091672184818370813049F0A6E6B1E251
:10456000ED91FC911197848183708130C9F7E6E663
:10457000F1E282851186089588EF089588EF089505
:1045800086EF0895FC0122E137E203C02150310992
:1045900019F0918195FFFACF608380E090E0089553
:1045A000FC0122E137E203C02150310919F0918169
:1045B0009923D4F7808108952F923F924F925F9272
:1045C0006F927F928F929F92AF92BF92CF92DF9223
:1045D000EF92FF920F931F93CF931C012A013B018F
:1045E00048015901D901C801689412F8B695A795F8
:1045F000979587951694D1F7B901A801032E36E156
:1046000076956795579547953A95D1F7302DF101F5
:10461000238122FD08C0B695A79597958795769535
:1046200067955795479584159505A605B70508F430
:10463000AAC0441655066606770608F4A6C0F1011E
:10464000838182FD04C0440C551C661C771CC50187
:10465000B401A3019201A4D32F3F310541055105B7
:1046600008F495C0C12CD12C7601CA94C9EF05C0BD
:104670002C153D054E055F0568F0CC0CDD1CEE1CCD
:10468000FF1CCD3F14F46894C0F8CF5FC73081F7AA
:104690008C2F54C08C2FCC230CF050C0D301C201FE
:1046A000880F991FAA1FBB1F880F991FAA1FBB1F26
:1046B000880F991FAA1FBB1F85017401E81AF90A08
:1046C0000A0B1B0BD801C701CE3FECF42DEF3FEFD7
:1046D0002C1B3109C7FD339504C0880F991FAA1FF1
:1046E000BB1F2A95D2F773016201F694E794D79421
:1046F000C794BC01CD016C0D7D1D8E1D9F1DA301B6
:1047000092014ED336C023E02C0F8301720104C006
:10471000EE0CFF1C001F111F2A95D2F7A80197016C
:1047200067017801F694E794D794C794BC01CD0152
:104730006C0D7D1D8E1D9F1D33D31BC08D5FA3018E
:10474000920104C0220F331F441F551F8A95D2F7D0
:10475000DA01C901B695A79597958795BC01CD015A
:10476000680D791D8A1D9B1D1BD3215031094109FC
:104770005109832F8F70C295C07FC82BF101C78369
:10478000268381E01CC080E01AC080E018C0D301FD
:10479000C201880F991FAA1FBB1F880F991FAA1F4C
:1047A000BB1F880F991FAA1FBB1F85017401E81A40
:1047B000F90A0A0B1B0BD801C701C9EF87CFCF91AC
:1047C0001F910F91FF90EF90DF90CF90BF90AF902F
:1047D0009F908F907F906F905F904F903F902F9021
:1047E00008950F931F93CF93DF93EC018B01892BD7
:1047F00009F477C0C11584E0D80721F464E080E0B3
:1048000008D96FC0C038E1E0DE0721F462E080E043
:1048100000D967C0C115F1E0DF0721F461E080E055
:10482000F8D85FC0C03883E0D80721F461E081E0A8
:10483000F0D857C0C115E2E0DE0721F462E081E064
:10484000E8D84FC0C115F3E0DF0721F464E081E050
:10485000E0D847C0C11588E0D80721F461E083E0C3
:10486000D8D83FC0C034E8E0DE0721F462E083E03E
:10487000D0D837C0C034F9E0DF0721F462E084E02B
:10488000C8D82FC0C03B88E0D80721F464E083E09B
:10489000C0D827C0C03EE8E0DE0721F468E083E02E
:1048A000B8D81FC0C03CF8E0DF0721F460E183E026
:1048B000B0D817C0C03C89E0D80721F460E184E09B
:1048C000A8D80FC0C038E4E0DE0721F460E483E03C
:1048D000A0D807C0C036F4E0DF0719F460E880E034
:1048E00098D88C818F738C83F80194818581892B72
:1048F0009681911198E0892B8C83F8014081518138
:104900006281738100E018E428EE31E0CE0154DECC
:104910009B8198609B839B8190619B83DF91CF916A
:104920001F910F9108955058BB27AA270ED070C130
:1049300061D130F066D120F031F49F3F11F41EF4C4
:1049400056C10EF4E095E7FB4CC1E92F72D180F31C
:10495000BA17620773078407950718F071F49EF57C
:104960008AC10EF4E0950B2EBA2FA02D0B01B901D0
:1049700090010C01CA01A0011124FF27591B99F0D5
:10498000593F50F4503E68F11A16F040A22F232FE1
:10499000342F4427585FF3CF469537952795A79531
:1049A000F0405395C9F77EF41F16BA0B620B730BD8
:1049B000840BBAF09150A1F0FF0FBB1F661F771F49
:1049C000881FC2F70EC0BA0F621F731F841F48F4FE
:1049D000879577956795B795F7959E3F08F0B3CF84
:1049E0009395880F08F09927EE0F9795879508956E
:1049F000D4D008F481E008950CD00AC102D140F06F
:104A0000F9D030F021F45F3F19F0EBC0511134C1FF
:104A1000EEC00FD198F39923C9F35523B1F3951B39
:104A2000550BBB27AA2762177307840738F09F5FCF
:104A30005F4F220F331F441FAA1FA9F333D00E2E3E
:104A40003AF0E0E830D091505040E695001CCAF7AB
:104A500029D0FE2F27D0660F771F881FBB1F261770
:104A600037074807AB07B0E809F0BB0B802DBF0143
:104A7000FF2793585F4F2AF09E3F510568F0B1C061
:104A8000FBC05F3FECF3983EDCF386957795679526
:104A9000B795F7959F5FC9F7880F911D96958795F4
:104AA00097F90895E1E0660F771F881FBB1F621713
:104AB00073078407BA0720F0621B730B840BBA0BD1
:104AC000EE1F88F7E0950895BCD088F09F5790F0CE
:104AD000B92F9927B751A0F0D1F0660F771F881F23
:104AE000991F1AF0BA95C9F712C0B13081F0C3D03E
:104AF000B1E00895C0C0672F782F8827B85F39F0DC
:104B0000B93FCCF3869577956795B395D9F73EF481
:104B100090958095709561957F4F8F4F9F4F089529
:104B2000E89409C097FB3EF4909580957095619547
:104B30007F4F8F4F9F4F9923A9F0F92F96E9BB27FD
:104B40009395F695879577956795B795F111F8CF79
:104B5000FAF4BB0F11F460FF1BC06F5F7F4F8F4FE4
:104B60009F4F16C0882311F096E911C0772321F0DA
:104B70009EE8872F762F05C0662371F096E8862F72
:104B800070E060E02AF09A95660F771F881FDAF7C9
:104B9000880F9695879597F90895990F0008550FF6
:104BA000AA0BE0E8FEEF16161706E807F907C0F0B3
:104BB00012161306E407F50798F0621B730B840BBB
:104BC000950B39F40A2661F0232B242B252B21F495
:104BD00008950A2609F4A140A6958FEF811D811D35
:104BE000089597F99F6780E870E060E008959FEF6F
:104BF00080EC089500240A94161617061806090674
:104C0000089500240A941216130614060506089542
:104C1000092E0394000C11F4882352F0BB0F40F4CA
:104C2000BF2B11F460FF04C06F5F7F4F8F4F9F4F0A
:104C3000089557FD9058440F551F59F05F3F71F08C
:104C40004795880F97FB991F61F09F3F79F08795F3
:104C50000895121613061406551FF2CF4695F1DF7C
:104C600008C0161617061806991FF1CF869571050C
:104C7000610508940895E894BB2766277727CB0140
:104C800097F908958ADF08F48FEF08950BD0C0CF0D
:104C9000B1DF28F0B6DF18F0952309F0A2CFA7CF37
:104CA0001124EACFC6DFA0F3959FD1F3950F50E012
:104CB000551F629FF001729FBB27F00DB11D639FCE
:104CC000AA27F00DB11DAA1F649F6627B00DA11D74
:104CD000661F829F2227B00DA11D621F739FB00D1A
:104CE000A11D621F839FA00D611D221F749F33278A
:104CF000A00D611D231F849F600D211D822F762F23
:104D00006A2F11249F5750408AF0E1F088234AF01F
:104D1000EE0FFF1FBB1F661F771F881F915050406B
:104D2000A9F79E3F510570F05CCFA6CF5F3FECF333
:104D3000983EDCF3869577956795B795F795E79557
:104D40009F5FC1F7FE2B880F911D9695879597F968
:104D50000895AA1BBB1B51E107C0AA1FBB1FA617C2
:104D6000B70710F0A61BB70B881F991F5A95A9F714
:104D700080959095BC01CD01089597FB072E16F400
:104D8000009406D077FD08D0E4DF07FC05D03EF4A0
:104D9000909581959F4F0895709561957F4F0895E7
:104DA000A1E21A2EAA1BBB1BFD010DC0AA1FBB1F2F
:104DB000EE1FFF1FA217B307E407F50720F0A21BA1
:104DC000B30BE40BF50B661F771F881F991F1A940E
:104DD00069F760957095809590959B01AC01BD0138
:104DE000CF010895EE0FFF1F0590F491E02D099477
:044DF000F894FFCF65
:104DF4006464646666663F0000803F6B00120003D3
:104E0400008080808080808080808080808080801E
:104E1400808080808080808080808080808080808E
:104E2400808080808080808080808080808080807E
:104E3400808080808080808080808080808080806E
:104E4400808080808080808080808080808080805E
:104E5400808080808080808080808080808080804E
:104E6400808080808080808080808080808080803E
:104E7400808080808080808080808080808080802E
:104E8400808080808080808080808080808080801E
:104E9400808080808080808080808080808080800E
:104EA40080808080808080808080808080808080FE
:104EB40080808080808080808080808080808080EE
:104EC40080808080FA01C80000960000030000FF83
:104ED400000000FF000000FF8080808080808080D0
:104EE400808080000006604038E02E302A201CC0FC
:044EF400126009003F
:00000001FF
