:100000003EC4000059C4000057C4000055C400009D
:1000100053C4000051C400004FC400004DC4000090
:100020004BC400000C94471147C400000C94F4200A
:100030000C94381E0C94611E0C948A1E0C94B31EF2
:100040000C94DC1E0C94051F0C942E1F0C94571F4F
:100050000C94801F0C94A91F2FC400000C944A1309
:100060002BC4000029C4000027C4000025C40000E0
:1000700023C4000021C400001FC400001DC40000F0
:100080001BC4000019C400000C94FF1C0C943D1804
:100090000C94D21F0C94FB1F0C9424200C944D2024
:1000A0000C94C51309C4000007C40000AD11B211BF
:1000B000E411E411E411E411E411E411E411E41198
:1000C000E411E411E411E411E411E411B711E411B5
:1000D000E411E411E411E411E411E411E411E41178
:1000E000E411E411E411E411E411E411E411BC1190
:1000F000C111E411E411E411E411E411E411E4117B
:10010000E411E411E411E411E411E411E411C61165
:10011000CB11E411E411E411E411E411E411E41150
:10012000E411E411E411E411E411E411E411D0113B
:10013000D511E411E411E411E411E411E411E41126
:10014000E411E411E411E411E411E411E411DA1111
:10015000DF11C113C113C113C113C113C113C313E1
:10016000C313C313C313C313C313C313C313C313DF
:10017000C313C313C313C313C313C313C313C313CF
:10018000C313C313C313C313C313C313C313C313BF
:10019000C313C313C313C313C313C313C313C313AF
:1001A000C313C313C313C313C313C313C313C3139F
:1001B000C313C313C313C313C313C313C313C3138F
:1001C000C313C313C313C313C313C313C313C3137F
:1001D000C313C313C113C113C313C313C313C11375
:1001E000C113C313C313C313C313C113C313C31363
:1001F000C113C313C113C313C113C313C313C11357
:10020000C313C313C313C313C313C313C313C3133E
:10021000C313C313C313C113C313C313C313C31330
:10022000C313C313C313C313C313C313C313C3131E
:10023000C1139514A414E814ED14F214F7146715FF
:1002400067156715671567156715671567156715CE
:1002500067156715671567156715671567156715BE
:1002600067156715671567156715671567156715AE
:10027000671567156715671567156715671567159E
:10028000671567156715671567156715671567158E
:10029000671567156715671567156715671567157E
:1002A000671567156715671567156715671567156E
:1002B00067156715FE140C14671567156715041587
:1002C00061156715671567156715FC1467156715C0
:1002D0007914671563156715061567156715641595
:1002E000671567156715671567156715671567152E
:1002F0006715671567150215671567156715671583
:10030000671567156715671567156715671567150D
:100310000015B014B814C014C814D014D814E014C4
:100320000B1B511B5F1B351B191B431B271B00009D
:1003300014005000B4004001F301CD02CD03F304DA
:100340003D06AD073F09F40AC90CBF0ED4100713D0
:100350005515BE17411ADB1C8B1F502227250F286D
:10036000062B0A2E193132345237773AA03DCB4052
:10037000F5431C473F4A5C4D70507A537856675995
:10038000475C155FCF61756403677969D66B166E3C
:100390003A703F722674EB758F770F796D7AA57B73
:1003A000B87CA57D6C7E0B7F837FD37FFB7FFB7F3B
:1003B000D37F837F0B7F6C7EA57DB87CA57B6D7A18
:1003C0000F798F77EB7526743F723A70166ED66B85
:1003D000796903677564CF61155F475C6759785623
:1003E0007A5370505C4D3F4A1C47F543CB40A03DCB
:1003F000773A5237323419310A2E062B0F28272527
:1004000050228B1FDB1C411ABE1755150713D41041
:10041000BF0EC90CF40A3F09AD073D06F304CD0336
:10042000CD02F3014001B4005000140000000001AF
:10043000010202020203030303030304040404048D
:10044000040404050505050505050505050606065C
:100450000606060606060606060707070707070735
:100460000707070707070708080808080808080813
:1004700008080808080808090909090909090909F3
:100480000909090909090909090A0A0A0A0A0A0AD5
:100490000A0A0A0A0A0A0A0A0A0A0A0A0A0B0B0BB9
:1004A0000B0B0B0B0B0B0B0B0B0B0B0B0B0B0B0B9C
:1004B0000B0B0B0C0C0C0C0C0C0C0C0C0C0C0C0C7F
:1004C0000C0C0C0C0C0C0C0C0C0C0C0D0D0D0D0D67
:1004D0000D0D0D0D0D0D0D0D0D0D0D0D0D0D0D0D4C
:1004E0000D0D0D0D0D0E0E0E0E0E0E0E0E0E0E0E31
:1004F0000E0E0E0E0E0E0E0E0E0E0E0E0E0E0E0E1C
:100500000E0F0F0F0F0F0F0F0F0F0F0F0F0F0F0FFC
:100510000F0F0F0F0F0F0F0F0F0F0F0F0F0F0F10EA
:1005200010101010101010101010101010100006E5
:10053000080A0B0D0E0F10111213141415161717AD
:100540001819191A1B1B1C1C1D1D1E1E1F1F2020E5
:100550002121222223232424252526262627272855
:10056000282829292A2A2A2B2B2B2C2C2D2D2D2EDD
:100570002E2E2F2F2F303030313131323232333373
:100580003334343434353535363636373737373813
:100590003838393939393A3A3A3B3B3B3B3C3C3CB9
:1005A0003C3D3D3D3D3E3E3E3E3F3F3F3F40000BDC
:1005B000101417191C1E2022242627292A2C2D2F1F
:1005C00030313334353637393A3B3C3D3E3F40419C
:1005D0004243444546474848494A4B4C4D4E4E4F8E
:1005E000505152525354555556575858595A5B5BAF
:1005F0005C5D5D5E5F5F60616162636364656566EB
:1006000066676868696A6A6B6B6C6D6D6E6E6F6F3A
:100610007071717272737374747576767777787897
:1006200079797A7A7B7B7C7C7D7D7E7E7F7F0010F2
:10063000171C2024272A2D303335373A3C3E4042C0
:10064000444648494B4D4E505253555658595B5CA1
:100650005D5F60616364656668696A6B6D6E6F702B
:1006600071727374767778797A7B7C7D7E7F8081F6
:1006700082838485868788898A8B8B8C8D8E8F90E8
:1006800091929394949596979899999A9B9C9D9EF4
:100690009E9FA0A1A2A2A3A4A5A6A6A7A8A9A9AA15
:1006A000ABACACADAEAFAFB0B1B1B2B3B4B4B5B644
:1006B000B6B7B8B9B9BABBBBBCBDBDBEBFBFC0C180
:1006C000C1C2C3C3C4C5C5C6C7C7C8C8C9CACACBC7
:1006D000CCCCCDCECECFCFD0D1D1D2D2D3D4D4D515
:1006E000D5D6D7D7D8D8D9DADADBDBDCDDDDDEDE6C
:1006F000DFDFE0E1E1E2E2E3E3E4E5E5E6E6E7E7C8
:10070000E8E8E9EAEAEBEBECECEDEDEEEEEFEFF02A
:10071000F1F1F2F2F3F3F4F4F5F5F6F6F7F7F8F891
:10072000F9F9FAFAFBFBFCFCFDFDFEFEFFFF70078A
:10073000780F74177C1F72277A2F76377E3F7147A8
:10074000794F75577D5F73677B6F6003680B641328
:100750006C1B62236A2B66336E3B6143694B6553A6
:100760006D5B5005580D54155C1D52255A2D56359C
:100770005E3D5145594D4001480944114C194221F3
:100780004A2946314E393006380E34163C1E322680
:100790003A2E2002280A24122C1A1004180C427631
:1007A000FC30825A825AFC3042768A7DF9184276B1
:1007B000FC306E6A1D47825A825A1D476E6AFC30B1
:1007C0004276F9188A7D627F8C0C8A7DF9187D7AD1
:1007D00028254276FC30E370573C6E6A1D47F26272
:1007E0003451825A825A3451F2621D476E6A573C24
:1007F000E370FC30427628257D7AF9188A7D8C0CCE
:10080000627FD97F4806627F8C0C9D7EC8128A7DEC
:10081000F9182A7C1A1F7D7A282585781F2B4276A5
:10082000FC30B673BA36E370573CCA6DCE416E6A7F
:100830001D47D066404CF2623451D75EF655825A5D
:10084000825AF655D75E3451F262404CD0661D474D
:100850006E6ACE41CA6D573CE370BA36B673FC304F
:1008600042761F2B857828257D7A1A1F2A7CF91855
:100870008A7DC8129D7E8C0C627F4806D97F112428
:100880001FBECFEFCDBFDFE2DEBF11E2A0E0B0E2DE
:10089000ECEBFCE402C005900D92A230B107D9F751
:1008A0002AE2A2E0B1E201C01D92A13BB207E1F74A
:1008B0000E948E1A0C945C26A3CB6091800062701B
:1008C000616024E0829FC00111248C73682B80E852
:1008D00090E00E94DE1DE0E8F0E0828180FDFDCF27
:1008E0000895609180006C73636080E890E00E94DE
:1008F000DE1DE0E8F0E0828180FDFDCF08951F93CA
:10090000CF93DF93CDB7DEB76197CDBFDEBF182F92
:10091000BE016F5F7F4F80E092E00E946C1D998165
:100920002A812F7822612A8382E08C83917E9061D4
:1009300099831B828FB7F89498E0909308028FBF39
:10094000BE016F5F7F4F80E092E00E942D1DAE01DF
:10095000485F5F4F61E080E092E00E94B61D143076
:10096000B9F028F4113041F0123061F021C0153097
:10097000A9F01630C1F01CC0198A81E0888780E296
:10098000898716C0198A8AE0888788E0898710C01D
:10099000198A8AE0888783E189870AC081E088878D
:1009A00080E6898705C0188688E0898786E4898B78
:1009B0008A851C86807F8A87AE01485F5F4F61E031
:1009C00080E092E00E948E1D80E092E00E94D51CA3
:1009D0009FB7F894E0E0F2E08081846080839FBF5D
:1009E000868180FFFDCF81E0809306026196CDBFB6
:1009F000DEBFDF91CF911F9108951F93CF93DF93B7
:100A0000CDB7DEB72A97CDBFDEBF182FAE014F5F3F
:100A10005F4F61E080E092E00E94B61D1430B9F0B3
:100A200028F4113041F0123061F021C01530A9F0E6
:100A30001630C1F01CC01A8681E0898380E28A8367
:100A400016C01A868AE0898388E08A8310C01A86D5
:100A50008AE0898383E18A830AC081E0898380E612
:100A60008A8305C0198288E08A8386E48A87AE017A
:100A70004F5F5F4F61E080E092E00E948E1D2A96FA
:100A8000CDBFDEBFDF91CF911F91089580914321AB
:100A9000843009F44CC028F4813051F0823009F1DF
:100AA0000895853009F469C0863009F475C0089549
:100AB0000E94B115811192C08091432180934221FF
:100AC00086E0809343218091432197DF80E098E086
:100AD0000E94762080E498E00E94A8200C94FA15E9
:100AE000089580910321909104219C012F5F3F4F35
:100AF0002093032130930421880F991FFC01EC58A7
:100B0000F64D4083518380910321909104218038D8
:100B1000910508F463C0109203211092042181E032
:100B20008093022180E098E00C94A82008958091A1
:100B30000321909104219C012F5F3F4F20930321BB
:100B400030930421880F991FFC01EC58F64D408327
:100B5000518380910321909104218038910508F4FC
:100B60003DC0109203211092042181E08093022164
:100B700080E098E00C94A820089540933E21509383
:100B80003F2181E080933B2180914221809343214A
:100B90008091432132CF089540933C2150933D21D1
:100BA00081E080933A210E94B1158823B9F04FEF7C
:100BB00060E080E00E94B61580914321809342213D
:100BC00081E0809343218091432117DF80E098E00A
:100BD0000E94A82080E498E00C9476200895CF939A
:100BE000DF93CDB7DEB72A97CDBFDEBF80E092E0BE
:100BF0000E94EC1CAE014F5F5F4F61E080E092E02D
:100C00000E94B61DE0EAF0E082818160828366E4A2
:100C100075E080E092E00E94AC1C8B818C7F81604B
:100C20008B83AE014F5F5F4F61E080E092E00E94F6
:100C30008E1D80E092E00E94D51C78942A96CDBF4C
:100C4000DEBFDF91CF910895662369F0FC01AC010E
:100C5000460F511D80E090E02191820F911DE41715
:100C6000F507D1F702C080E090E070E00E940D2609
:100C7000862F08958F929F92AF92BF92EF92FF922C
:100C80000F931F93CF93DF938091192190911A2195
:100C9000A0911B21B0911C2180930D2190930E21D6
:100CA000A0930F21B09310218091152190911621CE
:100CB000A0911721B09118218093092190930A21C6
:100CC000A0930B21B0930C218091112190911221BE
:100CD000A0911321B09114218093052190930621B6
:100CE000A0930721B09308211092192110921A2184
:100CF00010921B2110921C21109215211092162186
:100D00001092172110921821109211211092122185
:100D1000109213211092142100910F201091102095
:100D20001016110644F5812C912C54010F2EF1EB75
:100D3000EF2EF5E2FF2EF02DC0E0D0E0F70181911B
:100D400091917F01BC0180E090E00E94F4249B011E
:100D5000AC01C501B4010E94F8234B015C0121964E
:100D6000C017D1075CF36093192170931A21809307
:100D70001B2190931C21C0910D20D0910E20C00FFB
:100D8000D11F0C171D076CF580901521909016212E
:100D9000A0901721B0901821C801880F991F9C01BD
:100DA0002F543A4D7901F701819191917F01BC0156
:100DB00080E090E00E94F4249B01AC01C501B401E5
:100DC0000E94F8234B015C010F5F1F4F0C171D079A
:100DD00054F36093152170931621809317219093FB
:100DE0001821E0900B20F0900C20EC0EFD1ECE158B
:100DF000DF0554F58090112190901221A0901321CD
:100E0000B09014218E01000F111F0F541A4DF801DC
:100E1000819191918F01BC0180E090E00E94F424C7
:100E20009B01AC01C501B4010E94F8234B015C0198
:100E30002196CE15DF055CF360931121709312218A
:100E4000809313219093142110911921D0911A218C
:100E5000C0911B2100911C218090072090900820B8
:100E6000A0900920B0900A20A5019401612F7D2F48
:100E70008C2F902F0E94A6251816ECF0209115219A
:100E8000309116214091172150911821C501B401CC
:100E90000E945C2488237CF0209111213091122142
:100EA0004091132150911421C501B4010E945C248A
:100EB00088230CF045C0A0901521B0901621E09039
:100EC0001721F09018212A2D3B2D4E2D5F2D612FDB
:100ED0007D2F8C2F902F0E94A625181624F01A2DF6
:100EE000DB2DCE2D0F2DA0901121B0901221E0907E
:100EF0001321F09014212A2D3B2D4E2D5F2D612FB3
:100F00007D2F8C2F902F0E94A625181624F01A2DC5
:100F1000DB2DCE2D0F2D812F9D2FAC2FB02F809349
:100F2000702990937129A0937229B09373298093AB
:100F3000072090930820A0930920B0930A2014C0A2
:100F400020910320309104204091052050910620EB
:100F5000C501B4010E94AA25609307207093082060
:100F60008093092090930A2020911D2130911E2109
:100F700040911F21509120216091072070910820FD
:100F80008091092090910A200E94F7239B01AC01D7
:100F900060E070E08FE793E40E9460244B015C0105
:100FA0002091192130911A2140911B2150911C212F
:100FB0000E94AA250E94C824D62F60939B252091C9
:100FC0001521309116214091172150911821C5010A
:100FD000B4010E94AA250E94C824C62F60936E28DF
:100FE000209111213091122140911321509114210F
:100FF000C501B4010E94AA250E94C82460936F29EC
:101000008091252190912621FC01EA54FF4DD08347
:10101000E0912321F0912421DF01A05EBF4DCC930C
:101020002091212130912221D901AF5EBF4D6C93D7
:1010300001966EE170E00E94212680932521909315
:101040002621CF01019666E970E00E942126809357
:10105000232190932421C90101966FE070E00E9442
:10106000212680932121909322216FE081E190E25B
:10107000EBDDD82F80936F2966E980E290E2E4DD12
:10108000C82F80936E286EE186EB90E2DDDD6091E3
:10109000022024E6289FC001112470E00E9421262E
:1010A000162F60939B25A09101202C9FC001112435
:1010B0006A2F70E00E94212660936E2830910020F4
:1010C0002D9FC0011124632F70E00E942126862FDE
:1010D00060936F29EDEDF0E220819181921748F045
:1010E00020819281921728F0412F80E00E94B6154E
:1010F00023C0EDEDF0E221819081921748F021812B
:101100009281921728F0412F60E00E94B61514C01A
:10111000EDEDF0E222819081921748F022819181D9
:10112000921728F040E0612F0E94B61505C0412FAC
:10113000682F80E00E94B615DF91CF911F910F912B
:10114000FF90EF90BF90AF909F908F9008952F9257
:101150003F924F925F926F927F928F929F92AF9247
:10116000BF92CF92DF92EF92FF920F931F93CF9394
:10117000DF932F923F924F925F92FF920F931F93B4
:10118000CF93DF93C4E7D9E2EEE2F3E0FF2440E837
:101190006591759108811981970320010E034F1CF9
:1011A00010019E035F08300C411C5F1CF8035F08B0
:1011B000300C411C5F1C499259924A9549F7DF91C6
:1011C000CF911F910F91FF905F904F903F902F9084
:1011D00011242F923F926F927F92CF93DF93EEE292
:1011E000F7E048E3A591BB27AA0FBB1FAC58B64D4B
:1011F0002D903C90C591DD27CC0FDD1FCC58D64DEE
:10120000688079807C926E92288239824A9551F763
:10121000DF91CF917F906F903F902F902F923F92D0
:101220004F925F926F927F928F929F92AF92BF92F6
:10123000CF92DF92EF92FF920F931F93CF93DF93A2
:10124000FF2400E1E02EC4E7D9E2688079804A807B
:101250005B8075946794430155944794640C751CA6
:1012600084189508AC80BD804E805F80B594A794AB
:10127000650155944794A40CB51CC418D50868851D
:1012800079854A845B84759567958B01559447945D
:10129000640D751D041915098C859D854E845F8428
:1012A000959587959C0155944794840D951D241917
:1012B0003509759467942301B594A7946A0C7B1C37
:1012C0004A185B08959487945401D594C7948C0C64
:1012D0009D1CAC18BD08759567956B019595879514
:1012E000680F791FC81AD90A759467941301759508
:1012F0006795660E771E261A370A42E85AE51503E7
:10130000C001049FB00114039F09700D811D9F1D32
:10131000509F700D811D9F1D959487948401880EA8
:10132000991E081B190B55944794D201D594C79464
:101330004C0C5D1CAC19BD093503C001249FB001E4
:1013400034039F09700D811D9F1D529F700D811DDB
:101350009F1DB594A7946501A80EB91EC81AD90A95
:10136000699279928992999249925992A992B992E5
:101370002992399209931993A993B993C992D99251
:10138000EA9409F062CF00E2C02EDD240AE2902E3A
:10139000EEE9F7E000E1A02EBB2404E0E02EA4E794
:1013A000B9E2ED01CA0DDB1D8E2C2D903C904880DA
:1013B000598035942794310155944794640C751CD9
:1013C00024183508299239927C926E92AC0DBD1D7D
:1013D0001197EA94088119813C912E91459155917C
:1013E0006591759115022001049F100114035F0897
:1013F000300C411C5F1C509F300C411C5F1C37029D
:101400003001269F200C311C461C571C36035F08F8
:10141000300C411C5F1C729F300C411C5F1C0E0184
:10142000CA19DB0928803980359427943101640C6E
:10143000751C2418350868827982E0012992399256
:1014400017022001069F100116035F08300C411C93
:101450005F1C709F300C411C5F1C35023001249FC3
:10146000201831084608570834035F1C301841081B
:101470005F08529F301841085F080D01AA19BB0987
:101480002D903C90359427943101640C751C2418E0
:1014900035087C926E92D0012D923C921297EA947C
:1014A00009F098CFDE01AA19BB092D903C90488025
:1014B000598035942794310155944794640C751CD8
:1014C00024183508288239827C926E92C50196953F
:1014D0008795C80FD91FC437D90540F4DE01CA0D5E
:1014E000DB1DE82CEA19FB0934965FCF85FC06C0AA
:1014F000EA2CE6945601CC0CDD1C51CFDF91CF9144
:101500001F910F91FF90EF90DF90CF90BF90AF9021
:101510009F908F907F906F905F904F903F902F9013
:1015200011242F923F924F925F926F927F928F92EF
:10153000FF920F931F93CF93DF93A4E7B9E2C1EB20
:10154000D5E2E4E7FAE24F01FF2440E40D911D915A
:10155000980106C0F4010D911D91329122914F0125
:1015600011022001009F100198035F08300C411CFC
:101570005F1C33023001229F200C311C461C571C7B
:10158000BA035F08300C411C5F1C1127552061F025
:1015900018E0F201F03428F5330CEE1FFF1F330C76
:1015A000EE1FFF1F1A951DC0442069F014E0F42DB2
:1015B000E32DF034B0F4220CEE1FFF1F220CEE1FBF
:1015C000FF1F1A95F6CFF101F03458F4F03160F4B2
:1015D000F13078F0F295E295EF70EF2BE695F1E0BF
:1015E00008C0EF2FF2E005C0EE0FFF1FEF2FE068FD
:1015F000F1E0E25DFB4F04912227112321F0000F5F
:10160000221F1A95E1F7099329934A9509F0A2CF71
:10161000DF91CF911F910F91FF908F907F906F90EE
:101620005F904F903F902F90112424DB1092022165
:10163000DF91CF911F910F91FF90EF90DF90CF90AE
:10164000BF90AF909F908F907F906F905F904F90E2
:101650003F902F9008951F93CF93DF93162FC82F9D
:10166000D0E0CE010E94091ECE010E94E41D91E04F
:10167000181390E0892FDF91CF911F910895CF9398
:10168000DF93CDB7DEB72997CDBFDEBF80E89AE103
:10169000A6E0B0E089839A83AB83BC8383E290E0C9
:1016A000A0E0B0E08D839E83AF83B88780E5898713
:1016B00060E483E00E946D1CBE016F5F7F4F80E895
:1016C00094E00E94BE21E0E8F4E08181886081839B
:1016D00078942996CDBFDEBFDF91CF91089540E089
:1016E00059E160E280E496E00E94841C80E28093ED
:1016F000B000E0E4F6E0828781E08187E0EAF0E094
:101700008281816082837894089541E050E060E2B4
:1017100080E096E00E94841C41E050E060E480E0BC
:1017200096E00E94841C41E050E060E880E096E092
:101730000E94841C41E050E060E480E696E00E9454
:10174000841C41E050E061E080EE97E00E94841C40
:1017500041E050E061E080E696E00E94841C41E0B8
:1017600050E062E080E696E00C94841C0895CF93EC
:10177000DF93CDB7DEB76197CDBFDEBF9AEF909311
:10178000D42095E5998394E09A8395E19B838C839B
:101790006D834E830E944019BE01695F7F4F8BE0CD
:1017A000FB0111928A95E9F785E28F83CE010196BC
:1017B0008D879E8786E090E08F87988B40E080E859
:1017C00094E00E94D3218093D42091E09093322121
:1017D000811101C090E0892F6196CDBFDEBFDF91FE
:1017E000CF9108951F93CF93DF93CDB7DEB72E9798
:1017F000CDBFDEBF9AEF9093D42095E5998311E099
:101800001A838B830E944019BE016C5F7F4F8BE06F
:10181000FB0111928A95E9F785E28C83CE0101964E
:101820008A879B8783E090E08C879D8740E080E8F3
:1018300094E00E94D3218093D420109332212E96DD
:10184000CDBFDEBFDF91CF911F910895CF93DF937E
:1018500085E590E00E94E41D882309F414C50E94E8
:10186000401940E060E08FEF0E94B6152FEF83ED46
:1018700090E3215080409040E1F700C0000081E0FB
:10188000B1DF2FEF83ED90E3215080409040E1F7EE
:1018900000C0000087E1A6DF2FEF83ED90E3215029
:1018A00080409040E1F700C000008DE490E00E948D
:1018B000E41D882309F4BCC040E06FEF8FEF0E9465
:1018C000B6158AE090E00E94E41D482F61E080E0B8
:1018D0004EDFC82F2FEF89E698E1215080409040DD
:1018E000E1F700C000008BE090E00E94E41D482F6B
:1018F00062E080E03CDFC82B2FEF89E698E12150C1
:1019000080409040E1F700C000008CE090E00E9431
:10191000E41D482F64E080E02ADFC82B2FEF89E622
:1019200098E1215080409040E1F700C000008DE038
:1019300090E00E94E41D482F65E080E018DFC82B8E
:101940002FEF89E698E1215080409040E1F700C0F8
:1019500000008EE090E00E94E41D482F66E080E0E9
:1019600006DFC82B2FEF89E698E121508040904098
:10197000E1F700C000008FE090E00E94E41D482FD6
:1019800067E080E0F4DEC82B2FEF89E698E1215074
:1019900080409040E1F700C0000040E060E080E05F
:1019A000E6DEC82B2FEF89E698E121508040904079
:1019B000E1F700C0000040ED63E080E0D8DEC82B16
:1019C0002FEF89E698E1215080409040E1F700C078
:1019D000000040E068E080E0CADEC82B2FEF89E617
:1019E00098E1215080409040E1F700C0000040E0C5
:1019F00069E080E0BCDED82F2FEF89E698E1215026
:101A000080409040E1F700C0000087E1EBDE2FEF5F
:101A100083ED90E3215080409040E1F700C000004A
:101A2000CD2B61E009F460E08DE490E00E94091E96
:101A30008EE490E00E94E41D882309F496C040E003
:101A40006FEF80E00E94B61580E190E00E94E41DF7
:101A5000482F60E081E08BDEC82F2FEF89E698E108
:101A6000215080409040E1F700C0000081E190E00B
:101A70000E94E41D482F61E081E079DEC82B2FEF42
:101A800089E698E1215080409040E1F700C00000D5
:101A900082E190E00E94E41D482F62E081E067DE71
:101AA000C82B2FEF89E698E1215080409040E1F764
:101AB00000C0000083E190E00E94E41D482F63E035
:101AC00081E055DEC82B2FEF89E698E12150804058
:101AD0009040E1F700C0000084E190E00E94E41D26
:101AE000482F64E081E043DEC82B2FEF89E698E1C0
:101AF000215080409040E1F700C0000085E190E077
:101B00000E94E41D482F65E081E031DEC82B2FEFF5
:101B100089E698E1215080409040E1F700C0000044
:101B200086E190E00E94E41D482F66E081E01FDE20
:101B3000D82F2FEF89E698E1215080409040E1F7BF
:101B400000C0000087E14EDE2FEF83ED90E32150CF
:101B500080409040E1F700C00000CD2B61E009F427
:101B600060E08EE490E00E94091E8FE490E00E9405
:101B7000E41D882309F471C04FEF6FEF80E0F6D7C2
:101B80008DE190E00E94E41D482F60E082E0EFDDEF
:101B9000C82F2FEF89E698E1215080409040E1F76F
:101BA00000C000008EE190E00E94E41D482F61E03B
:101BB00082E0DDDDC82B2FEF89E698E121508040DF
:101BC0009040E1F700C000008FE190E00E94E41D2A
:101BD000482F62E082E0CBDDC82B2FEF89E698E149
:101BE000215080409040E1F700C0000080E290E08A
:101BF0000E94E41D482F63E082E0B9DDC82B2FEF7F
:101C000089E698E1215080409040E1F700C0000053
:101C100081E290E00E94E41D482F64E082E0A7DDAD
:101C2000D82F2FEF89E698E1215080409040E1F7CE
:101C300000C0000087E1D6DD2FEF83ED90E3215057
:101C400080409040E1F700C00000CD2B61E009F436
:101C500060E08FE490E00E94091E80E590E00E9421
:101C6000E41D882309F457C04FEF60E080E07ED781
:101C70008FE290E00E94E41D482F60E080E177DD74
:101C8000C82F2FEF89E698E1215080409040E1F77E
:101C900000C0000080E390E00E94E41D482F61E056
:101CA00080E165DDC82B2FEF89E698E12150804067
:101CB0009040E1F700C0000041E062E080E157DDC4
:101CC000C82B2FEF89E698E1215080409040E1F742
:101CD00000C0000041E063E080E149DDD82F2FEF34
:101CE00089E698E1215080409040E1F700C0000073
:101CF00087E178DD2FEF83ED90E321508040904025
:101D0000E1F700C00000CD2B61E009F460E080E560
:101D100090E00E94091E81E590E00E94E41D882366
:101D200009F473C04FEF60E08FEF20D781E390E0BC
:101D30000E94E41D482F60E080E219DDC82F2FEFDC
:101D400089E698E1215080409040E1F700C0000012
:101D500082E390E00E94E41D482F61E080E207DD0D
:101D6000C82B2FEF89E698E1215080409040E1F7A1
:101D700000C0000046E162E080E2F9DCC82B2FEFF2
:101D800089E698E1215080409040E1F700C00000D2
:101D900045E062E080E3EBDCC82B2FEF89E698E1B9
:101DA000215080409040E1F700C000004FEF63E019
:101DB00080E3DDDCC82B2FEF89E698E121508040DD
:101DC0009040E1F700C0000046E969E080E3CFDC25
:101DD000D82F2FEF89E698E1215080409040E1F71D
:101DE00000C0000087E1FEDC2FEF83ED90E321507F
:101DF00080409040E1F700C00000CD2B61E009F485
:101E000060E081E590E00E94091E82E590E00E947A
:101E1000E41D882309F483C04FEF60E080E0A6D67C
:101E200083E390E00E94E41D482F60E080E39FDCA4
:101E3000C82F2FEF89E698E1215080409040E1F7CC
:101E400000C0000084E390E00E94E41D482F61E0A0
:101E500080E38DDCC82B2FEF89E698E1215080408C
:101E60009040E1F700C0000085E390E00E94E41D8F
:101E7000482F64E080E37BDCC82B2FEF89E698E1F4
:101E8000215080409040E1F700C0000086E390E0E0
:101E90000E94E41D482F65E080E369DCC82B2FEF2A
:101EA00089E698E1215080409040E1F700C00000B1
:101EB00087E390E00E94E41D482F66E080E357DC52
:101EC000C82B2FEF89E698E1215080409040E1F740
:101ED00000C0000088E390E00E94E41D482F67E006
:101EE00080E345DCD82F2FEF89E698E12150804030
:101EF0009040E1F700C0000087E174DC2FEF83ED34
:101F000090E3215080409040E1F700C00000CD2BCD
:101F100061E009F460E082E590E00E94091E83E53B
:101F200090E00E94E41D882309F401C14FEF60E0B6
:101F30008FEF1CD689E390E00E94E41D482F60E0FB
:101F400080E515DCC82F2FEF89E698E1215080400D
:101F50009040E1F700C000008AE390E00E94E41D99
:101F6000482F61E080E503DCC82B2FEF89E698E17C
:101F7000215080409040E1F700C000008BE390E0EA
:101F80000E94E41D482F62E080E5F1DBC82B2FEFB3
:101F900089E698E1215080409040E1F700C00000C0
:101FA0008CE390E00E94E41D482F63E080E5DFDBD6
:101FB000C82B2FEF89E698E1215080409040E1F74F
:101FC00000C000008DE390E00E94E41D482F64E013
:101FD00080E5CDDBC82B2FEF89E698E121508040CA
:101FE0009040E1F700C000008EE390E00E94E41D05
:101FF000482F65E080E5BBDBC82B2FEF89E698E131
:10200000215080409040E1F700C000008FE390E055
:102010000E94E41D482F66E080E5A9DBC82B2FEF66
:1020200089E698E1215080409040E1F700C000002F
:1020300080E490E00E94E41D482F67E080E597DB94
:10204000C82B2FEF89E698E1215080409040E1F7BE
:1020500000C0000081E490E00E94E41D482F68E089
:1020600080E585DBC82B2FEF89E698E12150804081
:102070009040E1F700C0000082E490E00E94E41D7F
:10208000482F69E080E573DBC82B2FEF89E698E1E4
:10209000215080409040E1F700C0000083E490E0D0
:1020A0000E94E41D482F6AE080E561DBC82B2FEF1A
:1020B00089E698E1215080409040E1F700C000009F
:1020C00084E490E00E94E41D482F6BE080E54FDB44
:1020D000C82B2FEF89E698E1215080409040E1F72E
:1020E00000C0000085E490E00E94E41D482F6CE0F1
:1020F00080E53DDBD82F2FEF89E698E12150804025
:102100009040E1F700C0000087E16CDB2FEF83ED2A
:1021100090E3215080409040E1F700C00000CD2BBB
:1021200061E009F460E083E590E00E94091E84E527
:1021300090E00E94E41D882309F44EC04FEF6FEF3A
:102140008FEF14D58AE490E00E94E41D482F67E0E9
:1021500080EF0DDBC82F2FEF89E698E121508040FA
:102160009040E1F700C000008BE490E00E94E41D85
:10217000482F69E080EFFBDAD82FDC2B2FEF89E6C0
:1021800098E1215080409040E1F700C000008CE4CD
:1021900090E00E94E41D482F6AE080EFE8DAC82F43
:1021A0002FEF89E698E1215080409040E1F700C090
:1021B000000087E117DB2FEF83ED90E32150804093
:1021C0009040E1F700C00000CD2B61E009F460E031
:1021D00084E590E00E94091E80E004DB2FEF83ED90
:1021E00090E3215080409040E1F700C0000087E17B
:1021F000F9DA2FEF83ED90E3215080409040E1F732
:1022000000C000008DE490E00E94E41DC82F8DE422
:1022100090E00E94E41DC82B8EE490E00E94E41D33
:10222000C82B8FE490E00E94E41DC82B80E590E06D
:102230000E94E41DC82B81E590E00E94E41DC82B9C
:1022400082E590E00E94E41DC82B83E590E00E94A7
:10225000E41DC82B84E590E00E94E41D6C2F682BE0
:1022600085E590E00E94091E85E590E00E94E41D4E
:10227000882331F040E060E08FEF78D480E004C044
:102280008BD481E001C081E0DF91CF9108951F924E
:102290000F920FB60F9211240F931F932F933F931A
:1022A0004F935F936F937F938F939F93AF93BF935E
:1022B000EF93FF93CF93DF93CDB7DEB76197CDBF99
:1022C000DEBF80E280934C0680913221882321F08A
:1022D000813009F47FC09CC0FE013C9686E0DF019E
:1022E0001D928A95E9F7BE016F5F7F4F8BE0DB019E
:1022F0001D928A95E9F785E28983EF83F88786E066
:1023000090E089879A8741E080E894E00E94D32199
:102310008D8582FB002700F910E00093752A012BC0
:1023200009F476C0A4E7BAE2887790E0959587959E
:1023300095958795959587958C938E85E82FEF7762
:102340001796EC938E2F90E0FC017097E335F10522
:10235000D8F5EA5AFF4F0C94562680EA809327213D
:1023600081E035C081EA8093272182E030C082EA93
:102370008093272183E02BC083EA8093272184E088
:1023800026C083EA8093272184E021C084EA8093D9
:10239000272185E01CC084EA8093272185E017C0AF
:1023A00085EA8093272186E012C085EA8093272161
:1023B00086E00DC086EA8093272187E008C086EA80
:1023C0008093272187E003C01092272180E080932B
:1023D00031211EC0BE016F5F7F4F8BE0FB01119268
:1023E0008A95E9F785E2898308E211E20F8318876D
:1023F00089E090E089879A8741E080E894E00E9434
:10240000D32110923221D80113968C918093D5203C
:102410006196CDBFDEBFDF91CF91FF91EF91BF916C
:10242000AF919F918F917F916F915F914F913F916C
:102430002F911F910F910F900FBE0F901F90189525
:10244000E0E0F8E084858160848781E080937D2AE4
:102450009FB7F894E0E0F2E08081846080839FBFC2
:10246000089581E080937E2AE0E4F9E0848581602C
:102470008487089581E080937C2AE0E4F8E08485F5
:102480008160848702C40895CF93DF9380E098E051
:102490000E947620C0E0D8E08E818C7F8E838E8172
:1024A00081608E838981887F898360E272E180E028
:1024B00098E00E94DA2080E590E08EA39FA38881B7
:1024C000807F84608883E0EAF0E08281816082839B
:1024D0007894DF91CF910895CF93DF93C0E4D8E053
:1024E0008E818C7F8E838E8182608E838981887FAE
:1024F00089836AE372E180E498E00E94DA2084E252
:1025000094EF8EA39FA38881807F86608883E0EA12
:10251000F0E08281826082837894DF91CF91089588
:10252000CF93DF9380E499E00E947620C0E4D9E065
:102530008E818C7F8E838E8181608E838981887F5E
:10254000898361E372E180E499E00E94DA2082EA03
:1025500090E08EA39FA38881807F87608883E0EAD4
:10256000F0E08281816082837894DF91CF91089539
:1025700043E050E068E080E696E00E94841C40E082
:1025800050E064E080E696E00E94841C66ED70E214
:1025900080EC99E00E945523E0ECF9E082818063B1
:1025A0008283E0EAF0E082818460828378940895F7
:1025B000682F80EC98E00C9426220895CF93DF9347
:1025C000ADEDB0E28C91E7E9FAE2808311968C914F
:1025D0001197818312968C91129782838C918187B7
:1025E00011968C911197828712968C9112978387FE
:1025F00013968C911397838314968C9114978483EC
:1026000015968C911597858313968C9113978487D3
:1026100014968C911497858715968C9115978687BB
:1026200016968C911697868317968C9117978783A9
:1026300018968C911897808716968C911697878795
:1026400017968C911797808B18968C91818BC0E090
:10265000D0E0FE01E352FF4D60812196CE010E9441
:10266000091EC930D105A9F77CD2811104C066E0EA
:1026700087E99AE235D7DF91CF910895809135218E
:1026800008958091342110923421089581E080933F
:10269000342108951F920F920FB60F9211242F9399
:1026A0003F934F935F936F937F938F939F93AF93DA
:1026B000BF93EF93FF9380EC98E00E9434229091B7
:1026C000382191110EC08F3049F481E08093382178
:1026D00096E09093F3208093372138C010923821F0
:1026E00035C0292F30E06091F320462F50E04F5F36
:1026F0005F4F24173507F1F410923821803FA9F479
:1027000020917F2A222361F04FE75AE2FA0180E00C
:102710009191890F9E2F941B9217D0F3811105C0C0
:10272000109237218FEF44DF11C0109237218CE0D7
:102730003FDF0CC0F901E258F54D80839F5F909315
:10274000382180917F2A68138093F320FF91EF91C5
:10275000BF91AF919F918F917F916F915F914F91B9
:102760003F912F910F900FBE0F901F90189590E002
:10277000FC013197E037F10530F4E755FF4F0C9439
:10278000562681E0089580E008951F920F920FB6BB
:102790000F9211242F933F934F935F936F937F93E7
:1027A0008F939F93AF93BF93CF93DF93EF93FF9359
:1027B00040E050E080E090E0E0ECF9E007C09C01F0
:1027C0002F5F3F4F8131974278F4C9012181222345
:1027D000B4F72081DA01AA51BF4D2C934F5F5F4FB0
:1027E0004B30510599F777C18091E620C0DF8823EF
:1027F00009F46DC18091E720893008F068C18091AB
:10280000E62090E0FC013197E037F10508F05FC168
:10281000E75EFE4F0C9456268091E720893009F040
:1028200056C16FEF83E453D4A6EEB0E212968C91BA
:102830001297E7E9FAE2808313968C9113978183CC
:1028400014968C911497828312968C91129781879B
:1028500013968C911397828714968C911497838783
:1028600015968C911597838316968C911697848371
:1028700017968C911797858315968C911597848759
:1028800016968C911697858717968C911797868741
:1028900018968C911897868319968C91199787832F
:1028A0001A968C911A97808718968C91189787871B
:1028B00019968C911997808B1A968C91818BC0E018
:1028C000D0E0FE01E851FF4D8081FE01E352FF4D53
:1028D000808360812196CE010E94091EC930D105F6
:1028E00081F73FD18111F3C066E087E99AE2F8D51C
:1028F000EEC06FEF80E5EBD38091E820882319F0DC
:10290000813039F00CC01092352181E08093342160
:10291000DEC081E08093352180933421D8C081E0EE
:102920008093352180933421D2C080913521882332
:1029300029F01092352181E08093342181E0809349
:1029400033216FEFC4D3C3C08091E82090E087307B
:10295000910508F0BCC0FC01E757FE4F0C945626C9
:102960008091E92090E08093442190934521AFC06D
:102970008091E92090E08093FF2090930021A7C0F0
:102980008091E92090E08093FD209093FE209FC0ED
:102990008091E92090E08093FB209093FC2097C0E9
:1029A0008091E92090E08093F9209093FA208FC0E5
:1029B0008091E92090E08093F7209093F82087C0E1
:1029C0008091E92090E08093F5209093F6207FC0DD
:1029D0008091E8208093F4207AC08091E820809351
:1029E000022075C08091E8208093012070C0809102
:1029F000E820809300206BC07BD369C092D367C06E
:102A0000FDD365C0D4D363C0A6D361C0C6EED0E207
:102A10006B818A8190E00E94091E8A81803130F4A6
:102A200061E08DE490E00E94091E45C08091E8209D
:102A30008D3130F461E08EE490E00E94091E3BC0CD
:102A40008091E8208F3230F461E08FE490E00E94C2
:102A5000091E31C08091E820813330F461E080E5C7
:102A600090E00E94091E27C08091E820833330F453
:102A700061E081E590E00E94091E1DC08091E82080
:102A8000893330F461E082E590E00E94091E13C0B2
:102A90008091E820863430F461E083E590E00E9484
:102AA000091E09C08091E8208D3428F461E084E596
:102AB00090E00E94091E61E085E590E00E94091EF9
:102AC00006C05ED304C0FFCF0E94260C59D381E01C
:102AD0008093362106C08091E62049DE81118FCE99
:102AE000F6CFFF91EF91DF91CF91BF91AF919F9181
:102AF0008F917F916F915F914F913F912F910F90A7
:102B00000FBE0F901F9018950F931F93CF93DF93D5
:102B10006115710561F08C01EC01060F171F6991B9
:102B200080EC99E00E942622C017D107C1F7DF91FF
:102B3000CF911F910F910895982F977061E070E0E9
:102B400002C0660F771F9A95E2F78695869586955F
:102B500020E2829FC001112442E050E09A5FD4C677
:102B600008958091E80786958170089520E030E00F
:102B7000F901EE0FFF1FE20FF31FE956F54D8083B9
:102B8000618342832F5F3F4F2630310589F766E02E
:102B900087E99AE2A5C40895E7E9FAE28FEF808316
:102BA0001182128213828483158216821782808793
:102BB0008187128613861486858716861786108A63
:102BC000818B66E0CF018CC4089580E0E82FF0E0AF
:102BD0009F01220F331FE20FF31FE956F54D1082BC
:102BE000118212828F5F863089F766E087E99AE268
:102BF00077C40895ADEDB0E28C91E7E9FAE2808305
:102C000011968C911197818312968C9112978283E1
:102C100013968C911397838314968C9114978483C5
:102C200015968C911597858316968C9116978683A9
:102C300017968C911797878318968C911897808791
:102C40008C91818711968C911197828712968C9125
:102C50001297838713968C911397848714968C917F
:102C60001497858715968C911597868716968C9163
:102C70001697878717968C911797808B18968C914B
:102C8000818B66E0CF012CC4089510927C2A80913C
:102C90003921882359F180913C2190913D219C015B
:102CA000205635402F35310548F48091FD20909114
:102CB000FE20809340219093412116C0815B944077
:102CC0008F3A910548F48091F9209091FA208093F1
:102CD00040219093412108C0809144219091452149
:102CE0008093402190934121109239213ADF811144
:102CF00014C0809143218093422186E08093432138
:102D0000809143210E94FD0480E098E00E9476209B
:102D100080E498E00E94A8206DDF8091402190918E
:102D200041212091FF203091002182179307B8F5AF
:102D30004CDF4091F420209140213091412160915D
:102D4000FF2070910021429FC001439F900D1124EC
:102D50000E940D26E7E9FAE2608311821282138253
:102D6000148215821682178210864091F420609199
:102D7000FF2070910021429FC001439F900D1124BC
:102D80000E940D2661871286138614861586168684
:102D90001786108A118A66E0CF01A2D364C1209100
:102DA000FB203091FC208217930708F048C00DDF0C
:102DB0008091F420E7E9FAE2808311821282138283
:102DC0001482158220914021309141218091FF2071
:102DD00090910021A091F4206091FB207091FC2043
:102DE000A901481B590BA49FC001A59F900D112458
:102DF0000E940D266683178210868091F4208187B9
:102E0000128613861486158616868091FF2090916F
:102E100000214091F4206091FB207091FC20281B40
:102E2000390B429FC001439F900D11240E940D2633
:102E30006787108A118A66E0CF0152D314C12091AE
:102E4000F7203091F8208217930708F04CC0BDDEC0
:102E50008091F420E7E9FAE28083118212822091C6
:102E60004021309141218091FB209091FC20A09144
:102E7000F4206091F7207091F820A901481B590BAC
:102E8000A49FC001A59F900D11240E940D2663836D
:102E9000148215828091F420868317821086809197
:102EA000F4208187128613868091FB209091FC206C
:102EB0004091F4206091F7207091F820281B390B85
:102EC000429FC001439F900D11240E940D266487EC
:102ED000158616868091F4208787108A118A66E00D
:102EE000CF01FED2C0C02091F5203091F62082178C
:102EF000930708F094C069DEE7E9FAE210822091B6
:102F00004021309141218091F9209091FA20A091A7
:102F1000F4206091F5207091F620A901481B590B0F
:102F2000A49FC001A59F900D11240E940D266183CE
:102F3000128213828091F9209091FA20A091F420BE
:102F40006091F5207091F620A901481B590BA49FB0
:102F5000C001A59F900D11240E940D266483158247
:102F600016828091F9209091FA20A091F42060912E
:102F7000F5207091F620A901481B590BA49FC001B0
:102F8000A59F900D11240E940D266783108611863F
:102F90008091F9209091FA20A091F4206091F52081
:102FA0007091F620A901481B590BA49FC001A59F51
:102FB000900D11240E940D2662871386148680913D
:102FC000F9209091FA20A091F4206091F520709161
:102FD000F620A901481B590BA49FC001A59F900D85
:102FE00011240E940D266587168617868091F92088
:102FF0009091FA204091F4206091F5207091F62094
:10300000281B390B429FC001439F900D11240E9441
:103010000D26608B118A66E0CF0162D224C0D5DD17
:10302000E7E9FAE210828091F42081831282138210
:103030008091F4208483158216828091F420878306
:10304000108611868091F4208287138614868091E1
:10305000F4208587168617868091F420808B118A4C
:1030600066E0CF013DD280914021909141210196AF
:10307000809340219093412108951F920F920FB6A3
:103080000F9211242F933F934F935F936F937F93EE
:103090008F939F93AF93BF93EF93FF9380E28093BF
:1030A0006C0693DD82E197E20197F1F7FF91EF91D2
:1030B000BF91AF919F918F917F916F915F914F9150
:1030C0003F912F910F900FBE0F901F901895CF93A7
:1030D000DF9300D0CDB7DEB789836A8362E070E00A
:1030E000CE01019611DD0F900F90DF91CF910895E1
:1030F000CF93DF9300D01F92CDB7DEB790913E21E2
:1031000080913F219B838A838DE4898363E070E013
:10311000CE010196F9DC2396CDBFDEBFDF91CF91C2
:103120000895CF93DF9300D0CDB7DEB780913C21D7
:1031300090913D216AE070E00E9421266A8382E43A
:10314000898362E070E0CE010196DEDC0F900F9083
:10315000DF91CF910895CF93DF9300D0CDB7DEB745
:1031600019821A82FEDC8A8387E4898362E070E038
:10317000CE010196C9DC0F900F90DF91CF91089599
:10318000CF93DF9300D0CDB7DEB719821A8285E5E1
:1031900090E01AD58A8388E4898362E070E0CE01EA
:1031A0000196B2DC0F900F90DF91CF910895CF93ED
:1031B000DF93CDB7DEB72A97CDBFDEBFFE013196D4
:1031C0008AE0DF011D928A95E9F783E689833196CB
:1031D00081E090E0DC01A352BF4D2C912193019638
:1031E00089309105B9F76AE070E0CE0101968CDC78
:1031F0002A96CDBFDEBFDF91CF910895CF93DF93A5
:1032000000D0CDB7DEB719821A8238DA8A8380E718
:10321000898362E070E0CE01019676DC0F900F901A
:10322000DF91CF910895CF93DF9381E090E0CCD4EC
:10323000CDEDD0E2888382E090E0C6D4898383E03C
:1032400090E0C2D48A8384E090E0BED48B8385E092
:1032500090E0BAD48C8386E090E0B6D48D8387E08A
:1032600090E0B2D48E8388E090E0AED48F8389E082
:1032700090E0AAD48887A2D9DF91CF9108950895CC
:1032800080917E2A882319F010927E2AA8950895AD
:10329000982F977061E070E002C0660F771F9A95D3
:1032A000E2F786958695869520E2829FC0011124DB
:1032B00041E050E09A5F28C30895DC0111962C91FB
:1032C000119798E0E0E4F6E030E422230CF028C007
:1032D0003583000000000000000000000000000036
:1032E00000000000000000000000000000000000DE
:1032F00000000000000000000000000000000000CE
:103300000000368300000000000000000000000004
:10331000000000000000000000000000000026C0C7
:1033200035830000000000000000000000000000E5
:1033300000000000000000003683000000000000D4
:10334000000000000000000000000000000000007D
:10335000000000000000000000000000000000006D
:10336000000000000000000000000000220F91504B
:1033700009F0ABCF2C9198E0E0E4F6E030E42223B2
:103380000CF028C0358300000000000000000000A1
:10339000000000000000000000000000000000002D
:1033A000000000000000000000000000000000001D
:1033B0000000000000003683000000000000000054
:1033C00000000000000000000000000000000000FD
:1033D000000026C03583000000000000000000004F
:1033E0000000000000000000000000003683000024
:1033F00000000000000000000000000000000000CD
:1034000000000000000000000000000000000000BC
:1034100000000000000000000000000000000000AC
:10342000220F915009F0ABCF12969C9188E0E0E416
:10343000F6E020E499230CF028C02583000000006A
:10344000000000000000000000000000000000007C
:10345000000000000000000000000000000000006C
:1034600000000000000000000000000026830000B3
:10347000000000000000000000000000000000004C
:10348000000000000000000026C0258300000000AE
:10349000000000000000000000000000000000002C
:1034A0000000268300000000000000000000000073
:1034B000000000000000000000000000000000000C
:1034C00000000000000000000000000000000000FC
:1034D000000000000000990F815009F0ABCF089563
:1034E0000F931F93CF93DF93662351F0062FC82FBE
:1034F000D92F10E0CE01E1DE1F5F23961013FACF23
:1035000080E48093460689EF90E00197F1F700C0D0
:103510000000DF91CF911F910F910895B7D188E0FE
:103520000E945D04A8950E9471040E94901280E0A0
:1035300098E00ED680E498E0D9D586E1A9DE45DB97
:103540000E94850B0E943F0B0E946F0B0E94260C6D
:103550000FD889E7F1DA67DEC1E0C093432180919B
:1035600043210E94FD04C0933921809143210E9490
:103570007F040E94EF050E946C120E944412F1DA4F
:10358000811111C0809143218093422186E0809374
:103590004321809143210E94FD0480E498E0D8D526
:1035A00080E098E0A3D50F2EF0E6EF2EF6E0FF2E98
:1035B000F02D6894882481F8D1E00F2EF0EEAF2E24
:1035C000F7E0BF2EF02D6894DD24D6F800E016E079
:1035D0006894772477F8582CCD2F6894CC24C5F8BC
:1035E0006894662462F80F2EF6E09F2EF02D8091ED
:1035F0002721882309F472C0E09127218E2F90E0C3
:10360000FC01E05AF109E730F10508F065C0E05728
:10361000FE4F0C945626F801C582FFE72AE186E0AA
:10362000F15020408040E1F700C00000F801C68260
:1036300053C0F801D582FFE72AE186E0F15020402F
:103640008040E1F700C00000F801D68245C0F801D3
:103650007582FFE72AE186E0F15020408040E1F7E3
:1036600000C00000F801768237C0F701D582FFE77D
:103670002AE186E0F15020408040E1F700C00000E0
:10368000F701D68229C0F501D583FFE72AE186E05C
:10369000F15020408040E1F700C00000F501D683E2
:1036A0001BC0F701D583FFE72AE186E0F1502040F7
:1036B0008040E1F700C00000F701D6830DC0F7019C
:1036C0008582FFE72AE186E0F15020408040E1F763
:1036D00000C00000F70186821092272142DA882379
:1036E000F1F080914321813009F4C7C04FEF60E0D1
:1036F00080E03CDA10923321809143218093422173
:10370000C0934321809143210E94FD04C09339213D
:1037100080E098E01DD580E498E0E8D4AEC08091C8
:103720004321813089F480914321809342219092FA
:103730004321809143210E94FD0480E498E008D554
:1037400080E098E0D3D456DA0E943E13882351F0EB
:1037500080914321823031F080914321843011F0F7
:103760000E94461380913321882379F08091432170
:10377000809342211092432180E098E0E9D47FDDDC
:1037800040E060E080E0F2D978C00E9441138823D5
:1037900059F10E943E138823A1F0C09346218091E5
:1037A00043218093422150924321809143210E94E2
:1037B000FD0480E098E09AD46C2F80E00E942B0BEF
:1037C0005CC01092462180914321809342219092C7
:1037D0004321809143210E94FD04F7D960E080E0FD
:1037E0000E942B0B07DA49C080914621813009F0F5
:1037F00044C080910221882309F43FC08091432175
:10380000823081F40E94A708809143218093422155
:1038100060924321809143210E94FD0480E098E062
:1038200065D429C080914321843029F50E94A708DE
:1038300098D9882399F08091432180934221C093A5
:103840004321809143210E94FD04C093392180E0EF
:1038500098E07ED480E498E049D40DC08091432163
:103860008093422150924321809143210E94FD0484
:1038700080E098E03BD41092022180917E2A882338
:1038800009F4B5CE10927E2AA895A7CE8FEF80932B
:103890007000809371008093720080937300809316
:1038A000740080937500809376009FB7F894E0E5EC
:1038B000F0E08081826080839FBF818181FFFDCFA6
:1038C00061E080E490E07AD19FB7F894E0E5F0E021
:1038D00080818E7F80839FBF08959FB7F894E82FE3
:1038E000F0E0E059FF4F60958081682360839FBFBF
:1038F00008959FB7F894E82FF0E0E059FF4F8081DA
:10390000682B60839FBF0895CF93DF93FC0170966F
:1039100020E030E0C62FD0E0DE01022E02C0B595D7
:10392000A7950A94E2F7A0FD50832F5F3F4F319691
:103930002830310589F740FF0AC041FF03C0FC0170
:10394000658302C0FC016683FC01618302C0FC0147
:103950006283DF91CF9108959C019FB7F894211560
:10396000324021F46093AF2A7093B02A9FBF08952C
:103970008115924059F48091472191E0980F9093DE
:103980004721811103C062E081E0A7CF089581152E
:10399000924051F4809147218150809347218111B9
:1039A00003C062E081E0A5CF08951F93CF93DF931A
:1039B000EC011FB7F894DCDF8881816088831FBF2A
:1039C0009FB7F894E9EAFAE281818F5F81839FBF14
:1039D000DF91CF911F910895CF93CFB7F894FC0159
:1039E00020812E7F2083D3DFCFBF9FB7F894E9EAF1
:1039F000FAE28181815081839FBFCF9108951F9208
:103A00000F920FB60F9211242F933F934F935F9312
:103A10006F937F938F939F93AF93BF93EF93FF9396
:103A20004091240250912502E091AF2AF091B02AF2
:103A300061E080E092E00995FF91EF91BF91AF9135
:103A40009F918F917F916F915F914F913F912F91B6
:103A50000F900FBE0F901F901895DF92EF92FF927C
:103A60000F931F93CF93DF93811522E0920761F5A7
:103A70008B01EC0161E270E082E0F0D0E82EF12CE5
:103A800060E270E082E0EAD0FE2CEE24E82ADFB6A5
:103A9000F894CE016DDF8881817092E09883EC8686
:103AA000FD86F80124813581288F398F91819A8391
:103AB00093819C8392819B8390819983968198873F
:103AC0008883CE0164DFDFBEDF91CF911F910F911C
:103AD000FF90EF90DF900895FF920F931F93CF9385
:103AE000DF93EC018B01FFB6F89442DF888D998D4E
:103AF000F801848395838A8181838C8183838B8180
:103B000082838981808388858683CE0140DFFFBEE2
:103B1000DF91CF911F910F91FF900895FF920F9326
:103B20001F93CF93DF93EC018A01FFB6F89420DF57
:103B3000F801808188A382818AA3818189A38381FE
:103B40008EA384818FA3858188A7868189A7878199
:103B50008AA780858BA781858CA7CE0118DFFFBE41
:103B6000DF91CF911F910F91FF900895FF920F93D6
:103B70001F93CF93DF93EC018A01FFB6F894F8DE30
:103B800088A1F80180838AA1828389A181838EA183
:103B900083838FA1848388A5858389A586838AA54D
:103BA00087838BA580878CA58187CE01F0DEFFBE41
:103BB000DF91CF911F910F91FF9008951BBEFC01E3
:103BC00028ED24BF608308959C01E0ECF1E0978527
:103BD0009923ECF3F901F05F80810895E0ECF1E0C6
:103BE00087858823ECF38091CF0181FF07C086E3AE
:103BF0008093CA0161E08BEC91E0E0CF0895E0ECA6
:103C0000F1E097859923ECF3E82FF0E0F05F608313
:103C10000895FF920F931F93CF93DF93182FF92EE0
:103C2000C62F0091CA01DADFE0ECF1E027852223FC
:103C3000ECF36C2F812FE3DFC0ECD1E01A82F98224
:103C4000188385E38A8761E08BEC91E0B7DF0A8710
:103C5000DF91CF911F910F91FF9008954091CA017C
:103C6000E62FF72F8093CA0184914093CA010895EB
:103C70001F920F920FB60F9211242F933F934F93E1
:103C80005F936F937F938F939F93AF93BF93EF93C4
:103C9000FF93E0916221F0916321309709F009953B
:103CA000FF91EF91BF91AF919F918F917F916F9114
:103CB0005F914F913F912F910F900FBE0F901F90EA
:103CC00018951F920F920FB60F9211242F933F93C6
:103CD0004F935F936F937F938F939F93AF93BF9314
:103CE000EF93FF93E0916021F0916121309709F00B
:103CF0000995FF91EF91BF91AF919F918F917F9126
:103D00006F915F914F913F912F910F900FBE0F9048
:103D10001F9018951F920F920FB60F9211242F9398
:103D20003F934F935F936F937F938F939F93AF9343
:103D3000BF93EF93FF93E0915E21F0915F21309765
:103D400009F00995FF91EF91BF91AF919F918F91EC
:103D50007F916F915F914F913F912F910F900FBE87
:103D60000F901F9018951F920F920FB60F9211246B
:103D70002F933F934F935F936F937F938F939F9373
:103D8000AF93BF93EF93FF93E0915C21F0915D219E
:103D9000309709F00995FF91EF91BF91AF919F91F5
:103DA0008F917F916F915F914F913F912F910F90E4
:103DB0000FBE0F901F9018951F920F920FB60F9283
:103DC00011242F933F934F935F936F937F938F9320
:103DD0009F93AF93BF93EF93FF93E0915A21F0919C
:103DE0005B21309709F00995FF91EF91BF91AF9159
:103DF0009F918F917F916F915F914F913F912F9103
:103E00000F900FBE0F901F9018951F920F920FB634
:103E10000F9211242F933F934F935F936F937F9350
:103E20008F939F93AF93BF93EF93FF93E0915821AC
:103E3000F0915921309709F00995FF91EF91BF91C9
:103E4000AF919F918F917F916F915F914F913F9132
:103E50002F910F900FBE0F901F9018951F920F92E9
:103E60000FB60F9211242F933F934F935F936F934D
:103E70007F938F939F93AF93BF93EF93FF93E091C3
:103E80005621F0915721309709F00995FF91EF9154
:103E9000BF91AF919F918F917F916F915F914F9162
:103EA0003F912F910F900FBE0F901F9018951F926A
:103EB0000F920FB60F9211242F933F934F935F935E
:103EC0006F937F938F939F93AF93BF93EF93FF93E2
:103ED000E0915421F0915521309709F00995FF9117
:103EE000EF91BF91AF919F918F917F916F915F9172
:103EF0004F913F912F910F900FBE0F901F901895EB
:103F00001F920F920FB60F9211242F933F934F934E
:103F10005F936F937F938F939F93AF93BF93EF9331
:103F2000FF93E0915221F0915321309709F00995C8
:103F3000FF91EF91BF91AF919F918F917F916F9181
:103F40005F914F913F912F910F900FBE0F901F9057
:103F500018951F920F920FB60F9211242F933F9333
:103F60004F935F936F937F938F939F93AF93BF9381
:103F7000EF93FF93E0915021F0915121309709F098
:103F80000995FF91EF91BF91AF919F918F917F9193
:103F90006F915F914F913F912F910F900FBE0F90B6
:103FA0001F9018951F920F920FB60F9211242F9306
:103FB0003F934F935F936F937F938F939F93AF93B1
:103FC000BF93EF93FF93E0914E21F0914F213097F3
:103FD00009F00995FF91EF91BF91AF919F918F915A
:103FE0007F916F915F914F913F912F910F900FBEF5
:103FF0000F901F9018951F920F920FB60F921124D9
:104000002F933F934F935F936F937F938F939F93E0
:10401000AF93BF93EF93FF93E0914C21F0914D212B
:10402000309709F00995FF91EF91BF91AF919F9162
:104030008F917F916F915F914F913F912F910F9051
:104040000FBE0F901F9018951F920F920FB60F92F0
:1040500011242F933F934F935F936F937F938F938D
:104060009F93AF93BF93EF93FF93E0914A21F09119
:104070004B21309709F00995FF91EF91BF91AF91D6
:104080009F918F917F916F915F914F913F912F9170
:104090000F900FBE0F901F9018951F920F920FB6A2
:1040A0000F9211242F933F934F935F936F937F93BE
:1040B0008F939F93AF93BF93EF93FF93E09148212A
:1040C000F0914921309709F00995FF91EF91BF9147
:1040D000AF919F918F917F916F915F914F913F91A0
:1040E0002F910F900FBE0F901F901895CF93CFB7C1
:1040F000F894282F392F211588E0380739F461E02A
:1041000083E0EBDB64E083E0E8DB17C0203488E089
:10411000380739F462E083E0E0DB64E083E0DDDB74
:104120000CC02034394039F462E084E0D6DB64E02E
:1041300084E0D3DB02C0CFBF09C09FB7F894E9EA9F
:10414000FAE281818F5F81839FBFCFBFCF910895B6
:10415000CF93CFB7F8943FB7F894E9EAFAE2218118
:10416000215021833FBF282F392F211588E03807A0
:1041700039F461E083E0BDDB64E083E0BADB17C0C3
:10418000203488E0380739F462E083E0B2DB64E091
:1041900083E0AFDB0CC02034394039F461E084E0C7
:1041A000A8DB64E084E0A5DB02C0CFBF01C0CFBFC5
:1041B000CF910895811528E0920729F46093622138
:1041C000709363210895803428E0920729F4609366
:1041D00056217093572108958034994021F46093BB
:1041E0004E2170934F2108951F920F920FB60F9298
:1041F00011242F933F934F935F936F937F938F93EC
:104200009F93AF93BF93CF93DF93EF93FF93E0918F
:104210006421F0916521848183FF08C088608483D4
:1042200083E0838386EF80936E2195C0982F9471ED
:1042300031F083E083838FEF80936E218CC086FF03
:1042400043C0C4E6D1E2AA81BB818C819D811496D2
:104250002D913C911597821793076CF49C012F5F69
:104260003F4F2093682130936921A80FB91F119601
:104270008C91878370C080916A2190916B211896F0
:104280002D913C91199782179307C8F420916C21C6
:10429000222321F08681816086835DC016962D9150
:1042A0003C911797AC014F5F5F4F40936A21509349
:1042B0006B21D901A80FB91F8C9187834CC083E073
:1042C000838310926E2147C088230CF041C0C4E65E
:1042D000D1E2AA81BB818E819F8118962D913C915C
:1042E00019978217930770F516966D917C91179721
:1042F0009C012F5F3F4F20936A2130936B214781B0
:10430000860F971FEC014883EB01888190E00196AE
:1043100018964D915C9119974817590721F01896F6
:104320008D939C93199718968D919C9119972817A6
:10433000390718F482E083830EC087E083831092EC
:104340006E2109C083E0838389EF80936E2103C0CF
:104350008BEF80936E21FF91EF91DF91CF91BF9111
:10436000AF919F918F917F916F915F914F913F910D
:104370002F910F900FBE0F901F901895FC01DB013D
:1043800014968C91858388EB818381E08483E4E6B5
:10439000F1E211861286E0EAF0E082818260828397
:1043A000789480E00895DC01892B09F449C06115F7
:1043B000710509F447C0FB01928580916D21882326
:1043C00019F09923F1F340C08FB7F894E4E6F1E2D5
:1043D00091E0918790E892878FBFA083B183628339
:1043E000738314821582168217824087FB018081B5
:1043F000880F24813581232B11F4411103C01696B7
:104400008C9303C0816016968C93E4E6F1E282857A
:104410008038E9F3E0916421F09165218481837013
:10442000813049F0A4E6B1E2ED91FC9111978481CD
:1044300083708130C9F7E4E6F1E282851186089540
:1044400088EF089588EF089586EF0895FC0122E132
:1044500037E203C02150310919F0918195FFFACF5D
:10446000608380E090E00895FC0122E137E203C020
:104470002150310919F091819923D4F78081089551
:104480002F923F924F925F926F927F928F929F9264
:10449000AF92BF92CF92DF92EF92FF920F931F9352
:1044A000CF931C012A013B0148015901D901C801E0
:1044B000689412F8B695A795979587951694D1F7B5
:1044C000B901A801032E36E1769567955795479572
:1044D0003A95D1F7302DF101238122FD08C0B69520
:1044E000A7959795879576956795579547958415E0
:1044F0009505A605B70508F4AAC044165506660634
:10450000770608F4A6C0F101838182FD04C0440C43
:10451000551C661C771CC501B401A3019201A4D3EC
:104520002F3F31054105510508F495C0C12CD12C10
:104530007601CA94C9EF05C02C153D054E055F05EF
:1045400068F0CC0CDD1CEE1CFF1CCD3F14F468940D
:10455000C0F8CF5FC73081F78C2F54C08C2FCC238D
:104560000CF050C0D301C201880F991FAA1FBB1FB6
:10457000880F991FAA1FBB1F880F991FAA1FBB1F57
:1045800085017401E81AF90A0A0B1B0BD801C7014F
:10459000CE3FECF42DEF3FEF2C1B3109C7FD3395D7
:1045A00004C0880F991FAA1FBB1F2A95D2F7730159
:1045B0006201F694E794D794C794BC01CD016C0DC9
:1045C0007D1D8E1D9F1DA30192014ED336C023E099
:1045D0002C0F8301720104C0EE0CFF1C001F111F81
:1045E0002A95D2F7A801970167017801F694E7941C
:1045F000D794C794BC01CD016C0D7D1D8E1D9F1DF0
:1046000033D31BC08D5FA301920104C0220F331F5F
:10461000441F551F8A95D2F7DA01C901B695A795AF
:1046200097958795BC01CD01680D791D8A1D9B1D4D
:104630001BD32150310941095109832F8F70C29535
:10464000C07FC82BF101C783268381E01CC080E0B6
:104650001AC080E018C0D301C201880F991FAA1F99
:10466000BB1F880F991FAA1FBB1F880F991FAA1F66
:10467000BB1F85017401E81AF90A0A0B1B0BD8014C
:10468000C701C9EF87CFCF911F910F91FF90EF9096
:10469000DF90CF90BF90AF909F908F907F906F9062
:1046A0005F904F903F902F9008950F931F93CF935B
:1046B000DF93EC018B01892B09F477C0C11584E0ED
:1046C000D80721F464E080E008D96FC0C038E1E089
:1046D000DE0721F462E080E000D967C0C115F1E097
:1046E000DF0721F461E080E0F8D85FC0C03883E0E4
:1046F000D80721F461E081E0F0D857C0C115E2E0AD
:10470000DE0721F462E081E0E8D84FC0C115F3E094
:10471000DF0721F464E081E0E0D847C0C11588E0FC
:10472000D80721F461E083E0D8D83FC0C034E8E086
:10473000DE0721F462E083E0D0D837C0C034F9E06E
:10474000DF0721F462E084E0C8D82FC0C03B88E0D6
:10475000D80721F464E083E0C0D827C0C03EE8E079
:10476000DE0721F468E083E0B8D81FC0C03CF8E061
:10477000DF0721F460E183E0B0D817C0C03C89E0D6
:10478000D80721F460E184E0A8D80FC0C038E4E085
:10479000DE0721F460E483E0A0D807C0C036F4E06F
:1047A000DF0719F460E880E098D88C818F738C83E0
:1047B000F80194818581892B9681911198E0892B4C
:1047C0008C83F801408151816281738100E018E49B
:1047D00028EE31E0CE0154DE9B8198609B839B8163
:1047E00090619B83DF91CF911F910F910895505855
:1047F000BB27AA270ED070C161D130F066D120F05E
:1048000031F49F3F11F41EF456C10EF4E095E7FB1E
:104810004CC1E92F72D180F3BA176207730784077E
:10482000950718F071F49EF58AC10EF4E0950B2EF1
:10483000BA2FA02D0B01B90190010C01CA01A001F2
:104840001124FF27591B99F0593F50F4503E68F14D
:104850001A16F040A22F232F342F4427585FF3CF8E
:10486000469537952795A795F0405395C9F77EF45F
:104870001F16BA0B620B730B840BBAF09150A1F0A8
:10488000FF0FBB1F661F771F881FC2F70EC0BA0F2E
:10489000621F731F841F48F4879577956795B795B6
:1048A000F7959E3F08F0B3CF9395880F08F09927AE
:1048B000EE0F979587950895D4D008F481E0089578
:1048C0000CD00AC102D140F0F9D030F021F45F3FA2
:1048D00019F0EBC0511134C1EEC00FD198F39923F8
:1048E000C9F35523B1F3951B550BBB27AA276217B4
:1048F0007307840738F09F5F5F4F220F331F441FF9
:10490000AA1FA9F333D00E2E3AF0E0E830D0915030
:104910005040E695001CCAF729D0FE2F27D0660F1D
:10492000771F881FBB1F261737074807AB07B0E85C
:1049300009F0BB0B802DBF01FF2793585F4F2AF072
:104940009E3F510568F0B1C0FBC05F3FECF3983E5D
:10495000DCF3869577956795B795F7959F5FC9F7CF
:10496000880F911D9695879597F90895E1E0660F58
:10497000771F881FBB1F621773078407BA0720F0D1
:10498000621B730B840BBA0BEE1F88F7E09508953A
:10499000BCD088F09F5790F0B92F9927B751A0F05D
:1049A000D1F0660F771F881F991F1AF0BA95C9F7C3
:1049B00012C0B13081F0C3D0B1E00895C0C0672FFC
:1049C000782F8827B85F39F0B93FCCF38695779573
:1049D0006795B395D9F73EF490958095709561955C
:1049E0007F4F8F4F9F4F0895E89409C097FB3EF487
:1049F00090958095709561957F4F8F4F9F4F99232C
:104A0000A9F0F92F96E9BB279395F69587957795A9
:104A10006795B795F111F8CFFAF4BB0F11F460FF69
:104A20001BC06F5F7F4F8F4F9F4F16C0882311F0C1
:104A300096E911C0772321F09EE8872F762F05C0D5
:104A4000662371F096E8862F70E060E02AF09A9570
:104A5000660F771F881FDAF7880F9695879597F965
:104A60000895990F0008550FAA0BE0E8FEEF1616FF
:104A70001706E807F907C0F012161306E407F50752
:104A800098F0621B730B840B950B39F40A2661F0C6
:104A9000232B242B252B21F408950A2609F4A14069
:104AA000A6958FEF811D811D089597F99F6780E876
:104AB00070E060E008959FEF80EC089500240A9470
:104AC0001616170618060906089500240A941216E9
:104AD0001306140605060895092E0394000C11F41C
:104AE000882352F0BB0F40F4BF2B11F460FF04C0C9
:104AF0006F5F7F4F8F4F9F4F089557FD9058440F22
:104B0000551F59F05F3F71F04795880F97FB991F2C
:104B100061F09F3F79F087950895121613061406E9
:104B2000551FF2CF4695F1DF08C016161706180676
:104B3000991FF1CF86957105610508940895E89451
:104B4000BB2766277727CB0197F908958ADF08F4FA
:104B50008FEF08950BD0C0CFB1DF28F0B6DF18F08B
:104B6000952309F0A2CFA7CF1124EACFC6DFA0F387
:104B7000959FD1F3950F50E0551F629FF001729FF2
:104B8000BB27F00DB11D639FAA27F00DB11DAA1F11
:104B9000649F6627B00DA11D661F829F2227B00D5E
:104BA000A11D621F739FB00DA11D621F839FA00DE9
:104BB000611D221F749F3327A00D611D231F849F39
:104BC000600D211D822F762F6A2F11249F57504090
:104BD0008AF0E1F088234AF0EE0FFF1FBB1F661F2B
:104BE000771F881F91505040A9F79E3F510570F0E4
:104BF0005CCFA6CF5F3FECF3983EDCF386957795CC
:104C00006795B795F795E7959F5FC1F7FE2B880FDE
:104C1000911D9695879597F90895AA1BBB1B51E1A5
:104C200007C0AA1FBB1FA617B70710F0A61BB70B1C
:104C3000881F991F5A95A9F780959095BC01CD01C1
:104C4000089597FB072E16F4009406D077FD08D040
:104C5000E4DF07FC05D03EF4909581959F4F0895C1
:104C6000709561957F4F0895A1E21A2EAA1BBB1B78
:104C7000FD010DC0AA1FBB1FEE1FFF1FA217B30728
:104C8000E407F50720F0A21BB30BE40BF50B661F3E
:104C9000771F881F991F1A9469F760957095809502
:104CA00090959B01AC01BD01CF010895EE0FFF1F50
:0C4CB0000590F491E02D0994F894FFCFDA
:104CBC006464646666663F0000803F6B001200030C
:104CCC000080808080808080808080808080808058
:104CDC0080808080808080808080808080808080C8
:104CEC0080808080808080808080808080808080B8
:104CFC0080808080808080808080808080808080A8
:104D0C008080808080808080808080808080808097
:104D1C008080808080808080808080808080808087
:104D2C008080808080808080808080808080808077
:104D3C008080808080808080808080808080808067
:104D4C008080808080808080808080808080808057
:104D5C008080808080808080808080808080808047
:104D6C008080808080808080808080808080808037
:104D7C008080808080808080808080808080808027
:104D8C0080808080FA0100960000030000FF000084
:104D9C0000FF000000FF8080808080808080808009
:104DAC0080000006604038E02E302A201CC01260C3
:024DBC000900EC
:00000001FF
