:100000008FC10000AAC10000A8C10000A6C1000065
:10001000A4C10000A2C10000A0C100009EC1000058
:100020009CC1000043C7000098C100000C94FB1263
:100030000C943F100C9468100C9491100C94BA100E
:100040000C94E3100C940C110C9435110C945E116B
:100050000C9487110C94B01180C100000C94C80856
:100060007CC100007AC1000078C1000076C10000A8
:1000700074C1000072C1000070C100006EC10000B8
:100080006CC100006AC100000C94C10F0C94550BA8
:100090000C94D9110C9402120C942B120C9454123F
:1000A0000C9443095AC1000058C10000BC07C107A5
:1000B000F307F307F307F307F307F307F307F30770
:1000C000F307F307F307F307F307F307C607F3078D
:1000D000F307F307F307F307F307F307F307F30750
:1000E000F307F307F307F307F307F307F307CB0768
:1000F000D007F307F307F307F307F307F307F30753
:10010000F307F307F307F307F307F307F307D5073D
:10011000DA07F307F307F307F307F307F307F30728
:10012000F307F307F307F307F307F307F307DF0713
:10013000E407F307F307F307F307F307F307F307FE
:10014000F307F307F307F307F307F307F307E907E9
:10015000EE073F093F093F093F093F093F094109B0
:10016000410941094109410941094109410941093F
:10017000410941094109410941094109410941092F
:10018000410941094109410941094109410941091F
:10019000410941094109410941094109410941090F
:1001A00041094109410941094109410941094109FF
:1001B00041094109410941094109410941094109EF
:1001C00041094109410941094109410941094109DF
:1001D000410941093F093F094109410941093F09D5
:1001E0003F0941094109410941093F0941094109C3
:1001F0003F0941093F0941093F09410941094109B5
:10020000410941094109410941094109410941099E
:100210004109410941093F09410941094109410990
:10022000410941094109410941094109410941097E
:100230003F09120A210A650A6A0A6F0A740AD70A74
:10024000D70AD70AD70AD70AD70AD70AD70AD70AA6
:10025000D70AD70AD70AD70AD70AD70AD70AD70A96
:10026000D70AD70AD70AD70AD70AD70AD70AD70A86
:10027000D70AD70AD70AD70AD70AD70AD70AD70A76
:10028000D70AD70AD70AD70AD70AD70AD70AD70A66
:10029000D70AD70AD70AD70AD70AD70AD70AD70A56
:1002A000D70AD70AD70AD70AD70AD70AD70AD70A46
:1002B000D70AD70A7B0A8A09D70AD70AD70A810A36
:1002C000D40AD70AD70AD70AD70A790AD70AD70A87
:1002D000F609D70AD60AD70A830AD70AD70AD70A4D
:1002E000D70AD70AD70AD70AD70AD70AD70AD70A06
:1002F000D70AD70AD70A7F0AD70AD70AD70AD70A4E
:10030000D70AD70AD70AD70AD70AD70AD70AD70AE5
:100310007D0A2D0A350A3D0A450A4D0A550A5D0A2D
:1003200011241FBECFEFCDBFDFE2DEBF10E2A0E0A1
:10033000B0E2ECEEF8E202C005900D92AA32B107ED
:10034000D9F720E2AAE2B0E201C01D92A63AB207B4
:10035000E1F70E94A50D0C94741452CE60918000B8
:100360006270616024E0829FC00111248C73682B4D
:1003700080E890E00E94EF0FE0E8F0E0828180FDED
:10038000FDCF0895609180006C73636080E890E019
:100390000E94EF0FE0E8F0E0828180FDFDCF08953C
:1003A000CF93DF93CDB7DEB72997CDBFDEBF80E80F
:1003B0009AE1A6E0B0E089839A83AB83BC8383E2B1
:1003C00090E0A0E0B0E08D839E83AF83B88780E5A6
:1003D000898760E483E00E94820FBE016F5F7F4FD8
:1003E00080E894E00E94C513E0E8F4E08181886031
:1003F000818378942996CDBFDEBFDF91CF91089598
:1004000040E059E160E280E496E00E94990F80E2CA
:100410008093B000E0E4F6E0828781E08187E0EA43
:10042000F0E08281816082837894089541E050E019
:1004300060E280E096E00E94990F41E050E060E4C5
:1004400080E096E00E94990F41E050E060E880E093
:1004500096E00E94990F41E050E060E480E696E06B
:100460000E94990F41E050E061E080EE97E00E9429
:10047000990F41E050E061E080E696E00E94990F1C
:1004800041E050E062E080E696E00C94990F089518
:10049000CF93DF93CDB7DEB76197CDBFDEBF9AEFC5
:1004A0009093032095E5998394E09A8395E19B834B
:1004B0008C836D834E830E94570CBE01695F7F4F12
:1004C0008BE0FB0111928A95E9F785E28F83CE01DB
:1004D00001968D879E8786E090E08F87988B40E01D
:1004E00080E894E00E94DA138093032091E09093D7
:1004F0003520811101C090E0892F6196CDBFDEBF0C
:10050000DF91CF9108951F93CF93DF93CDB7DEB7DF
:100510002E97CDBFDEBF9AEF9093032095E5998388
:1005200011E01A838B830E94570CBE016C5F7F4FD2
:100530008BE0FB0111928A95E9F785E28C83CE016D
:1005400001968A879B8783E090E08C879D8740E0B7
:1005500080E894E00E94DA13809303201093352002
:100560002E96CDBFDEBFDF91CF911F910895CF931F
:10057000DF9385E590E00E94F50F882309F492C48B
:100580000E94570C40E060E08FEF0E94110B2FEFAC
:1005900083ED90E3215080409040E1F700C00000DF
:1005A00080E0B1DF2FEF83ED90E321508040904059
:1005B000E1F700C0000080E0A6DF2FEF89E698E1B8
:1005C000215080409040E1F700C0000087E19BDFB0
:1005D0002FEF83ED90E3215080409040E1F700C081
:1005E00000008DE490E00E94F50F882309F484C098
:1005F00040E06FEF8FEF0E94110B8AE090E00E94C5
:10060000F50F482F61E080E043DFC82F2FEF89E628
:1006100098E1215080409040E1F700C000008BE05D
:1006200090E00E94F50F482F62E080E031DFC82B98
:100630002FEF89E698E1215080409040E1F700C01B
:1006400000008CE090E00E94F50F482F64E080E00D
:100650001FDFC82B2FEF89E698E1215080409040A2
:10066000E1F700C000008DE090E00E94F50F482FF8
:1006700065E080E00DDFC82B2FEF89E698E121507F
:1006800080409040E1F700C000008EE090E00E94C2
:10069000F50F482F66E080E0FBDEC82B2FEF89E6E0
:1006A00098E1215080409040E1F700C000008FE0C9
:1006B00090E00E94F50F482F67E080E0E9DED82F38
:1006C0002FEF89E698E1215080409040E1F700C08B
:1006D000000087E118DF2FEF83ED90E32150804089
:1006E0009040E1F700C00000CD2B61E009F460E02C
:1006F0008DE490E00E941A108EE490E00E94F50FC5
:10070000882309F495C040E06FEF80E08AD780E14C
:1007100090E00E94F50F482F60E081E0B9DEC82F1D
:100720002FEF89E698E1215080409040E1F700C02A
:10073000000081E190E00E94F50F482F61E081E028
:10074000A7DEC82B2FEF89E698E12150804090402A
:10075000E1F700C0000082E190E00E94F50F482F11
:1007600062E081E095DEC82B2FEF89E698E1215009
:1007700080409040E1F700C0000083E190E00E94DB
:10078000F50F482F63E081E083DEC82B2FEF89E669
:1007900098E1215080409040E1F700C0000084E1E2
:1007A00090E00E94F50F482F64E081E071DEC82BD5
:1007B0002FEF89E698E1215080409040E1F700C09A
:1007C000000085E190E00E94F50F482F65E081E090
:1007D0005FDEC82B2FEF89E698E1215080409040E2
:1007E000E1F700C0000086E190E00E94F50F482F7D
:1007F00066E081E04DDED82F2FEF89E698E12150A9
:1008000080409040E1F700C0000087E17CDE2FEFE0
:1008100083ED90E3215080409040E1F700C000005C
:10082000CD2B61E009F460E08EE490E00E941A10A4
:100830008FE490E00E94F50F882309F471C04FEF18
:100840006FEF80E0EED68DE190E00E94F50F482F2B
:1008500060E082E01DDEC82F2FEF89E698E121508D
:1008600080409040E1F700C000008EE190E00E94DF
:10087000F50F482F61E082E00BDEC82B2FEF89E6F1
:1008800098E1215080409040E1F700C000008FE1E6
:1008900090E00E94F50F482F62E082E0F9DDC82B5E
:1008A0002FEF89E698E1215080409040E1F700C0A9
:1008B000000080E290E00E94F50F482F63E082E0A4
:1008C000E7DDC82B2FEF89E698E12150804090406A
:1008D000E1F700C0000081E290E00E94F50F482F90
:1008E00064E082E0D5DDD82F2FEF89E698E1215032
:1008F00080409040E1F700C0000087E104DE2FEF68
:1009000083ED90E3215080409040E1F700C000006B
:10091000CD2B61E009F460E08FE490E00E941A10B2
:1009200080E590E00E94F50F882309F43BC04FEF6B
:1009300060E080E076D68FE290E00E94F50F482FCD
:1009400060E080E1A5DDC82F2FEF89E698E1215016
:1009500080409040E1F700C0000080E390E00E94FA
:10096000F50F482F61E080E193DDD82F2FEF89E666
:1009700098E1215080409040E1F700C0000087E1FD
:10098000C2DD2FEF83ED90E3215080409040E1F7EE
:1009900000C00000CD2B61E009F460E080E590E04C
:1009A0000E941A1081E590E00E94F50F882309F457
:1009B0003BC04FEF60E08FEF34D681E390E00E94C0
:1009C000F50F482F60E080E263DDC82F2FEF89E646
:1009D00098E1215080409040E1F700C0000082E3A0
:1009E00090E00E94F50F482F61E080E251DDD82FA2
:1009F0002FEF89E698E1215080409040E1F700C058
:100A0000000087E180DD2FEF83ED90E321508040EF
:100A10009040E1F700C00000CD2B61E009F460E0F8
:100A200081E590E00E941A1082E590E00E94F50FA7
:100A3000882309F483C04FEF60E080E0F2D583E3C0
:100A400090E00E94F50F482F60E080E321DDC82F81
:100A50002FEF89E698E1215080409040E1F700C0F7
:100A6000000084E390E00E94F50F482F61E080E3EE
:100A70000FDDC82B2FEF89E698E121508040904090
:100A8000E1F700C0000085E390E00E94F50F482FD9
:100A900064E080E3FDDCC82B2FEF89E698E121506C
:100AA00080409040E1F700C0000086E390E00E94A3
:100AB000F50F482F65E080E3EBDCC82B2FEF89E6CC
:100AC00098E1215080409040E1F700C0000087E3AA
:100AD00090E00E94F50F482F66E080E3D9DCC82B38
:100AE0002FEF89E698E1215080409040E1F700C067
:100AF000000088E390E00E94F50F482F67E080E354
:100B0000C7DCD82F2FEF89E698E121508040904034
:100B1000E1F700C0000087E1F6DC2FEF83ED90E302
:100B2000215080409040E1F700C00000CD2B61E0F3
:100B300009F460E082E590E00E941A1083E590E0FD
:100B40000E94F50F882309F401C14FEF60E08FEF99
:100B500068D589E390E00E94F50F482F60E080E5BA
:100B600097DCC82F2FEF89E698E121508040904014
:100B7000E1F700C000008AE390E00E94F50F482FE3
:100B800061E080E585DCC82B2FEF89E698E12150F4
:100B900080409040E1F700C000008BE390E00E94AD
:100BA000F50F482F62E080E573DCC82B2FEF89E654
:100BB00098E1215080409040E1F700C000008CE3B4
:100BC00090E00E94F50F482F63E080E561DCC82BC0
:100BD0002FEF89E698E1215080409040E1F700C076
:100BE00000008DE390E00E94F50F482F64E080E55F
:100BF0004FDCC82B2FEF89E698E1215080409040D0
:100C0000E1F700C000008EE390E00E94F50F482F4E
:100C100065E080E53DDCC82B2FEF89E698E12150A7
:100C200080409040E1F700C000008FE390E00E9418
:100C3000F50F482F66E080E52BDCC82B2FEF89E607
:100C400098E1215080409040E1F700C0000080E42E
:100C500090E00E94F50F482F67E080E519DCC82B73
:100C60002FEF89E698E1215080409040E1F700C0E5
:100C7000000081E490E00E94F50F482F68E080E5D5
:100C800007DCC82B2FEF89E698E121508040904087
:100C9000E1F700C0000082E490E00E94F50F482FC9
:100CA00069E080E5F5DBC82B2FEF89E698E121505C
:100CB00080409040E1F700C0000083E490E00E9493
:100CC000F50F482F6AE080E5E3DBC82B2FEF89E6BC
:100CD00098E1215080409040E1F700C0000084E49A
:100CE00090E00E94F50F482F6BE080E5D1DBC82B28
:100CF0002FEF89E698E1215080409040E1F700C055
:100D0000000085E490E00E94F50F482F6CE080E53C
:100D1000BFDBD82F2FEF89E698E12150804090402B
:100D2000E1F700C0000087E1EEDB2FEF83ED90E3F9
:100D3000215080409040E1F700C00000CD2B61E0E1
:100D400009F460E083E590E00E941A1084E590E0E9
:100D50000E94F50F882309F44EC04FEF6FEF8FEF1D
:100D600060D48AE490E00E94F50F482F67E080EF9E
:100D70008FDBC82F2FEF89E698E12150804090400B
:100D8000E1F700C000008BE490E00E94F50F482FCF
:100D900069E080EF7DDBD82FDC2B2FEF89E698E12F
:100DA000215080409040E1F700C000008CE490E0CA
:100DB0000E94F50F482F6AE080EF6ADBC82F2FEF03
:100DC00089E698E1215080409040E1F700C00000A2
:100DD00087E199DB2FEF83ED90E321508040904035
:100DE000E1F700C00000CD2B61E009F460E084E58C
:100DF00090E00E941A1081E086DB2FEF89E698E1EF
:100E0000215080409040E1F700C0000087E17BDB8B
:100E10002FEF83ED90E3215080409040E1F700C038
:100E200000008DE490E00E94F50FC82F8DE490E063
:100E30000E94F50FC82B8EE490E00E94F50FC82B9E
:100E40008FE490E00E94F50FC82B80E590E00E94AF
:100E5000F50FC82B81E590E00E94F50FC82B82E5C5
:100E600090E00E94F50FC82B83E590E00E94F50FFB
:100E7000C82B84E590E00E94F50F6C2F682B85E568
:100E800090E00E941A1085E590E00E94F50F8823FB
:100E900031F040E060E08FEFC4D380E004C0D7D3EE
:100EA00081E001C081E0DF91CF9108951F920F9200
:100EB0000FB60F9211240F931F932F933F934F93CD
:100EC0005F936F937F938F939F93AF93BF93EF93B2
:100ED000FF93CF93DF93CDB7DEB76197CDBFDEBF72
:100EE00080E280934C0680913520882321F0813068
:100EF00009F47FC09CC0FE013C9686E0DF011D9294
:100F00008A95E9F7BE016F5F7F4F8BE0DB011D9291
:100F10008A95E9F785E28983EF83F88786E090E098
:100F200089879A8741E080E894E00E94DA138D85F2
:100F300082FB002700F910E000936A20012B09F4DE
:100F400076C0A9E6B0E2887790E09595879595956B
:100F50008795959587958C938E85E82FEF771796D3
:100F6000EC938E2F90E0FC017097E335F105D8F5F6
:100F7000EA5AFF4F0C946E1480EA80932A2081E095
:100F800035C081EA80932A2082E030C082EA8093D3
:100F90002A2083E02BC083EA80932A2084E026C0A5
:100FA00083EA80932A2084E021C084EA80932A2067
:100FB00085E01CC084EA80932A2085E017C085EA7A
:100FC00080932A2086E012C085EA80932A2086E05A
:100FD0000DC086EA80932A2087E008C086EA8093C5
:100FE0002A2087E003C010922A2080E080933420DA
:100FF0001EC0BE016F5F7F4F8BE0FB0111928A958F
:10100000E9F785E289830BE210E20F83188789E014
:1010100090E089879A8741E080E894E00E94DA13A3
:1010200010923520D80113968C91809304206196FC
:10103000CDBFDEBFDF91CF91FF91EF91BF91AF9117
:101040009F918F917F916F915F914F913F912F91E0
:101050001F910F910F900FBE0F901F90189581E078
:1010600080937320E0E4F9E08485816084870895AB
:10107000CF93DF9380E499E00E947D12C0E4D9E031
:101080008E818C7F8E838E8181608E838981887F23
:1010900089836FE278E080E499E00E94E11282EABD
:1010A00090E08EA39FA38881807F87608883E0EA99
:1010B000F0E08281816082837894DF91CF910895FE
:1010C000682F80EC98E00C942D140895CF93DF9353
:1010D000A5E0B0E28C91ECE8F0E2808311968C916F
:1010E0001197818312968C91129782838C918187BC
:1010F00011968C911197828712968C911297838703
:1011000013968C911397838314968C9114978483F0
:1011100015968C911597858313968C9113978487D8
:1011200014968C911497858715968C9115978687C0
:1011300016968C911697868317968C9117978783AE
:1011400018968C911897808716968C91169787879A
:1011500017968C911797808B18968C91818BC0E095
:10116000D0E0FE01EB5FFF4D60812196CE0162D79A
:10117000C930D105B1F750D2811104C066E08CE8C6
:1011800090E2C5D4DF91CF910895809138200895E1
:101190001F920F920FB60F9211242F933F934F93EC
:1011A0005F936F937F938F939F93AF93BF93EF93CF
:1011B000FF9380EC98E00E943B1490913B209111AA
:1011C0000EC08F3049F481E080933B2096E09093ED
:1011D0001B2080933A2038C010923B2035C0292F25
:1011E00030E060911B20462F50E04F5F5F4F241787
:1011F0003507F1F410923B20803FA9F42091742030
:10120000222361F044E750E2FA0180E09191890FD6
:101210009E2F941B9217D0F3811105C010923A2093
:101220008FEF4EDF11C010923A208CE049DF0CC0E6
:10123000F901ED58FF4D80839F5F90933B20809193
:101240007420681380931B20FF91EF91BF91AF91A1
:101250009F918F917F916F915F914F913F912F91CE
:101260000F900FBE0F901F90189590E0FC013197E2
:10127000E037F10530F4E755FF4F0C946E1481E030
:10128000089580E008951F920F920FB60F921124D7
:101290002F933F934F935F936F937F938F939F937E
:1012A000AF93BF93CF93DF93EF93FF9340E050E072
:1012B00080E090E0E0ECF9E007C09C012F5F3F4F39
:1012C0008131974278F4C90121812223B4F720812A
:1012D000DA01A25FBF4D2C934F5F5F4F4B3051053A
:1012E00099F769C180910E20C0DF882309F45FC19E
:1012F00080910F20893008F05AC180910E2090E033
:10130000FC013197E037F10508F051C1E75EFE4F6F
:101310000C946E1480910F20893009F048C16FEF52
:1013200083E4EDD1AEE0B0E212968C911297ECE836
:10133000F0E2808313968C911397818314968C919D
:101340001497828312968C911297818713968C91B1
:101350001397828714968C911497838715968C9196
:101360001597838316968C911697848317968C9184
:101370001797858315968C911597848716968C916F
:101380001697858717968C911797868718968C9154
:101390001897868319968C91199787831A968C9142
:1013A0001A97808718968C911897878719968C9131
:1013B0001997808B1A968C91818BC0E0D0E0FE014A
:1013C000E05FFF4D8081FE01EB5FFF4D8083608118
:1013D0002196CE012FD6C930D10589F71DD18111B3
:1013E000E6C066E08CE890E292D3E1C06FEF80E562
:1013F00086D180911020882319F0813039F00CC0FB
:101400001092382081E080933720D1C081E0809312
:10141000382080933720CBC081E0809338208093A0
:101420003720C5C080913820882329F010923820B9
:1014300081E08093372081E0809336206FEF5FD189
:10144000B6C08091102090E08730910508F0AFC0C1
:10145000FC01E757FE4F0C946E148091112090E030
:101460008093402090934120A2C08091112090E071
:1014700080932720909328209AC08091112090E09B
:10148000809325209093262092C08091112090E097
:1014900080932320909324208AC08091112090E093
:1014A000809321209093222082C08091112090E08F
:1014B00080931F20909320207AC08091112090E08B
:1014C00080931D2090931E2072C0809110208093E5
:1014D0001C206DC0809110208093022068C08091F4
:1014E00010208093012063C0809110208093002001
:1014F0005EC016D15CC02DD15AC098D158C06FD1F2
:1015000056C041D154C0CEE0D0E26B818A8190E0D8
:1015100091D58A81803128F461E08DE490E08AD50C
:101520003EC0809110208D3128F461E08EE490E07F
:1015300081D535C0809110208F3228F461E08FE48E
:1015400090E078D52CC080911020813328F461E0A0
:1015500080E590E06FD523C080911020833328F47C
:1015600061E081E590E066D51AC080911020893352
:1015700028F461E082E590E05DD511C080911020F3
:10158000863428F461E083E590E054D508C080916A
:1015900010208D3420F461E084E590E04BD561E0CB
:1015A00085E590E047D503C003D101C0FFCF81E0BE
:1015B0008093392006C080910E2057DE81119DCE88
:1015C000F6CFFF91EF91DF91CF91BF91AF919F91B6
:1015D0008F917F916F915F914F913F912F910F90DC
:1015E0000FBE0F901F9018950F931F93CF93DF930B
:1015F0006115710561F08C01EC01060F171F6991EF
:1016000080EC99E00E942D14C017D107C1F7DF913B
:10161000CF911F910F9108958091E8078695817071
:10162000089520E030E0F901EE0FFF1FE20FF31FF5
:10163000E457FF4D8083618342832F5F3F4F263005
:10164000310589F766E08CE890E261C20895ECE824
:10165000F0E28FEF808311821282138284831582DD
:101660001682178280878187128613861486858763
:1016700016861786108A818B66E0CF0148C20895CE
:1016800080E0E82FF0E09F01220F331FE20FF31FED
:10169000E457FF4D1082118212828F5F863089F7E6
:1016A00066E08CE890E233C208951F920F920FB665
:1016B0000F9211242F933F934F935F936F937F93D8
:1016C0008F939F93AF93BF93EF93FF9380E28093A9
:1016D0006C06D6DF82E197E20197F1F7FF91EF9177
:1016E000BF91AF919F918F917F916F915F914F913A
:1016F0003F912F910F900FBE0F901F901895CF9391
:10170000DF9300D0CDB7DEB789836A8362E070E0F3
:10171000CE01019669DF0F900F90DF91CF91089570
:10172000CF93DF9300D01F92CDB7DEB790913E20CC
:1017300080913F209B838A838DE4898363E070E0FE
:10174000CE01019651DF2396CDBFDEBFDF91CF9151
:101750000895CF93DF9300D0CDB7DEB780913C20C2
:1017600090913D206AE070E00E945B146A8382E4FD
:10177000898362E070E0CE01019636DF0F900F9012
:10178000DF91CF910895CF93DF9300D0CDB7DEB72F
:1017900019821A8241DF8A8387E4898362E070E0DC
:1017A000CE01019621DF0F900F90DF91CF91089528
:1017B000CF93DF9300D0CDB7DEB719821A8285E5CB
:1017C00090E013D48A8388E4898362E070E0CE01DC
:1017D00001960ADF0F900F90DF91CF910895CF937C
:1017E000DF93CDB7DEB72A97CDBFDEBFFE013196BE
:1017F0008AE0DF011D928A95E9F783E689833196B5
:1018000081E090E0DC01AB5FBF4D2C91219301960C
:1018100089309105B9F76AE070E0CE010196E4DE07
:101820002A96CDBFDEBFDF91CF910895CF93DF938E
:1018300000D0CDB7DEB719821A82A7DC8A8380E791
:10184000898362E070E0CE010196CEDE0F900F90AA
:10185000DF91CF910895CF93DF9381E090E0C5D3DE
:10186000C5E0D0E2888382E090E0BFD3898383E043
:1018700090E0BBD38A8384E090E0B7D38B8385E08C
:1018800090E0B3D38C8386E090E0AFD38D8387E084
:1018900090E0ABD38E8388E090E0A7D38F8389E07C
:1018A00090E0A3D3888712DCDF91CF9108958091D7
:1018B0007320882319F010927320A8950895982F0B
:1018C000977061E070E002C0660F771F9A95E2F7AB
:1018D00086958695869520E2829FC001112441E07D
:1018E00050E09A5F26C30895DC0111962C91119760
:1018F00098E0E0E4F6E030E422230CF028C03583E1
:1019000000000000000000000000000000000000D7
:1019100000000000000000000000000000000000C7
:1019200000000000000000000000000000000000B7
:1019300036830000000000000000000000000000EE
:1019400000000000000000000000000026C03583F9
:101950000000000000000000000000000000000087
:1019600000000000000036830000000000000000BE
:101970000000000000000000000000000000000067
:101980000000000000000000000000000000000057
:1019900000000000000000000000220F915009F03C
:1019A000ABCF2C9198E0E0E4F6E030E422230CF099
:1019B00028C0358300000000000000000000000087
:1019C0000000000000000000000000000000000017
:1019D0000000000000000000000000000000000007
:1019E000000000003683000000000000000000003E
:1019F00000000000000000000000000000000000E7
:101A000026C0358300000000000000000000000038
:101A1000000000000000000000003683000000000D
:101A200000000000000000000000000000000000B6
:101A300000000000000000000000000000000000A6
:101A40000000000000000000000000000000220F65
:101A5000915009F0ABCF12969C9188E0E0E4F6E05B
:101A600020E499230CF028C025830000000000002A
:101A70000000000000000000000000000000000066
:101A80000000000000000000000000000000000056
:101A9000000000000000000000002683000000009D
:101AA0000000000000000000000000000000000036
:101AB00000000000000026C0258300000000000098
:101AC0000000000000000000000000000000000016
:101AD000268300000000000000000000000000005D
:101AE00000000000000000000000000000000000F6
:101AF00000000000000000000000000000000000E6
:101B000000000000990F815009F0ABCF08950F93AA
:101B10001F93CF93DF93662351F0062FC82FD92F41
:101B200010E0CE01E1DE1F5F23961013FACF80E4B0
:101B30008093460689EF90E00197F1F700C000001E
:101B4000DF91CF911F910F910895CF93DF93CDB780
:101B5000DEB72A97CDBFDEBFAED167E08AE090E066
:101B600069D265E08BE090E065D262E98CE090E0BC
:101B700061D264E28DE090E05DD263E38EE090E0BC
:101B800059D263E38FE090E055D265E080E190E0C8
:101B900051D266E081E190E04DD267E082E190E0D1
:101BA00049D261E083E190E045D264E084E190E0D5
:101BB00041D263E085E190E03DD262E086E190E0D1
:101BC00039D261E087E190E035D260E088E190E0D1
:101BD00031D269E089E190E02DD26AE08AE190E0BB
:101BE00029D26BE08BE190E025D26CE08CE190E0B3
:101BF00021D263E08DE190E01DD266E08EE190E0BD
:101C000019D26DE08FE190E015D264E080E290E0BF
:101C100011D262E081E290E00DD26EE182E290E0CA
:101C200009D26DE183E290E005D26CE184E290E0BC
:101C300001D267E085E290E0FDD16EE086E290E0BF
:101C4000F9D16FE087E290E0F5D160E188E290E0C1
:101C5000F1D165E089E290E0EDD168E08AE290E0C0
:101C6000E9D162E28BE290E0E5D161E28CE290E0C2
:101C7000E1D160E28DE290E0DDD16FE18EE290E0B3
:101C8000D9D167E08FE290E0D5D16DE180E390E0BB
:101C9000D1D16AE081E390E0CDD167E282E390E0C8
:101CA000C9D161E083E390E0C5D168E084E390E0CE
:101CB000C1D166E985E390E0BDD163E086E390E0C1
:101CC000B9D163E087E390E0B5D160E088E390E0CC
:101CD000B1D160EA89E390E0ADD166E98AE390E0B2
:101CE000A9D166E98BE390E0A5D166E48CE390E0AE
:101CF000A1D168EC8DE390E09DD160E08EE390E0AF
:101D000099D164EF8FE390E095D161E080E490E0B9
:101D100091D168E781E490E08DD163E082E490E0C6
:101D200089D16EE583E490E085D161E084E490E0C0
:101D300081D160E885E490E07DD160E486E490E0C4
:101D400079D16FE187E490E075D160E088E490E0BC
:101D500071D160E089E490E06DD161E08AE490E0C7
:101D600069D161E88BE490E065D161E08CE490E0BA
:101D700061D188E00E94AE01A8950E94C20178D985
:101D800080E098E0ECD380E498E0B7D386E197DD7B
:101D900077DC0E9416020E94D0010E9400020E947D
:101DA000B7028DE490E021D189838DE490E01DD1CC
:101DB0008A838EE490E019D18B838FE490E015D173
:101DC0008C8380E590E011D18D8381E590E00DD189
:101DD0008E8382E590E009D18F8383E590E005D181
:101DE000888784E590E001D1898785E590E0FDD082
:101DF0008A8761E08DE490E01DD161E08EE490E09F
:101E000019D161E08FE490E015D161E080E590E0C8
:101E100011D161E081E590E00DD160E082E590E0D4
:101E200009D160E083E590E005D161E084E590E0D0
:101E300001D161E085E590E0FDD00DDD8A85882344
:101E4000D9F040E060E08FEFECDB2FEF88E09DE31E
:101E5000215080409040E1F700C0000040E060E089
:101E600080E0DFDB2FEF88E09DE321508040904051
:101E7000E1F700C0000017C0EADB2FEF88E09DE328
:101E8000215080409040E1F700C0000040E06FEF3B
:101E900080E0C7DB2FEF88E09DE321508040904039
:101EA000E1F700C0000080917320882339F210927E
:101EB0007320A895C3CF8FEF80937000809371003B
:101EC00080937200809373008093740080937500F8
:101ED000809376009FB7F894E0E5F0E0808182601F
:101EE00080839FBF818181FFFDCF61E080E490E02E
:101EF00076D09FB7F894E0E5F0E080818E7F808314
:101F00009FBF08959FB7F894E82FF0E0E059FF4F86
:101F100060958081682360839FBF08959FB7F89480
:101F2000E82FF0E0E059FF4F8081682B60839FBF6E
:101F30000895CF93DF93FC01709620E030E0C62F28
:101F4000D0E0DE01022E02C0B595A7950A94E2F713
:101F5000A0FD50832F5F3F4F31962830310589F720
:101F600040FF0AC041FF03C0FC01658302C0FC01C1
:101F70006683FC01618302C0FC016283DF91CF9123
:101F800008951F920F920FB60F9211242F933F9333
:101F90004F935F936F937F938F939F93AF93BF9371
:101FA000EF93FF934091240250912502E091A420E9
:101FB000F091A52061E080E092E00995FF91EF911A
:101FC000BF91AF919F918F917F916F915F914F9151
:101FD0003F912F910F900FBE0F901F9018951BBE31
:101FE000FC0128ED24BF608308959C01E0ECF1E042
:101FF00097859923ECF3F901F05F80810895E0EC77
:10200000F1E087858823ECF38091CF0181FF07C041
:1020100086E38093CA0161E08BEC91E0E0CF089504
:10202000E0ECF1E097859923ECF3E82FF0E0F05F26
:1020300060830895FF920F931F93CF93DF93182F20
:10204000F92EC62F0091CA01DADFE0ECF1E0278516
:102050002223ECF36C2F812FE3DFC0ECD1E01A8256
:10206000F982188385E38A8761E08BEC91E0B7DF22
:102070000A87DF91CF911F910F91FF9008951F92D2
:102080000F920FB60F9211242F933F934F935F93AC
:102090006F937F938F939F93AF93BF93EF93FF9330
:1020A000E0915C20F0915D20309709F00995FF9157
:1020B000EF91BF91AF919F918F917F916F915F91C0
:1020C0004F913F912F910F900FBE0F901F90189539
:1020D0001F920F920FB60F9211242F933F934F939D
:1020E0005F936F937F938F939F93AF93BF93EF9380
:1020F000FF93E0915A20F0915B20309709F0099509
:10210000FF91EF91BF91AF919F918F917F916F91CF
:102110005F914F913F912F910F900FBE0F901F90A5
:1021200018951F920F920FB60F9211242F933F9381
:102130004F935F936F937F938F939F93AF93BF93CF
:10214000EF93FF93E0915820F0915920309709F0D8
:102150000995FF91EF91BF91AF919F918F917F91E1
:102160006F915F914F913F912F910F900FBE0F9004
:102170001F9018951F920F920FB60F9211242F9354
:102180003F934F935F936F937F938F939F93AF93FF
:10219000BF93EF93FF93E0915620F0915720309733
:1021A00009F00995FF91EF91BF91AF919F918F91A8
:1021B0007F916F915F914F913F912F910F900FBE43
:1021C0000F901F9018951F920F920FB60F92112427
:1021D0002F933F934F935F936F937F938F939F932F
:1021E000AF93BF93EF93FF93E0915420F09155206C
:1021F000309709F00995FF91EF91BF91AF919F91B1
:102200008F917F916F915F914F913F912F910F909F
:102210000FBE0F901F9018951F920F920FB60F923E
:1022200011242F933F934F935F936F937F938F93DB
:102230009F93AF93BF93EF93FF93E0915220F09160
:102240005320309709F00995FF91EF91BF91AF911D
:102250009F918F917F916F915F914F913F912F91BE
:102260000F900FBE0F901F9018951F920F920FB6F0
:102270000F9211242F933F934F935F936F937F930C
:102280008F939F93AF93BF93EF93FF93E091502071
:10229000F0915120309709F00995FF91EF91BF918E
:1022A000AF919F918F917F916F915F914F913F91EE
:1022B0002F910F900FBE0F901F9018951F920F92A5
:1022C0000FB60F9211242F933F934F935F936F9309
:1022D0007F938F939F93AF93BF93EF93FF93E0917F
:1022E0004E20F0914F20309709F00995FF91EF9122
:1022F000BF91AF919F918F917F916F915F914F911E
:102300003F912F910F900FBE0F901F9018951F9225
:102310000F920FB60F9211242F933F934F935F9319
:102320006F937F938F939F93AF93BF93EF93FF939D
:10233000E0914C20F0914D20309709F00995FF91E4
:10234000EF91BF91AF919F918F917F916F915F912D
:102350004F913F912F910F900FBE0F901F901895A6
:102360001F920F920FB60F9211242F933F934F930A
:102370005F936F937F938F939F93AF93BF93EF93ED
:10238000FF93E0914A20F0914B20309709F0099596
:10239000FF91EF91BF91AF919F918F917F916F913D
:1023A0005F914F913F912F910F900FBE0F901F9013
:1023B00018951F920F920FB60F9211242F933F93EF
:1023C0004F935F936F937F938F939F93AF93BF933D
:1023D000EF93FF93E0914820F0914920309709F066
:1023E0000995FF91EF91BF91AF919F918F917F914F
:1023F0006F915F914F913F912F910F900FBE0F9072
:102400001F9018951F920F920FB60F9211242F93C1
:102410003F934F935F936F937F938F939F93AF936C
:10242000BF93EF93FF93E0914620F09147203097C0
:1024300009F00995FF91EF91BF91AF919F918F9115
:102440007F916F915F914F913F912F910F900FBEB0
:102450000F901F9018951F920F920FB60F92112494
:102460002F933F934F935F936F937F938F939F939C
:10247000AF93BF93EF93FF93E0914420F0914520F9
:10248000309709F00995FF91EF91BF91AF919F911E
:102490008F917F916F915F914F913F912F910F900D
:1024A0000FBE0F901F9018951F920F920FB60F92AC
:1024B00011242F933F934F935F936F937F938F9349
:1024C0009F93AF93BF93EF93FF93E0914220F091DE
:1024D0004320309709F00995FF91EF91BF91AF919B
:1024E0009F918F917F916F915F914F913F912F912C
:1024F0000F900FBE0F901F901895CF93CFB7F89401
:10250000282F392F211588E0380739F461E083E05E
:10251000F9DC64E083E0F6DC17C0203488E038079B
:1025200039F462E083E0EEDC64E083E0EBDC0CC0D5
:102530002034394039F462E084E0E4DC64E084E093
:10254000E1DC02C0CFBF09C09FB7F894EEE9F0E22A
:1025500081818F5F81839FBFCFBFCF910895CF933C
:10256000CFB7F8943FB7F894EEE9F0E2218121501B
:1025700021833FBF282F392F211588E0380739F4F0
:1025800061E083E0CBDC64E083E0C8DC17C020348A
:1025900088E0380739F462E083E0C0DC64E083E07F
:1025A000BDDC0CC02034394039F461E084E0B6DC95
:1025B00064E084E0B3DC02C0CFBF01C0CFBFCF91E5
:1025C0000895811528E0920729F460935C207093A8
:1025D0005D200895803428E0920729F4609350200C
:1025E0007093512008958034994021F460934820DD
:1025F0007093492008951F920F920FB60F921124E5
:102600002F933F934F935F936F937F938F939F93FA
:10261000AF93BF93CF93DF93EF93FF93E0915E204F
:10262000F0915F20848183FF08C08860848383E009
:10263000838386EF8093682095C0982F947131F042
:1026400083E083838FEF809368208CC086FF43C034
:10265000CEE5D0E2AA81BB818C819D8114962D911B
:102660003C911597821793076CF49C012F5F3F4FA5
:102670002093622030936320A80FB91F11968C918C
:10268000878370C0809164209091652018962D9169
:102690003C91199782179307C8F420916620222352
:1026A00021F08681816086835DC016962D913C91D4
:1026B0001797AC014F5F5F4F4093642050936520A4
:1026C000D901A80FB91F8C9187834CC083E0838305
:1026D0001092682047C088230CF041C0CEE5D0E2BC
:1026E000AA81BB818E819F8118962D913C9119976B
:1026F0008217930770F516966D917C9117979C0140
:102700002F5F3F4F20936420309365204781860FD1
:10271000971FEC014883EB01888190E001961896A1
:102720004D915C9119974817590721F018968D9390
:102730009C93199718968D919C9119972817390792
:1027400018F482E083830EC087E0838310926820B0
:1027500009C083E0838389EF8093682003C08BEFF7
:1027600080936820FF91EF91DF91CF91BF91AF915E
:102770009F918F917F916F915F914F913F912F9199
:102780000F900FBE0F901F901895FC01DB0114965F
:102790008C91858388EB818381E08483EEE5F0E290
:1027A00011861286E0EAF0E082818260828378946A
:1027B00080E00895DC01892B09F449C06115710599
:1027C00009F447C0FB01928580916720882319F0A6
:1027D0009923F1F340C08FB7F894EEE5F0E291E071
:1027E000918790E892878FBFA083B18362837383C0
:1027F00014821582168217824087FB018081880F20
:1028000024813581232B11F4411103C016968C933A
:1028100003C0816016968C93EEE5F0E282858038E5
:10282000E9F3E0915E20F0915F2084818370813034
:1028300049F0AEE5B0E2ED91FC911197848183708F
:102840008130C9F7EEE5F0E282851186089588EFC0
:10285000089588EF089586EF0895FC0122E137E29C
:1028600003C02150310919F0918195FFFACF60839F
:1028700080E090E00895FC0122E137E203C021509E
:10288000310919F091819923D4F780810895AA1B09
:10289000BB1B51E107C0AA1FBB1FA617B70710F04B
:1028A000A61BB70B881F991F5A95A9F7809590957D
:1028B000BC01CD01089597FB072E16F4009406D0B5
:1028C00077FD08D0E4DF07FC05D03EF490958195B4
:1028D0009F4F0895709561957F4F0895EE0FFF1FEC
:0C28E0000590F491E02D0994F894FFCFCE
:1028EC00646464FA01FF000000FF000000FF8080B8
:1028FC00808080808080808080000006604038E08E
:0A290C002E302A201CC012600900C2
:00000001FF
