:10000000A8C00000C2C00000C0C00000BEC0000008
:10001000BCC00000BAC00000B8C00000B6C00000FC
:10002000B4C0000048C30000B0C000000C945D0CD8
:100030000C94A1090C94CA090C94F3090C941C0AA1
:100040000C94450A0C946E0A0C94970A0C94C00AFE
:100050000C94E90A0C94120B98C0000037C40000FD
:1000600094C0000092C0000090C000008EC000004C
:100070008CC000008AC0000088C0000086C000005C
:1000800084C0000082C000000C94A908B9C500001B
:100090000C943B0B0C94640B0C948D0B0C94B60BD2
:1000A00082C4000072C0000070C000003E02540212
:1000B00052025202520252025202520252025202A0
:1000C00052025202520252025202520240025202A2
:1000D0005202520252025202520252025202520280
:1000E0005202520252025202520252025202420280
:1000F000440252025202520252025202520252026E
:10010000520252025202520252025202520246025B
:100110004802520252025202520252025202520249
:1001200052025202520252025202520252024A0237
:100130004C02520252025202520252025202520225
:1001400052025202520252025202520252024E0213
:10015000500211241FBECFEFCDBFDFE2DEBF10E2A1
:10016000A0E0B0E2EEEFFEE102C005900D92AA30F1
:10017000B107D9F728E2AAE0B0E201C01D92A13090
:10018000B207E1F785D60C947D0F3ACF1F93CF933A
:10019000DF93CDB7DEB76197CDBFDEBF182FBE01AD
:1001A0006F5F7F4F80E092E00E94160989819A81FB
:1001B0009F7890619A8392E09C83817E806189839D
:1001C0001B828FB7F89498E0E0E0F2E090878FBF51
:1001D000BE016F5F7F4F80E092E0E9D7AE01485FDC
:1001E0005F4F61E080E092E00E946009123049F0C8
:1001F000143061F0113071F481E0888780E28987E2
:1002000009C08AE0888788E0898704C08AE08887F7
:1002100083E189878A851C86807F8A87AE01485F53
:100220005F4F61E080E092E00E94380980E092E058
:1002300066D78FB7F894E0E0F2E090819460908305
:100240008FBF868180FFFDCF81E0E0E0F2E0868312
:100250006196CDBFDEBFDF91CF911F9108951F93AF
:10026000CF93DF93CDB7DEB72A97CDBFDEBF182F70
:10027000AE014F5F5F4F61E080E092E00E94600955
:10028000123049F0143061F0113071F481E089834B
:1002900080E28A8309C08AE0898388E08A8304C077
:1002A0008AE0898383E18A83AE014F5F5F4F61E01B
:1002B00080E092E0DDD72A96CDBFDEBFDF91CF91FF
:1002C0001F91089580911E20823081F0843099F131
:1002D000813009F054C040931B2050931C2082E0D1
:1002E00080931E2080911E20BACF089580910B200C
:1002F00090910C209C012F5F3F4F20930B20309357
:100300000C20FC01EE0FFF1FE456FB4D4083518390
:1003100080910B2090910C208F3F910580F11092DD
:100320000B2010920C2081E080930A2080E098E05E
:100330000C94110C089580910B2090910C209C013D
:100340002F5F3F4F20930B2030930C20FC01EE0FCA
:10035000FF1FE456FB4D4083518380910B20909109
:100360000C208F3F910558F010920B2010920C201A
:1003700081E080930A2080E098E00C94110C0895AD
:10038000CF93DF93CDB7DEB72A97CDBFDEBF80E036
:1003900092E0CCD6AE014F5F5F4F61E080E092E02B
:1003A0008FD7E0EAF0E082818160828362E671E0CB
:1003B00080E092E07CD68B818C7F81608B83AE0164
:1003C0004F5F5F4F61E080E092E052D780E092E0C3
:1003D00096D678942A96CDBFDEBFDF91CF9108954F
:1003E000CF93DF93CDB7DEB72997CDBFDEBF80E8CF
:1003F0009AE1A6E0B0E089839A83AB83BC8383E271
:1004000090E0A0E0B0E08D839E83AF83B88780E565
:10041000898760E483E00CD6BE016F5F7F4F80E880
:1004200094E00E942B0DE0E8F4E0818188608183F4
:1004300078942996CDBFDEBFDF91CF91089540E03B
:1004400059E160E280E496E00AD680E28093B00051
:10045000E0E4F6E0828781E08187E0EAF0E08281F3
:10046000816082837894089590E0FC017097E33571
:10047000F105C0F4EA5AFF4F0C94770F81E008951C
:1004800083E0089584E0089584E0089585E0089568
:1004900085E0089586E0089586E0089587E0089550
:1004A00087E0089580E0089582E0089541E050E0FB
:1004B00060E280E096E0D3D541E050E060E480E087
:1004C00096E0CDD541E050E060E880E096E0C7C519
:1004D000089540E051E161E080E696E0C0D540E05B
:1004E00051E162E080E696E0BAD540E051E160E299
:1004F00080E696E0B4D540E051E160E480E696E025
:10050000AED540E051E160E880E696E0A8C50895E8
:10051000813031F4E0E0F6E090E29583968313C0F9
:1005200090E2E0E0F6E09683823019F495839683BA
:1005300015C090E2E0E0F6E09683833021F49583E5
:1005400090E4968318C090E2E0E0F6E09683853070
:1005500029F490E4958390E8968318C090E4E0E055
:10056000F6E09683873039F480E8858380E4E0E61E
:10057000F6E0868316C090E8E0E0F6E096838430EB
:1005800029F480E4E0E6F6E085830BC090E4E0E641
:10059000F6E09683863029F481E0E0EEF7E085838B
:1005A000089581E0E0EEF7E0868308950F931F93AE
:1005B000CF93DF93CDB7DEB76197CDBFDEBFFE012E
:1005C000319686E0DF011D928A95E9F7BE01695FE9
:1005D0007F4F8BE0DB011D928A95E9F785E28F83DF
:1005E000ED87FE8786E090E08F87988B41E080E87A
:1005F00094E00E94400D2A8122FB002700F910E0C0
:100600000093C627012B49F5822F887790E09595B6
:10061000879595958795959587958093C5272170A2
:100620002093C7278C818F71B0E88B9FC001112464
:100630002B812F77822B8093C8279093C9278E8197
:100640008F7120E8829FC00111242D812F77822B8A
:100650008093CA279093CB2726C02877822F90E0DB
:100660009595879595958795959587958093C527B9
:100670008B818F778093CC27F7DE80931620609153
:10068000162080EC98E00E949C0D8091162040DF9F
:100690008FEF93ECA9E081509040A040E1F700C0BB
:1006A000000080E035DF6196CDBFDEBFDF91CF91E6
:1006B0001F910F9108951F920F920FB60F92112460
:1006C000EF92FF920F931F932F933F934F935F935C
:1006D0006F937F938F939F93AF93BF93EF93FF930A
:1006E000CF93DF93CDB7DEB72B97CDBFDEBF80E2D0
:1006F000E0E4F6E0848780911720882319F08130A8
:1007000019F031C053DF2FC0BE016F5F7F4F8BE008
:10071000FB0111928A95E9F785E289838DE090E2E9
:100720008F83988789E090E089879A8741E080E805
:1007300094E00E94400D109217200DE010E20F2E61
:10074000F6E1EF2EF0E2FF2EF02DF80161918F011E
:1007500080EC99E00E949C0D0E151F05B1F7809169
:100760001020809300202B96CDBFDEBFDF91CF916C
:10077000FF91EF91BF91AF919F918F917F916F9179
:100780005F914F913F912F911F910F91FF90EF90AB
:100790000F900FBE0F901F901895E0E0F8E0848551
:1007A0008160848781E08093CE278FB7F894E0E062
:1007B000F2E09081946090838FBF089581E08093F0
:1007C000CD279DD16EE380EC98E00E949C0DE0E483
:1007D000F8E08485816084870895CF93DF9380E07B
:1007E00098E0EDD7C0E0D8E08E818C7F8E838E813B
:1007F00081608E838981887F89836DEC73E080E0DE
:1008000098E00E94430C80E590E08EA39FA388812E
:10081000807F84608883E0EAF0E082818160828367
:100820007894DF91CF910895CF93DF93C0E4D8E01F
:100830008E818C7F8E838E8182608E838981887F7A
:1008400089836EED73E080E498E00E94430C80E1C0
:1008500097E28EA39FA38881807F85608883E0EAEA
:10086000F0E08281826082837894DF91CF91089555
:1008700043E050E068E080E496E0F1D340E050E0EF
:1008800064E080E496E0EBD361E070E280EC98E015
:100890000E94B00EE0ECF8E082818F7C806282835F
:1008A000E0EAF0E082818260828378940895682F84
:1008B00080EC98E00C949C0D0895109218200895F7
:1008C0008091182008951092192008951F920F9278
:1008D0000FB60F9211242F933F934F935F936F9313
:1008E0007F938F939F93AF93BF93EF93FF9380EC8E
:1008F00098E00E94A40D9091192091110EC08F30A4
:1009000049F481E08093192096E090930820809329
:10091000182038C01092192035C0292F30E060917E
:100920000820462F50E04F5F5F4F24173507F1F442
:1009300010921920803FA9F44091CF27442361F001
:100940008FEC97E2FC0120E03191230F3E2F381B02
:100950003417D0F3211105C0109218208FEFA7DFB4
:1009600011C0109218208CE0A2DF0CC0F901E253F4
:10097000F84D80839F5F909319208091CF27681353
:1009800080930820FF91EF91BF91AF919F918F913C
:100990007F916F915F914F913F912F910F900FBE7B
:1009A0000F901F9018951F920F920FB60F9211245F
:1009B0002F933F934F935F936F937F938F939F9367
:1009C000AF93BF93EF93FF9380EC99E00E94A40D47
:1009D00080931A20FF91EF91BF91AF919F918F91DA
:1009E0007F916F915F914F913F912F910F900FBE2B
:1009F0000F901F901895682F677021E030E0A901D3
:100A000002C0440F551F6A95E2F7BA018695869594
:100A1000869550E2859FC001112440E050E09A5F26
:100A20001EC30895E0EEF7E08085869581700895F5
:100A3000F9DF882381F080911D208130F9F06EE18B
:100A400080EC98E00E949C0D81E080931D2080E462
:100A500098E0B5C6089580911D20833079F080918B
:100A60001D20823059F06EE280EC98E00E949C0DCF
:100A700082E080931D2080E498E0D3C608958FEF34
:100A80008093E7271092E8271092E9271092EA272F
:100A90008093EB271092EC271092ED271092EE270F
:100AA0008093EF278093F0271092F1271092F2277E
:100AB0001092F3278093F4271092F5271092F627CF
:100AC0001092F7278093F82766E087EE97E2C1C17E
:100AD000089520E030E0F901EE0FFF1FE20FF31F51
:100AE000E951F84D8083618342832F5F3F4F263069
:100AF000310589F766E087EE97E2ABC108950F9361
:100B00001F93CF93DF938091CD27882309F45EC094
:100B10001092CD2780911B2090911C20843D25E0D0
:100B200092077CF482E090E0F9D3D82F81E090E046
:100B3000F5D3C82F80E090E0F1D34D2F6C2FC9DFA3
:100B400045C08433E6E09E077CF485E090E0E6D380
:100B5000D82F84E090E0E2D3C82F83E090E0DED38A
:100B60004D2F6C2FB6DF32C0863696407CF488E07D
:100B700090E0D4D3D82F87E090E0D0D3C82F86E080
:100B800090E0CCD34D2F6C2FA4DF20C0C0E0D0E08C
:100B900089E090E0C3D38E01000F111F0C0F1D1FC1
:100BA0000951184DF80180838AE090E0B7D3F8012D
:100BB00081838BE090E0B2D3F80182832196C63026
:100BC000D10531F766E087EE97E243D1DF91CF910F
:100BD0001F910F91089520E0822F90E0FC01EE0F0D
:100BE000FF1FE80FF91FE951F84D108211821282A0
:100BF0002F5F263089F766E087EE97E22AC10895D5
:100C00001F920F920FB60F92112480E2E0E6F6E0F9
:100C10008487E1DFFFCF682F677021E030E0A90112
:100C200002C0440F551F6A95E2F7BA018695869572
:100C3000869550E2859FC001112441E050E09A5F03
:100C40000EC20895DC0111969C91119788E0E0E4B2
:100C5000F6E020E499230CF028C025830000000072
:100C60000000000000000000000000000000000084
:100C70000000000000000000000000000000000074
:100C800000000000268300000000000000000000BB
:100C90000000000000000000000000000000000054
:100CA000000000000000000022C0258300000000BA
:100CB000000000000000000000000000000026838B
:100CC0000000000000000000000000000000000024
:100CD0000000000000000000000000000000000014
:100CE0000000000000000000000000000000990F5C
:100CF000815009F0AFCF9C9188E0E0E4F6E020E479
:100D000099230CF028C0258300000000000000009B
:100D100000000000000000000000000000000000D3
:100D200000000000000000000000000000000000C3
:100D3000268300000000000000000000000000000A
:100D400000000000000000000000000000000000A3
:100D50000000000022C02583000000000000000009
:100D600000000000000000000000268300000000DA
:100D70000000000000000000000000000000000073
:100D80000000000000000000000000000000000063
:100D900000000000000000000000990F815009F0E1
:100DA000AFCF12969C9188E0E0E4F6E020E499232E
:100DB0000CF028C0258300000000000000000000A7
:100DC0000000000000000000000000000000000023
:100DD000000000000000000000000000000026836A
:100DE0000000000000000000000000000000000003
:100DF00000000000000000000000000000000000F3
:100E0000000022C025830000000000000000000058
:100E10000000000000000000268300000000000029
:100E200000000000000000000000000000000000C2
:100E300000000000000000000000000000000000B2
:100E40000000000000000000990F815009F0AFCFB2
:100E500008950F931F93CF93DF93062F662349F0D6
:100E6000C82FD92F10E0CE01EDDE1F5F239610139F
:100E7000FACF80E4E0E4F6E086838FE39FE1019718
:100E8000F1F700C00000DF91CF911F910F910895FD
:100E9000A8D0EEDC86E1BFDE9EDE89E7ACDD06DBB6
:100EA0009FDACDDA61E180EC98E046D612DB80E48F
:100EB00098E085D4B9DCB6DD882351F081E08093D9
:100EC0001E2080931D2062E280EC98E035D60CC095
:100ED00082E080931E2080931D2080E498E0A1D4BE
:100EE00063E280EC98E028D680911E204FD948DA42
:100EF00074DCC5DDC0E6D6E09BDDE2DC813081F448
:100F00002FEF83ED90E3215080409040E1F700C047
:100F10000000D6DC813021F4D0DCD5DC8CE0C7DCED
:100F20008885837A809309208232B9F168F483300E
:100F300029F128F48130C1F08230D9F04EC08032DE
:100F400011F1813229F149C08138B1F128F483329D
:100F500049F1803861F141C0833809F437C088F124
:100F6000803A09F438C039C040E060E08FEFB1DD6D
:100F700035C040E060E88FEFACDD30C040E06FEF9F
:100F80008FEFA7DD2BC040E06FEF80E0A2DD26C031
:100F900040E06CEB80E09DDD21C040E86FEF80E039
:100FA00098DD1CC04FEF6FEF80E093DD17C04FEF6F
:100FB00060E080E08EDD12C04FEF60E08FE789DDFA
:100FC0000DC04FEF60E08FEF84DD08C04FEF6FEF93
:100FD0008FEF7FDD03C053DD01C051DD80911D2007
:100FE0008BCF8FEF8093700080937100809372009D
:100FF00080937300809374008093750080937600D3
:101000008FB7F894E0E5F0E09081926090838FBF15
:10101000818181FFFDCF61E080E490E079D18FB7DD
:10102000F894E0E5F0E090819E7F90838FBF089573
:101030009FB7F894E82FF0E0E059FF4F609580816A
:10104000682360839FBF08959FB7F894E82FF0E06E
:10105000E059FF4F8081682B60839FBF0895CF9335
:10106000DF93FC01709620E030E0C62FD0E0DE0177
:10107000022E02C0B595A7950A94E2F7A0FD508311
:101080002F5F3F4F31962830310589F740FF0AC066
:1010900041FF03C0FC01658302C0FC016683FC01C3
:1010A000618302C0FC016283DF91CF9108952FB765
:1010B000F8948115924021F46093FF2770930028E3
:1010C0002FBF08958115924059F480911F2091E01F
:1010D000980F90931F20811103C062E081E0A8CF98
:1010E00008958115924051F480911F208150809382
:1010F0001F20811103C062E081E0A6CF08951F93F5
:10110000CF93DF93EC011FB7F894DCDF8881816017
:1011100088831FBF8FB7F894EAEFF7E290819F5F53
:1011200090838FBFDF91CF911F910895CF93CFB759
:10113000F894FC0120812E7F2083D3DFCFBF8FB7AF
:10114000F894EAEFF7E29081915090838FBFCF91AE
:1011500008951F920F920FB60F9211242F933F9371
:101160004F935F936F937F938F939F93AF93BF93AF
:10117000EF93FF93E0E0F2E044A155A1E091FF2757
:10118000F091002861E080E092E00995FF91EF91F5
:10119000BF91AF919F918F917F916F915F914F918F
:1011A0003F912F910F900FBE0F901F901895DF92D7
:1011B000EF92FF920F931F93CF93DF93EC018B017C
:1011C000C11582E0D80751F561E270E082E0AFD04E
:1011D000E82EF12C60E270E082E0A9D0FE2CEE2433
:1011E000E82ADFB6F894CE016DDF2881217082E015
:1011F0008883EC86FD86F80184819581888F998F9C
:1012000081818A8383818C8382818B83808189839E
:10121000868188872883CE0164DFDFBEDF91CF918E
:101220001F910F91FF90EF90DF900895FF920F9321
:101230001F93CF93DF93EC018B01FFB6F89442DF4D
:10124000888D998DF801848395838A8181838C812F
:1012500083838B8182838981808388858683CE0185
:1012600040DFFFBEDF91CF911F910F91FF90089556
:10127000FF920F931F93CF93DF93EC018A01FFB688
:10128000F89420DFF801808188A382818AA381817C
:1012900089A383818EA384818FA3858188A786817A
:1012A00089A787818AA780858BA781858CA7CE0196
:1012B00018DFFFBEDF91CF911F910F91FF9008952E
:1012C000FF920F931F93CF93DF93EC018A01FFB638
:1012D000F894F8DE88A1F80180838AA1828389A12D
:1012E00081838EA183838FA1848388A5858389A52B
:1012F00086838AA587838BA580878CA58187CE016D
:10130000F0DEFFBEDF91CF911F910F91FF90089506
:101310001BBEFC0128ED24BF60830895E0ECF1E0E2
:1013200027852223ECF3FC01F05F80810895409132
:10133000CA01E62FF72F8093CA0184914093CA0116
:1013400008951F920F920FB60F9211242F933F937F
:101350004F935F936F937F938F939F93AF93BF93BD
:10136000EF93FF93E0913A20F0913B20309709F002
:101370000995FF91EF91BF91AF919F918F917F91CF
:101380006F915F914F913F912F910F900FBE0F90F2
:101390001F9018951F920F920FB60F9211242F9342
:1013A0003F934F935F936F937F938F939F93AF93ED
:1013B000BF93EF93FF93E0913820F091392030975D
:1013C00009F00995FF91EF91BF91AF919F918F9196
:1013D0007F916F915F914F913F912F910F900FBE31
:1013E0000F901F9018951F920F920FB60F92112415
:1013F0002F933F934F935F936F937F938F939F931D
:10140000AF93BF93EF93FF93E0913620F091372095
:10141000309709F00995FF91EF91BF91AF919F919E
:101420008F917F916F915F914F913F912F910F908D
:101430000FBE0F901F9018951F920F920FB60F922C
:1014400011242F933F934F935F936F937F938F93C9
:101450009F93AF93BF93EF93FF93E0913420F0916C
:101460003520309709F00995FF91EF91BF91AF9129
:101470009F918F917F916F915F914F913F912F91AC
:101480000F900FBE0F901F9018951F920F920FB6DE
:101490000F9211242F933F934F935F936F937F93FA
:1014A0008F939F93AF93BF93EF93FF93E09132207D
:1014B000F0913320309709F00995FF91EF91BF919A
:1014C000AF919F918F917F916F915F914F913F91DC
:1014D0002F910F900FBE0F901F9018951F920F9293
:1014E0000FB60F9211242F933F934F935F936F93F7
:1014F0007F938F939F93AF93BF93EF93FF93E0916D
:101500003020F0913120309709F00995FF91EF914B
:10151000BF91AF919F918F917F916F915F914F910B
:101520003F912F910F900FBE0F901F9018951F9213
:101530000F920FB60F9211242F933F934F935F9307
:101540006F937F938F939F93AF93BF93EF93FF938B
:10155000E0912E20F0912F20309709F00995FF910E
:10156000EF91BF91AF919F918F917F916F915F911B
:101570004F913F912F910F900FBE0F901F90189594
:101580001F920F920FB60F9211242F933F934F93F8
:101590005F936F937F938F939F93AF93BF93EF93DB
:1015A000FF93E0912C20F0912D20309709F00995C0
:1015B000FF91EF91BF91AF919F918F917F916F912B
:1015C0005F914F913F912F910F900FBE0F901F9001
:1015D00018951F920F920FB60F9211242F933F93DD
:1015E0004F935F936F937F938F939F93AF93BF932B
:1015F000EF93FF93E0912A20F0912B20309709F090
:101600000995FF91EF91BF91AF919F918F917F913C
:101610006F915F914F913F912F910F900FBE0F905F
:101620001F9018951F920F920FB60F9211242F93AF
:101630003F934F935F936F937F938F939F93AF935A
:10164000BF93EF93FF93E0912820F09129203097EA
:1016500009F00995FF91EF91BF91AF919F918F9103
:101660007F916F915F914F913F912F910F900FBE9E
:101670000F901F9018951F920F920FB60F92112482
:101680002F933F934F935F936F937F938F939F938A
:10169000AF93BF93EF93FF93E0912620F091272023
:1016A000309709F00995FF91EF91BF91AF919F910C
:1016B0008F917F916F915F914F913F912F910F90FB
:1016C0000FBE0F901F9018951F920F920FB60F929A
:1016D00011242F933F934F935F936F937F938F9337
:1016E0009F93AF93BF93EF93FF93E0912420F091EA
:1016F0002520309709F00995FF91EF91BF91AF91A7
:101700009F918F917F916F915F914F913F912F9119
:101710000F900FBE0F901F9018951F920F920FB64B
:101720000F9211242F933F934F935F936F937F9367
:101730008F939F93AF93BF93EF93FF93E0912220FA
:10174000F0912320309709F00995FF91EF91BF9117
:10175000AF919F918F917F916F915F914F913F9149
:101760002F910F900FBE0F901F9018951F920F9200
:101770000FB60F9211242F933F934F935F936F9364
:101780007F938F939F93AF93BF93EF93FF93E091DA
:101790002020F0912120309709F00995FF91EF91D9
:1017A000BF91AF919F918F917F916F915F914F9179
:1017B0003F912F910F900FBE0F901F901895CF93D0
:1017C000CFB7F894282F392F211588E0380739F43E
:1017D00061E083E02DDC64E083E02ADC17C0203484
:1017E00088E0380739F462E083E022DC64E083E0DB
:1017F0001FDC0CC02034394039F462E084E018DC8E
:1018000064E084E015DC02C0CFBF09C08FB7F89454
:10181000EAEFF7E290819F5F90838FBFCFBFCF91B8
:101820000895CF93CFB7F8942FB7F894EAEFF7E283
:101830003081315030832FBF282F392F211588E078
:10184000380739F461E083E0FFDB64E083E0FCDB30
:1018500017C0203488E0380739F462E083E0F4DB15
:1018600064E083E0F1DB0CC02034394039F461E0FE
:1018700084E0EADB64E084E0E7DB02C0CFBF01C0C4
:10188000CFBFCF910895811528E0920729F4609386
:101890003A2070933B200895803428E0920729F481
:1018A00060932E2070932F2008958034994021F466
:1018B000609326207093272008951F920F920FB6F1
:1018C0000F9211242F933F934F935F936F937F93C6
:1018D0008F939F93AF93BF93CF93DF93EF93FF9338
:1018E000E0913C20F0913D20848183FF08C0886016
:1018F000848383E0838386EF8093462099C0982F6A
:10190000947131F083E083838FEF8093462090C001
:1019100086FF45C0A0913E20B0913F20809140209D
:101920009091412014962D913C9115978217930721
:101930006CF49C012F5F3F4F209340203093412057
:10194000A80FB91F11968C91878372C08091422095
:101950009091432018962D913C91199782179307E7
:10196000C8F420914420222321F08681816086835F
:101970005FC016962D913C911797AC014F5F5F4F5A
:101980004093422050934320D901A80FB91F8C9156
:1019900087834EC083E083831092462049C088230A
:1019A0000CF043C0A0913E20B0913F208091422096
:1019B0009091432018962D913C9119978217930787
:1019C00070F516966D917C9117979C012F5F3F4F94
:1019D00020934220309343204781860F971FEC01CC
:1019E0004883EB01888190E0019618964D915C91B7
:1019F00019974817590721F018968D939C931997BA
:101A000018968D919C9119972817390718F482E040
:101A100083830EC087E083831092462009C083E051
:101A2000838389EF8093462003C08BEF8093462009
:101A3000FF91EF91DF91CF91BF91AF919F918F91E6
:101A40007F916F915F914F913F912F910F900FBEBA
:101A50000F901F901895FC01DB0114968C918583E3
:101A600088EB818381E08483109245201092462088
:101A7000E0EAF0E0828182608283789480E00895D9
:101A8000009709F453C06115710509F451C0FB01B9
:101A900032852091452002C031114CC02111FCCF6C
:101AA0002FB7F89431E03093452030E8309346204A
:101AB0002FBF80933C2090933D2060933E207093F5
:101AC0003F2010924020109241201092422010920C
:101AD000432040934420FB012081522F550F248145
:101AE0003581232B11F4411103C0FC01568303C03F
:101AF0005160FC015683E6E4F0E280818038E9F32E
:101B0000E0913C20F0913D2084818370813049F048
:101B1000ACE3B0E2ED91FC91119784818370813048
:101B2000C9F78091462010924520089588EF0895C6
:101B300088EF089586EF0895FC01818185FFFDCF30
:101B4000608380E090E00895FC0181818823ECF7B8
:101B5000808108954F925F926F927F928F929F92B1
:101B6000AF92BF92CF92DF92EF92FF920F931F93AB
:101B7000CF93DF93EC014A015B0128013901D901C0
:101B8000C801689412F8B695A7959795879516940D
:101B9000D1F7B901A801032E36E1769567955795DF
:101BA00047953A95D1F7302D2B8122FD08C0B69587
:101BB000A795979587957695679557954795881535
:101BC0009905AA05BB0508F4A2C084169506A606C9
:101BD000B70608F49EC08B8182FD04C0880C991C56
:101BE000AA1CBB1CC301B201A50194015ED12F3F09
:101BF00031054105510508F48EC0C12CD12C760168
:101C0000CA9419EF05C02C153D054E055F0568F017
:101C1000CC0CDD1CEE1CFF1C1D3F14F46894C0F8B6
:101C20001F5F173081F7212F4EC0212F11230CF099
:101C30004AC0D501C401880F991FAA1FBB1F880F76
:101C4000991FAA1FBB1F880F991FAA1FBB1F481AE5
:101C5000590A6A0A7B0A1E3FECF46DEF7FEF611BA5
:101C6000710917FD739504C0440C551C661C771C44
:101C70006A95D2F7D501C401B695A7959795879532
:101C8000BC01CD01640D751D861D971DA501940134
:101C90000CD134C023E0210FD501C40104C0880F4A
:101CA000991FAA1FBB1F2A95D2F79C01AD01B695BB
:101CB000A79597958795BC01CD01640D751D861D6F
:101CC000971DF3D01BC02D5FD501C40104C0880F40
:101CD000991FAA1FBB1F2A95D2F79C01AD01B6958B
:101CE000A79597958795BC01CD01640D751D861D3F
:101CF000971DDBD02150310941095109832F8F7085
:101D00001295107F182B1F832E8381E018C080E06E
:101D100016C080E014C0D501C401880F991FAA1F06
:101D2000BB1F880F991FAA1FBB1F880F991FAA1FCF
:101D3000BB1F481A590A6A0A7B0A19EF8ECFDF9136
:101D4000CF911F910F91FF90EF90DF90CF90BF90B8
:101D5000AF909F908F907F906F905F904F9008957D
:101D60000F931F93CF93DF93EC018B01009709F43E
:101D700077C0C11584E0D80721F464E080E058D929
:101D80006FC0C038E1E0DE0721F462E080E050D9A6
:101D900067C0C115F1E0DF0721F461E080E048D9B8
:101DA0005FC0C03883E0D80721F461E081E040D90A
:101DB00057C0C115E2E0DE0721F462E081E038D9C6
:101DC0004FC0C115F3E0DF0721F464E081E030D9B2
:101DD00047C0C11588E0D80721F461E083E028D925
:101DE0003FC0C034E8E0DE0721F462E083E020D9A0
:101DF00037C0C034F9E0DF0721F462E084E018D98D
:101E00002FC0C03B88E0D80721F464E083E010D9FC
:101E100027C0C03EE8E0DE0721F468E083E008D98F
:101E20001FC0C03CF8E0DF0721F460E183E000D987
:101E300017C0C03C89E0D80721F460E184E0F8D8FD
:101E40000FC0C038E4E0DE0721F460E483E0F0D89E
:101E500007C0C036F4E0DF0719F460E880E0E8D896
:101E60008C818F738C83F80194818581892B968175
:101E7000992311F098E001C090E0892B8C83F80140
:101E8000408151816281738100E018E428EE31E0E5
:101E9000CE0160DE9B8198609B839B8190619B83D8
:101EA000DF91CF911F910F910895A1E21A2EAA1BE5
:101EB000BB1BFD010DC0AA1FBB1FEE1FFF1FA217FA
:101EC000B307E407F50720F0A21BB30BE40BF50BF7
:101ED000661F771F881F991F1A9469F76095709580
:101EE000809590959B01AC01BD01CF010895EE0F47
:0E1EF000FF1F0590F491E02D0994F894FFCFA8
:0A1EFE000100C2010003200006A04D
:00000001FF
