:10000000CEC30000E9C30000E7C30000E5C3000061
:10001000E3C30000E1C30000DFC30000DDC3000054
:10002000DBC300000C94470BD7C300000C94AB1A41
:100030000C94EF170C9418180C9441180C946A182F
:100040000C9493180C94BC180C94E5180C940E198D
:100050000C9437190C946019BFC300000C94170D51
:10006000BBC30000B9C30000B7C30000B5C30000A4
:10007000B3C30000B1C30000AFC30000ADC30000B4
:10008000ABC30000A9C300000C94B6160C94111267
:100090000C9489190C94B2190C94DB190C94041A61
:1000A0000C94840D99C3000097C30000AB0BB00BF8
:1000B000E20BE20BE20BE20BE20BE20BE20BE20BD8
:1000C000E20BE20BE20BE20BE20BE20BB50BE20BF5
:1000D000E20BE20BE20BE20BE20BE20BE20BE20BB8
:1000E000E20BE20BE20BE20BE20BE20BE20BBA0BD0
:1000F000BF0BE20BE20BE20BE20BE20BE20BE20BBB
:10010000E20BE20BE20BE20BE20BE20BE20BC40BA5
:10011000C90BE20BE20BE20BE20BE20BE20BE20B90
:10012000E20BE20BE20BE20BE20BE20BE20BCE0B7B
:10013000D30BE20BE20BE20BE20BE20BE20BE20B66
:10014000E20BE20BE20BE20BE20BE20BE20BD80B51
:10015000DD0B330E420E860E8B0E900E950EA30E07
:10016000A30EA30EA30EA30EA30EA30EA30EA30E07
:10017000A30EA30EA30EA30EA30EA30EA30EA30EF7
:10018000A30EA30EA30EA30EA30EA30EA30EA30EE7
:10019000A30EA30EA30EA30EA30EA30EA30EA30ED7
:1001A000A30EA30EA30EA30EA30EA30EA30EA30EC7
:1001B000A30EA30EA30EA30EA30EA30EA30EA30EB7
:1001C000A30EA30EA30EA30EA30EA30EA30EA30EA7
:1001D000A30EA30E9C0EB20DA30EA30EA30EA20E91
:1001E000A30EA30EA30EA30EA30E9A0EA30EA30E90
:1001F000170EA30EA30EA30EA30EA30EA30EA30E03
:10020000A30EA30EA30EA30EA30EA30EA30EA30E66
:10021000A30EA30EA30EA00EA30EA30EA30EA30E59
:10022000A30EA30EA30EA30EA30EA30EA30EA30E46
:100230009E0E4E0E560E5E0E660E6E0E760E7E0EE6
:10024000CB1411151F15F514D9140315E71400006C
:1002500014005000B4004001F301CD02CD03F304BB
:100260003D06AD073F09F40AC90CBF0ED4100713B1
:100270005515BE17411ADB1C8B1F502227250F284E
:10028000062B0A2E193132345237773AA03DCB4033
:10029000F5431C473F4A5C4D70507A537856675976
:1002A000475C155FCF61756403677969D66B166E1D
:1002B0003A703F722674EB758F770F796D7AA57B54
:1002C000B87CA57D6C7E0B7F837FD37FFB7FFB7F1C
:1002D000D37F837F0B7F6C7EA57DB87CA57B6D7AF9
:1002E0000F798F77EB7526743F723A70166ED66B66
:1002F000796903677564CF61155F475C6759785604
:100300007A5370505C4D3F4A1C47F543CB40A03DAB
:10031000773A5237323419310A2E062B0F28272507
:1003200050228B1FDB1C411ABE1755150713D41022
:10033000BF0EC90CF40A3F09AD073D06F304CD0317
:10034000CD02F3014001B400500014000000000190
:10035000010202020203030303030304040404046E
:10036000040404050505050505050505050606063D
:100370000606060606060606060707070707070716
:1003800007070707070707080808080808080808F4
:1003900008080808080808090909090909090909D4
:1003A0000909090909090909090A0A0A0A0A0A0AB6
:1003B0000A0A0A0A0A0A0A0A0A0A0A0A0A0B0B0B9A
:1003C0000B0B0B0B0B0B0B0B0B0B0B0B0B0B0B0B7D
:1003D0000B0B0B0C0C0C0C0C0C0C0C0C0C0C0C0C60
:1003E0000C0C0C0C0C0C0C0C0C0C0C0D0D0D0D0D48
:1003F0000D0D0D0D0D0D0D0D0D0D0D0D0D0D0D0D2D
:100400000D0D0D0D0D0E0E0E0E0E0E0E0E0E0E0E11
:100410000E0E0E0E0E0E0E0E0E0E0E0E0E0E0E0EFC
:100420000E0F0F0F0F0F0F0F0F0F0F0F0F0F0F0FDD
:100430000F0F0F0F0F0F0F0F0F0F0F0F0F0F0F10CB
:1004400010101010101010101010101010100006C6
:10045000080A0B0D0E0F101112131414151617178E
:100460001819191A1B1B1C1C1D1D1E1E1F1F2020C6
:100470002121222223232424252526262627272836
:10048000282829292A2A2A2B2B2B2C2C2D2D2D2EBE
:100490002E2E2F2F2F303030313131323232333354
:1004A00033343434343535353636363737373738F4
:1004B0003838393939393A3A3A3B3B3B3B3C3C3C9A
:1004C0003C3D3D3D3D3E3E3E3E3F3F3F3F40000BBD
:1004D000101417191C1E2022242627292A2C2D2F00
:1004E00030313334353637393A3B3C3D3E3F40417D
:1004F0004243444546474848494A4B4C4D4E4E4F6F
:10050000505152525354555556575858595A5B5B8F
:100510005C5D5D5E5F5F60616162636364656566CB
:1005200066676868696A6A6B6B6C6D6D6E6E6F6F1B
:100530007071717272737374747576767777787878
:1005400079797A7A7B7B7C7C7D7D7E7E7F7F0010D3
:10055000171C2024272A2D303335373A3C3E4042A1
:10056000444648494B4D4E505253555658595B5C82
:100570005D5F60616364656668696A6B6D6E6F700C
:1005800071727374767778797A7B7C7D7E7F8081D7
:1005900082838485868788898A8B8B8C8D8E8F90C9
:1005A00091929394949596979899999A9B9C9D9ED5
:1005B0009E9FA0A1A2A2A3A4A5A6A6A7A8A9A9AAF6
:1005C000ABACACADAEAFAFB0B1B1B2B3B4B4B5B625
:1005D000B6B7B8B9B9BABBBBBCBDBDBEBFBFC0C161
:1005E000C1C2C3C3C4C5C5C6C7C7C8C8C9CACACBA8
:1005F000CCCCCDCECECFCFD0D1D1D2D2D3D4D4D5F6
:10060000D5D6D7D7D8D8D9DADADBDBDCDDDDDEDE4C
:10061000DFDFE0E1E1E2E2E3E3E4E5E5E6E6E7E7A8
:10062000E8E8E9EAEAEBEBECECEDEDEEEEEFEFF00B
:10063000F1F1F2F2F3F3F4F4F5F5F6F6F7F7F8F872
:10064000F9F9FAFAFBFBFCFCFDFDFEFEFFFF70076B
:10065000780F74177C1F72277A2F76377E3F714789
:10066000794F75577D5F73677B6F6003680B641309
:100670006C1B62236A2B66336E3B6143694B655387
:100680006D5B5005580D54155C1D52255A2D56357D
:100690005E3D5145594D4001480944114C194221D4
:1006A0004A2946314E393006380E34163C1E322661
:1006B0003A2E2002280A24122C1A1004180C427612
:1006C000FC30825A825AFC3042768A7DF918427692
:1006D000FC306E6A1D47825A825A1D476E6AFC3092
:1006E0004276F9188A7D627F8C0C8A7DF9187D7AB2
:1006F00028254276FC30E370573C6E6A1D47F26253
:100700003451825A825A3451F2621D476E6A573C04
:10071000E370FC30427628257D7AF9188A7D8C0CAE
:10072000627FD97F4806627F8C0C9D7EC8128A7DCD
:10073000F9182A7C1A1F7D7A282585781F2B427686
:10074000FC30B673BA36E370573CCA6DCE416E6A60
:100750001D47D066404CF2623451D75EF655825A3E
:10076000825AF655D75E3451F262404CD0661D472E
:100770006E6ACE41CA6D573CE370BA36B673FC3030
:1007800042761F2B857828257D7A1A1F2A7CF91836
:100790008A7DC8129D7E8C0C627F4806D97F112409
:1007A0001FBECFEFCDBFDFE2DEBF10E2A0E0B0E2C0
:1007B000E4E1F0E402C005900D92AE3FB107D9F735
:1007C0002AE2AEEFB0E201C01D92AD3AB207E1F706
:1007D0000E942A140C94082013CC1F93CF93DF930C
:1007E000CDB7DEB76197CDBFDEBF182FBE016F5FFB
:1007F0007F4F80E092E00E94231789819A819F7841
:1008000092619A8392E09C83817E806189831B82BE
:100810008FB7F89498E0E0E0F2E090878FBFBE01D8
:100820006F5F7F4F80E092E00E94E416AE01485F68
:100830005F4F61E080E092E00E946D171430B9F0E4
:1008400028F4113041F0123061F021C01530A9F0C8
:100850001630C1F01CC0198A81E0888780E2898740
:1008600016C0198A8AE0888788E0898710C0198AAB
:100870008AE0888783E189870AC081E0888780E6EB
:10088000898705C0188688E0898786E4898B8A85F0
:100890001C86807F8A87AE01485F5F4F61E080E001
:1008A00092E00E94451780E092E00E948C168FB77C
:1008B000F894E0E0F2E09081946090838FBF8681AD
:1008C00080FFFDCF81E0E0E0F2E086836196CDBF5E
:1008D000DEBFDF91CF911F9108951F93CF93DF93D8
:1008E000CDB7DEB72A97CDBFDEBF182FAE014F5F61
:1008F0005F4F61E080E092E00E946D171430B9F024
:1009000028F4113041F0123061F021C01530A9F007
:100910001630C1F01CC01A8681E0898380E28A8388
:1009200016C01A868AE0898388E08A8310C01A86F6
:100930008AE0898383E18A830AC081E0898380E633
:100940008A8305C0198288E08A8386E48A87AE019B
:100950004F5F5F4F61E080E092E00E9445172A966A
:10096000CDBFDEBFDF91CF911F91089580913F21D0
:10097000843009F44CC028F4813051F0823009F100
:100980000895853009F469C0863009F475C008956A
:100990000E94F30E811192C080913F2180933E21ED
:1009A00086E080933F2180913F2197DF80E098E0AF
:1009B0000E942D1A80E498E00E945F1A0C944E0F5A
:1009C00008958091FF20909100219C012F5F3F4F5F
:1009D0002093FF2030930021FC01EE0FFF1FE05910
:1009E000F64D408351838091FF2090910021803803
:1009F000910508F463C01092FF201092002181E05D
:100A00008093FE2080E098E00C945F1A0895809116
:100A1000FF20909100219C012F5F3F4F2093FF20EA
:100A200030930021FC01EE0FFF1FE059F64D40838B
:100A300051838091FF20909100218038910508F426
:100A40003DC01092FF201092002181E08093FE2093
:100A500080E098E00C945F1A089540933A215093F7
:100A60003B2181E08093372180913E2180933F217B
:100A700080913F2132CF08954093382150933921FE
:100A800081E0809336210E94F30E8823B9F04FEF66
:100A900060E080E00E94F90E80913F2180933E212A
:100AA00081E080933F2180913F2117DF80E098E033
:100AB0000E945F1A80E498E00C942D1A0895CF9359
:100AC000DF93CDB7DEB72A97CDBFDEBF80E092E0DF
:100AD0000E94A316AE014F5F5F4F61E080E092E09D
:100AE0000E946D17E0EAF0E082818160828366EB0C
:100AF00074E080E092E00E9464168B818C7F8160BC
:100B00008B83AE014F5F5F4F61E080E092E00E9417
:100B1000451780E092E00E948C1678942A96CDBF0B
:100B2000DEBFDF91CF910895462F50E014161506D1
:100B30007CF4E82FF92F20E030E080E090E0719124
:100B4000870F911D2F5F3F4F24173507C4F302C055
:100B500080E090E070E00E94B91F862F0895AF9268
:100B6000BF92CF92DF92EF92FF920F931F93CF939A
:100B7000DF938091152190911621A0911721B091BA
:100B800018218093092190930A21A0930B21B093FF
:100B90000C218091112190911221A0911321B091EB
:100BA00014218093052190930621A0930721B093EF
:100BB000082180910D2190910E21A0910F21B091DB
:100BC00010218093012190930221A0930321B093DF
:100BD00004211092152110921621109217211092C3
:100BE00018211092112110921221109213211092AB
:100BF000142110920D2110920E2110920F211092AB
:100C0000102100910F2010911020101611069CF554
:100C1000A0901521B0901621C0901721D0901821D6
:100C20000F2EFDEAEF2EF5E2FF2EF02DC0E0D0E012
:100C3000F701619171917F0180E090E00E94A01E18
:100C40002A2D3B2D4C2D5D2D0E94A41D2196C017F1
:100C5000D1072CF4A62EB72EC82ED92EE9CFC62E3A
:100C6000D72EE82EF92EC0921521D0921621E092AF
:100C70001721F0921821C0910D20D0910E20C00FA5
:100C8000D11F0C171D079CF5A0901121B0901221C7
:100C9000C0901321D0901421C801880F991F9C0186
:100CA00023553A4D7901F701619171917F0180E0FF
:100CB00090E00E94A01E2A2D3B2D4C2D5D2D0E9400
:100CC000A41D0F5F1F4F0C171D072CF4A62EB72E67
:100CD000C82ED92EE8CF062F172F282F392F009393
:100CE0001121109312212093132130931421E090AD
:100CF0000B20F0900C20EC0EFD1ECE15DF0594F5B8
:100D0000A0900D21B0900E21C0900F21D090102105
:100D10008E01000F111F03551A4DF8016191719159
:100D20008F0180E090E00E94A01E9B01AC016A2D23
:100D30007B2D8C2D9D2D0E94A41D2196CE15DF05A7
:100D40002CF4A62EB72EC82ED92EE7CF062F172F9C
:100D5000282F392F00930D2110930E2120930F215E
:100D6000309310210091152110911621D091172157
:100D7000C0911821C0900720D0900820E090092051
:100D8000F0900A20A7019601602F712F8D2F9C2FC4
:100D90000E94521F1816ECF020911121309112215F
:100DA0004091132150911421C701B6010E94081EE1
:100DB00088237CF020910D2130910E2140910F214C
:100DC00050911021C701B6010E94081E88230CF023
:100DD00045C0C0901121D0901221E0901321F090D5
:100DE00014212C2D3D2D4E2D5F2D602F712F8D2F19
:100DF0009C2F0E94521F181624F00C2D1D2DDE2D45
:100E0000CF2DC0900D21D0900E21E0900F21F090B9
:100E100010212C2D3D2D4E2D5F2D602F712F8D2FEC
:100E20009C2F0E94521F181624F00C2D1D2DDE2D14
:100E3000CF2D802F912FAD2FBC2F80936C299093B5
:100E40006D29A0936E29B0936F298093072090930A
:100E50000820A0930920B0930A2014C020910320F9
:100E6000309104204091052050910620C701B60121
:100E70000E94561F609307207093082080930920DA
:100E800090930A202091192130911A2140911B2121
:100E900050911C21609107207091082080910920B9
:100EA00090910A200E94A31D9B01AC0160E070E0BC
:100EB0008FE793E40E940C1E6B017C0120911521A9
:100EC0003091162140911721509118210E94561FF0
:100ED0000E94741ED62F6093972520911121309186
:100EE00012214091132150911421C701B6010E9493
:100EF000561F0E94741EC62F60936A2820910D21F0
:100F000030910E2140910F2150911021C701B6015F
:100F10000E94561F0E94741E60936B2980912121AC
:100F200090912221FC01EA54FF4DD083E0911F21D2
:100F3000F0912021DF01A05EBF4DCC9320911D21B7
:100F400030911E21D901AF5EBF4D6C9301966EE1C9
:100F500070E00E94CD1F8093212190932221CF0128
:100F6000019666E970E00E94CD1F80931F21909347
:100F70002021C90101966FE070E00E94CD1F80938F
:100F80001D2190931E216FE081E190E2CDDDD82FED
:100F900080936B2966E980E290E2C6DD182F80938A
:100FA0006A286EE186EB90E2BFDD60910220C4E624
:100FB000C89FC001112470E00E94CD1F062F6093CE
:100FC000972520910120C19FC0011124622F70E05C
:100FD0000E94CD1F60936A2820910020CD9FC00100
:100FE0001124622F70E00E94CD1F862F60936B2921
:100FF0002091DC209091DD20921750F02091DC2090
:101000009091DE20921720F0402F80E0F2D624C08D
:101010002091DD209091DC20921750F02091DD206E
:101020009091DE20921720F0402F60E0E2D614C0AD
:101030002091DE209091DC20921750F02091DE204C
:101040009091DD20921720F040E0602FD2D604C0AE
:10105000402F682F80E0CDD6DF91CF911F910F9167
:10106000FF90EF90DF90CF90BF90AF9008952F92B8
:101070003F924F925F926F927F928F929F92AF9228
:10108000BF92CF92DF92EF92FF920F931F93CF9375
:10109000DF932F923F924F925F92FF920F931F9395
:1010A000CF93DF93C0E7D9E2EEE4F2E0FF2440E81B
:1010B0006591759108811981970320010E034F1CDA
:1010C00010019E035F08300C411C5F1CF8035F0891
:1010D000300C411C5F1C499259924A9549F7DF91A7
:1010E000CF911F910F91FF905F904F903F902F9065
:1010F00011242F923F926F927F92CF93DF93EEE471
:10110000F6E048E3A591BB27AA0FBB1FA059B64D37
:101110002D903C90C591DD27CC0FDD1FC059D64DD9
:10112000688079807C926E92288239824A9551F744
:10113000DF91CF917F906F903F902F902F923F92B1
:101140004F925F926F927F928F929F92AF92BF92D7
:10115000CF92DF92EF92FF920F931F93CF93DF9383
:10116000FF2400E1E02EC0E7D9E2688079804A8060
:101170005B8075946794430155944794640C751C87
:1011800084189508AC80BD804E805F80B594A7948C
:10119000650155944794A40CB51CC418D5086885FE
:1011A00079854A845B84759567958B01559447943E
:1011B000640D751D041915098C859D854E845F8409
:1011C000959587959C0155944794840D951D2419F8
:1011D0003509759467942301B594A7946A0C7B1C18
:1011E0004A185B08959487945401D594C7948C0C45
:1011F0009D1CAC18BD08759567956B0195958795F5
:10120000680F791FC81AD90A7594679413017595E8
:101210006795660E771E261A370A42E85AE51503C7
:10122000C001049FB00114039F09700D811D9F1D13
:10123000509F700D811D9F1D959487948401880E89
:10124000991E081B190B55944794D201D594C79445
:101250004C0C5D1CAC19BD093503C001249FB001C5
:1012600034039F09700D811D9F1D529F700D811DBC
:101270009F1DB594A7946501A80EB91EC81AD90A76
:10128000699279928992999249925992A992B992C6
:101290002992399209931993A993B993C992D99232
:1012A000EA9409F062CF00E2C02EDD240AE2902E1B
:1012B000EEEBF6E000E1A02EBB2404E0E02EA0E778
:1012C000B9E2ED01CA0DDB1D8E2C2D903C904880BB
:1012D000598035942794310155944794640C751CBA
:1012E00024183508299239927C926E92AC0DBD1D5E
:1012F0001197EA94088119813C912E91459155915D
:101300006591759115022001049F100114035F0877
:10131000300C411C5F1C509F300C411C5F1C37027D
:101320003001269F200C311C461C571C36035F08D9
:10133000300C411C5F1C729F300C411C5F1C0E0165
:10134000CA19DB0928803980359427943101640C4F
:10135000751C2418350868827982E0012992399237
:1013600017022001069F100116035F08300C411C74
:101370005F1C709F300C411C5F1C35023001249FA4
:10138000201831084608570834035F1C30184108FC
:101390005F08529F301841085F080D01AA19BB0968
:1013A0002D903C90359427943101640C751C2418C1
:1013B00035087C926E92D0012D923C921297EA945D
:1013C00009F098CFDE01AA19BB092D903C90488006
:1013D000598035942794310155944794640C751CB9
:1013E00024183508288239827C926E92C501969520
:1013F0008795C80FD91FC037D90540F4DE01CA0D43
:10140000DB1DE82CEA19FB0934965FCF85FC06C08A
:10141000EA2CE6945601CC0CDD1C51CFDF91CF9124
:101420001F910F91FF90EF90DF90CF90BF90AF9002
:101430009F908F907F906F905F904F903F902F90F4
:1014400011242F923F924F925F926F927F928F92D0
:10145000FF920F931F93CF93DF93A0E7B9E2CDEAFA
:10146000D5E2E0E7FAE24F01FF2440E40D911D913F
:10147000980106C0F4010D911D91329122914F0106
:1014800011022001009F100198035F08300C411CDD
:101490005F1C33023001229F200C311C461C571C5C
:1014A000BA035F08300C411C5F1C1127552061F006
:1014B00018E0F201F03428F5330CEE1FFF1F330C57
:1014C000EE1FFF1F1A951DC0442069F014E0F42D93
:1014D000E32DF034B0F4220CEE1FFF1F220CEE1FA0
:1014E000FF1F1A95F6CFF101F03458F4F03160F493
:1014F000F13078F0F295E295EF70EF2BE695F1E0A0
:1015000008C0EF2FF2E005C0EE0FFF1FEF2FE068DD
:10151000F1E0E25BFC4F04912227112321F0000F40
:10152000221F1A95E1F7099329934A9509F0A2CF52
:10153000DF91CF911F910F91FF908F907F906F90CF
:101540005F904F903F902F90112409DB1092FE2066
:10155000DF91CF911F910F91FF90EF90DF90CF908F
:10156000BF90AF909F908F907F906F905F904F90C3
:101570003F902F9008951F93CF93DF93162FC82F7E
:10158000D0E0CE010E94BF17CE010E949B1791E0D0
:10159000181390E0892FDF91CF911F910895CF9379
:1015A000DF93CDB7DEB72997CDBFDEBF80E89AE1E4
:1015B000A6E0B0E089839A83AB83BC8383E290E0AA
:1015C000A0E0B0E08D839E83AF83B88780E58987F4
:1015D00060E483E00E942516BE016F5F7F4F80E8C4
:1015E00094E00E94791BE0E8F4E0818188608183C7
:1015F00078942996CDBFDEBFDF91CF91089540E06A
:1016000059E160E280E496E00E943C1680E280931B
:10161000B000E0E4F6E0828781E08187E0EAF0E074
:101620008281816082837894089541E050E060E295
:1016300080E096E00E943C1641E050E060E480E0EB
:1016400096E00E943C1641E050E060E880E096E0C1
:101650000E943C1641E050E060E480E696E00E9483
:101660003C1641E050E061E080EE97E00E943C16BD
:1016700041E050E061E080E696E00E943C1641E0E7
:1016800050E062E080E696E00C943C1608951F92CC
:101690000F920FB60F9211240F931F932F933F9326
:1016A0004F935F936F937F938F939F93AF93BF936A
:1016B000EF93FF93CF93DF93CDB7DEB76197CDBFA5
:1016C000DEBF80E2E0E4F6E0848780912E2188236B
:1016D00021F0813009F47CC098C0FE013C9686E080
:1016E000DF011D928A95E9F7BE016F5F7F4F8BE0A6
:1016F000DB011D928A95E9F785E28983EF83F887FC
:1017000086E090E089879A8741E080E894E00E9433
:101710008E1B8D8582FB002700F910E00093712A53
:10172000012B09F472C0887790E09595879595957F
:101730008795959587958093702A8E858F7780936E
:10174000772A90E0FC017097E335F105D8F5EA5A65
:10175000FF4F0C94022080EA8093232181E035C062
:1017600081EA8093232182E030C082EA80932321A2
:1017700083E02BC083EA8093232184E026C083EAA0
:101780008093232184E021C084EA8093232185E093
:101790001CC084EA8093232185E017C085EA8093EA
:1017A000232186E012C085EA8093232186E00DC0C4
:1017B00086EA8093232187E008C086EA809323216C
:1017C00087E003C01092232180E080932D211DC06B
:1017D000BE016F5F7F4F8BE0FB0111928A95E9F7A5
:1017E00085E2898384E291E28F83988789E090E0A3
:1017F00089879A8741E080E894E00E948E1B1092CE
:101800002E21809127218093D4206196CDBFDEBF09
:10181000DF91CF91FF91EF91BF91AF919F918F9108
:101820007F916F915F914F913F912F911F910F91F8
:101830000F900FBE0F901F901895E0E0F8E08485A0
:101840008160848781E08093792A8FB7F894E0E003
:10185000F2E09081946090838FBF089581E080933F
:10186000782AE0E4F8E08485816084878CC3089559
:10187000CF93DF9380E098E00E942D1AC0E0D8E07B
:101880008E818C7F8E838E8181608E838981887F1B
:1018900089836DE17CE080E098E00E94911A80E508
:1018A00090E08EA39FA38881807F84608883E0EA94
:1018B000F0E08281816082837894DF91CF910895F6
:1018C000CF93DF93C0E4D8E08E818C7F8E838E81AE
:1018D00082608E838981887F89836EE27CE080E4E8
:1018E00098E00E94911A84E294EF8EA39FA38881CE
:1018F000807F86608883E0EAF0E082818260828374
:101900007894DF91CF91089543E050E068E080E65D
:1019100096E00E943C1640E050E064E080E696E0ED
:101920000E943C1665ED70E280EC99E00E94FE1C7E
:10193000E0ECF9E0828180638283E0EAF0E082817A
:101940008460828378940895682F80EC98E00C94EA
:10195000EA1B0895CF93DF93CCEDD0E2888180938A
:10196000932AADEDB0E28C918093942AEEEDF0E2F3
:1019700080818093952A888180939C2A8C91809382
:101980009D2A808180939E2ACFEDD0E2888180932A
:10199000962AA0EEB0E28C918093972AE1EEF0E2D5
:1019A00080818093982A888180939F2A8C9180934C
:1019B000A02A80818093A12AC2EED0E28881809300
:1019C000992AA3EEB0E28C9180939A2AE4EEF0E299
:1019D000808180939B2A88818093A22A8C91809316
:1019E000A32A80818093A42AC0E0D0E0FE01E452C3
:1019F000FF4D60812196CE010E94BF17C930D105ED
:101A0000A9F7F1D1811104C066E083E99AE203D716
:101A1000DF91CF91089580913121089580913021F7
:101A200010923021089581E08093302108951F9213
:101A30000F920FB60F9211242F933F934F935F9302
:101A40006F937F938F939F93AF93BF93EF93FF9386
:101A500080EC98E00E94F21B9091342191110EC00D
:101A60008F3049F481E08093342196E09093F02008
:101A70008093332138C01092342135C0292F30E0B3
:101A80006091F020462F50E04F5F5F4F24173507DD
:101A9000F1F410923421803FA9F440917B2A442331
:101AA00061F08BE79AE2FC0120E03191230F3E2F99
:101AB000381B3417D0F3211105C0109233218FEF5A
:101AC00043DF11C0109233218CE03EDF0CC0F901DE
:101AD000E658F54D80839F5F9093342180917B2A57
:101AE00068138093F020FF91EF91BF91AF919F9188
:101AF0008F917F916F915F914F913F912F910F90B7
:101B00000FBE0F901F9018951F920F920FB60F9255
:101B100011242F933F934F935F936F937F938F93F2
:101B20009F93AF93BF93CF93DF93EF93FF93C0E067
:101B3000D0E080EC99E00E94F21BFE01EB51FF4DDA
:101B400080832196CB30D105A1F78091E52090E0EC
:101B5000FC013197E037F10508F0F5C0E755FF4F7C
:101B60000C9402206FEF83E467D4C7EED0E2888143
:101B70008093932AA8EEB0E28C918093942AE9EEA8
:101B8000F0E280818093952A888180939C2A8C91B1
:101B900080939D2A808180939E2ACAEED0E288811C
:101BA0008093962AABEEB0E28C918093972AECEE6C
:101BB000F0E280818093982A888180939F2A8C917B
:101BC0008093A02A80818093A12ACDEED0E28881E3
:101BD0008093992AAEEEB0E28C9180939A2AEFEE30
:101BE000F0E2808180939B2A88818093A22A8C9145
:101BF0008093A32A80818093A42AC0E0D0E0FE01D4
:101C0000E951FF4D8081FE01E452FF4D80836081E8
:101C10002196CE010E94BF17C930D10581F7E3D0CC
:101C2000811191C066E083E99AE2F5D58CC06FEF2F
:101C300080E502D48091E720882319F0813039F0C3
:101C40000CC01092312181E0809330217CC081E072
:101C5000809331218093302176C081E080933121BF
:101C60008093302170C080913121882329F0109217
:101C7000312181E08093302181E080932F216FEF2B
:101C8000DBD361C08091E72090E08730910508F0B8
:101C90005AC0FC01E75EFE4F0C9402208091E820C0
:101CA00090E080934021909341214DC08091E820A5
:101CB00090E08093FC209093FD2045C08091E82027
:101CC00090E08093FA209093FB203DC08091E82023
:101CD00090E08093F8209093F92035C08091E8201F
:101CE00090E08093F6209093F7202DC08091E8201B
:101CF00090E08093F4209093F52025C08091E82017
:101D000090E08093F2209093F3201DC08091E72013
:101D10008093F12018C08091E7208093022013C0A7
:101D20008091E720809301200EC08091E72080936E
:101D3000002009C092D307C0A9D305C0FDD303C0BA
:101D4000D4D301C0BDD381E080933221FF91EF91C4
:101D5000DF91CF91BF91AF919F918F917F916F91C3
:101D60005F914F913F912F910F900FBE0F901F9059
:101D70001895EF92FF920F931F93CF93DF938C01EF
:101D80006115710591F07B0120E030E0C0E0D0E00A
:101D9000F801E20FF31F608180EC99E00E94EA1BDA
:101DA00021969E01CE15DF0599F7DF91CF911F9106
:101DB0000F91FF90EF900895682F677021E030E059
:101DC000A90102C0440F551F6A95E2F7BA01869532
:101DD0008695869550E2859FC001112442E050E02F
:101DE0009A5F4AC70895E0EEF7E080858695817096
:101DF000089520E030E0F901EE0FFF1FE20FF31F1E
:101E0000ED56F54D8083618342832F5F3F4F26302F
:101E1000310589F766E083E99AE2FDC408958FEF02
:101E20008093932A1092942A1092952A1092962ABF
:101E30008093972A1092982A1092992A10929A2A9F
:101E400080939B2A80939C2A10929D2A10929E2A0E
:101E500010929F2A8093A02A1092A12A1092A22A5F
:101E60001092A32A8093A42A66E083E99AE2D3C45D
:101E7000089520E0822F90E0FC01EE0FFF1FE80F95
:101E8000F91FED56F54D1082118212822F5F263018
:101E900089F766E083E99AE2BEC40895AF92BF92E3
:101EA000DF92EF92FF920F931F93CF93DF930F2E4A
:101EB000FCEDEF2EF0E2FF2EF02DD7018C918093F8
:101EC000932A0DED10E2F80180818093942A6EED43
:101ED00070E2DB018C918093952A4FED50E2FA017C
:101EE00080818093962A20EE30E2D9018C918093F4
:101EF000972A81EE90E2DC01EC91E093982AC2EE01
:101F0000D0E2E881E093992AA3EEB0E2EC91E0936D
:101F10009A2A0F2EF4EEAF2EF0E2BF2EF02DF5012F
:101F2000D080D0929B2AF701F080F0929C2AF80191
:101F3000108110939D2AFB01608160939E2AFA0113
:101F4000408140939F2AF90120812093A02AFC011F
:101F500080818093A12A88818093A22A8C9180938A
:101F6000A32AD5018C918093A42A66E083E99AE2A2
:101F700052D4DF91CF911F910F91FF90EF90DF909E
:101F8000BF90AF9008951092782A809135218823D0
:101F900059F180913821909139219C01205635408A
:101FA0002F35310548F48091FA209091FB208093E1
:101FB0003C2190933D2116C0815B94408F3A91055E
:101FC00048F48091F6209091F72080933C219093E3
:101FD0003D2108C0809140219091412180933C2176
:101FE00090933D2110923521FEDE811114C0809125
:101FF0003F2180933E2186E080933F2180913F21C5
:102000000E946D0480E098E00E942D1A80E498E020
:102010000E945F1A43DF80913C2190913D212091E5
:10202000FC203091FD208217930708F048C021DF83
:102030004091F12020913C2130913D216091FC2084
:102040007091FD20429FC001439F900D11240E947A
:10205000B91F6093932A1092942A1092952A109295
:10206000962A1092972A1092982A1092992A1092E2
:102070009A2A10929B2A4091F1206091FC20709145
:10208000FD20429FC001439F900D11240E94B91F63
:1020900060939C2A10929D2A10929E2A10929F2A49
:1020A0001092A02A1092A12A1092A22A1092A32A7A
:1020B0001092A42A66E083E99AE2ADD3A8C12091E8
:1020C000F8203091F9208217930708F059C0D1DE2B
:1020D0008091F1208093932A1092942A1092952A4D
:1020E0001092962A1092972A1092982A20913C21B9
:1020F00030913D218091FC209091FD20E091F120D4
:102100006091F8207091F920A901481B590BE49FB8
:10211000C001E59F900D11240E94B91F6093992A78
:1021200010929A2A10929B2A8091F12080939C2AE7
:1021300010929D2A10929E2A10929F2A1092A02AF5
:102140001092A12A8091FC209091FD204091F120D5
:102150006091F8207091F920281B390B429FC00133
:10216000439F900D11240E94B91F6093A22A1092E0
:10217000A32A1092A42A66E083E99AE24CD347C1CD
:102180002091F4203091F5208217930708F05DC06C
:1021900070DE8091F1208093932A1092942A1092FD
:1021A000952A20913C2130913D218091F8209091F9
:1021B000F920E091F1206091F4207091F520A901BF
:1021C000481B590BE49FC001E59F900D11240E940C
:1021D000B91F6093962A1092972A1092982A80919C
:1021E000F1208093992A10929A2A10929B2A80912A
:1021F000F12080939C2A10929D2A10929E2A809111
:10220000F8209091F9204091F1206091F420709194
:10221000F520281B390B429FC001439F900D1124CC
:102220000E94B91F60939F2A1092A02A1092A12A9F
:102230008091F1208093A22A1092A32A1092A42ABE
:1022400066E083E99AE2E7D2E2C02091F220309181
:10225000F3208217930708F0A5C00BDE1092932A93
:1022600020913C2130913D218091F6209091F720E2
:10227000E091F1206091F2207091F320A901481BB8
:10228000590BE49FC001E59F900D11240E94B91FD6
:102290006093942A1092952A1092962A8091F620A3
:1022A0009091F720E091F1206091F2207091F3205D
:1022B000A901481B590BE49FC001E59F900D112413
:1022C0000E94B91F6093972A1092982A1092992A17
:1022D0008091F6209091F720E091F1206091F2201A
:1022E0007091F320A901481B590BE49FC001E59FA1
:1022F000900D11240E94B91F60939A2A10929B2A74
:1023000010929C2A8091F6209091F720E091F12084
:102310006091F2207091F320A901481B590BE49FB2
:10232000C001E59F900D11240E94B91F60939D2A62
:1023300010929E2A10929F2A8091F6209091F72069
:10234000E091F1206091F2207091F320A901481BE7
:10235000590BE49FC001E59F900D11240E94B91F05
:102360006093A02A1092A12A1092A22A8091F620AE
:102370009091F7204091F1206091F2207091F3202C
:10238000281B390B429FC001439F900D11240E94CE
:10239000B91F6093A32A1092A42A66E083E99AE207
:1023A0003AD235C066DD1092932A8091F120809355
:1023B000942A1092952A1092962A8091F120809367
:1023C000972A1092982A1092992A8091F12080934E
:1023D0009A2A10929B2A10929C2A8091F120809335
:1023E0009D2A10929E2A10929F2A8091F12080931C
:1023F000A02A1092A12A1092A22A8091F120809303
:10240000A32A1092A42A66E083E99AE204D280917A
:102410003C2190913D21019680933C2190933D2158
:1024200008951F920F920FB60F92112480E2E0E6FA
:10243000F6E084871EDDFFCFCF93DF9300D0CDB7CA
:10244000DEB789836A8362E070E0CE01019691DC99
:102450000F900F90DF91CF910895CF93DF9300D02D
:102460001F92CDB7DEB790913A2180913B219B839B
:102470008A838DE4898363E070E0CE01019679DC84
:102480002396CDBFDEBFDF91CF910895CF93DF9329
:1024900000D0CDB7DEB780913821909139216AE024
:1024A00070E00E94CD1F6A8382E4898362E070E05D
:1024B000CE0101965EDC0F900F90DF91CF910895D1
:1024C000CF93DF9300D0CDB7DEB719821A828BDCB1
:1024D0008A8387E4898362E070E0CE01019649DC5B
:1024E0000F900F90DF91CF910895CF93DF93CDB7E9
:1024F000DEB72A97CDBFDEBFFE0131968AE0DF014D
:102500001D928A95E9F783E68983319681E090E010
:10251000DC01A452BF4D2C91219301968930910585
:10252000B9F769E070E0CE01019623DC2A96CDBFB1
:10253000DEBFDF91CF910895CF93DF9300D0CDB769
:10254000DEB719821A8267DA8A8380E7898363E0BB
:1025500070E0CE0101960DDC0F900F90DF91CF91CE
:10256000089581E090E0E7D48093DC2082E090E061
:10257000E2D48093DD2083E090E0DDD48093DE2000
:1025800084E090E0D8D48093DF2085E090E0D3D43D
:102590008093E02086E090E0CED48093E12087E035
:1025A00090E0C9D48093E22088E090E0C4D4809386
:1025B000E32089E090E0BFD48093E420CBC9089564
:1025C0000895682F677021E030E0A90102C0440F30
:1025D000551F6A95E2F7BA0186958695869550E271
:1025E000859FC001112441E050E09A5F45C30895E2
:1025F000DC0111969C91119788E0E0E4F6E020E47C
:1026000099230CF028C02583000000000000000082
:1026100000000000000000000000000000000000BA
:1026200000000000000000000000000000000000AA
:1026300000000000000000002683000000000000F1
:10264000000000000000000000000000000000008A
:102650000000000026C025830000000000000000EC
:1026600000000000000000000000000000002683C1
:10267000000000000000000000000000000000005A
:10268000000000000000000000000000000000004A
:10269000000000000000000000000000000000003A
:1026A0000000990F815009F0ABCF9C9188E0E0E4E5
:1026B000F6E020E499230CF028C0258300000000F8
:1026C000000000000000000000000000000000000A
:1026D00000000000000000000000000000000000FA
:1026E0000000000000000000000000002683000041
:1026F00000000000000000000000000000000000DA
:10270000000000000000000026C02583000000003B
:1027100000000000000000000000000000000000B9
:102720000000268300000000000000000000000000
:102730000000000000000000000000000000000099
:102740000000000000000000000000000000000089
:10275000000000000000990F815009F0ABCF1296E5
:102760009C9188E0E0E4F6E020E499230CF028C096
:1027700025830000000000000000000000000000B1
:102780000000000000000000000000000000000049
:102790000000000000000000000000000000000039
:1027A0000000268300000000000000000000000080
:1027B000000000000000000000000000000026C033
:1027C0002583000000000000000000000000000061
:1027D0000000000000000000268300000000000050
:1027E00000000000000000000000000000000000E9
:1027F00000000000000000000000000000000000D9
:10280000000000000000000000000000990F81504F
:1028100009F0ABCF08950F931F93CF93DF93062F4B
:10282000662349F0C82FD92F10E0CE01E1DE1F5FEB
:1028300023961013FACF80E4E0E4F6E0868389EF74
:1028400090E00197F1F700C00000DF91CF911F9158
:102850000F910895CF93DF93CDB7DEB72A97CDBF01
:10286000DEBFCCD151D886E1ACDE03DB89E7A4DA48
:1028700080E090E060D3898381E090E05CD38A833C
:1028800082E090E058D38B8383E090E054D38C8334
:1028900084E090E050D38D8385E090E04CD38E832C
:1028A00086E090E048D38F8387E090E044D3888728
:1028B00088E090E040D3898789E090E03CD38A8724
:1028C0000E94150B0E94CF0A0E94FF0AA8DA49DE77
:1028D00011E010933F2180913F210E946D041093DD
:1028E000352180E098E0EBD580E498E0B6D5809182
:1028F0003F210E94ED030E945F050E94600C0E9430
:10290000380C71DA811111C080913F2180933E21F2
:1029100086E080933F2180913F210E946D0480E4F6
:1029200098E0CDD580E098E098D50F2EF0E6EF2E18
:10293000F6E0FF2EF02D6894992491F8BB24B3940F
:102940000F2EF0EECF2EF7E0DF2EF02D6894AA24A4
:10295000A6F800E016E06894772477F86894882455
:1029600085F86894552452F80F2EF6E06F2EF02D5E
:1029700080912321882309F471C08091232190E064
:10298000FC01E05AF109E730F10508F065C0E05EAE
:10299000FE4F0C940220F8018582FFE72AE186E0D1
:1029A000F15020408040E1F700C00000F80186822D
:1029B00053C0F801A582FFE72AE186E0F1502040EC
:1029C0008040E1F700C00000F801A68245C0F80190
:1029D0007582FFE72AE186E0F15020408040E1F770
:1029E00000C00000F801768237C0F701A582FFE73A
:1029F0002AE186E0F15020408040E1F700C000006D
:102A0000F701A68229C0F601B582FFE72AE186E038
:102A1000F15020408040E1F700C00000F601B6828E
:102A20001BC0F701B582FFE72AE186E0F1502040A4
:102A30008040E1F700C00000F701B6820DC0F70149
:102A40009582FFE72AE186E0F15020408040E1F7DF
:102A500000C00000F701968210922321C4D9882378
:102A6000F1F080913F21813009F482CF4FEF60E097
:102A700080E0BFD910922F2180913F2180933E2189
:102A8000B0923F2180913F210E946D04B092352188
:102A900080E098E014D580E498E0DFD469CF80919D
:102AA0003F21813089F480913F2180933E216092C3
:102AB0003F2180913F210E946D0480E498E0FFD483
:102AC00080E098E0CAD4EAD90E940B0D882351F027
:102AD00080913F21823031F080913F21843011F08C
:102AE0000E94130D80912F21882379F080913F213E
:102AF00080933E2110923F2180E098E0E0D460DD99
:102B000040E060E080E075D933CF0E940E0D88234D
:102B100059F10E940B0D8823A1F0B09242218091BF
:102B20003F2180933E2190923F2180913F210E943E
:102B30006D0480E098E091D46B2D80E00E94BB0A88
:102B400017CF1092422180913F2180933E216092C5
:102B50003F2180913F210E946D048BD960E080E08D
:102B60000E94BB0A9BD904CF80914221813009F099
:102B7000FFCE8091FE20882309F4FACE80913F2178
:102B8000823081F40E94370880913F2180933E215A
:102B900050923F2180913F210E946D0480E098E097
:102BA0005CD429C080913F21843029F50E943708E8
:102BB0001AD9882399F080913F2180933E21B092C9
:102BC0003F2180913F210E946D04B092352180E029
:102BD00098E075D480E498E040D40DC080913F2106
:102BE00080933E2190923F2180913F210E946D046D
:102BF00080E098E032D41092FE20BACE8FEF80931E
:102C000070008093710080937200809373008093B2
:102C1000740080937500809376008FB7F894E0E598
:102C2000F0E09081926090838FBF818181FFFDCF22
:102C300061E080E490E079D18FB7F894E0E5F0E0CE
:102C400090819E7F90838FBF08959FB7F894E82F5F
:102C5000F0E0E059FF4F60958081682360839FBF5B
:102C600008959FB7F894E82FF0E0E059FF4F808176
:102C7000682B60839FBF0895CF93DF93FC0170960C
:102C800020E030E0C62FD0E0DE01022E02C0B59574
:102C9000A7950A94E2F7A0FD50832F5F3F4F31962E
:102CA0002830310589F740FF0AC041FF03C0FC010D
:102CB000658302C0FC016683FC01618302C0FC01E4
:102CC0006283DF91CF9108952FB7F89481159240D8
:102CD00021F46093AB2A7093AC2A2FBF089581151D
:102CE000924059F48091432191E0980F90934321B1
:102CF000811103C062E081E0A8CF08958115924060
:102D000051F480914321815080934321811103C06C
:102D100062E081E0A6CF08951F93CF93DF93EC018B
:102D20001FB7F894DCDF8881816088831FBF8FB76D
:102D3000F894E6EAFAE290819F5F90838FBFDF917B
:102D4000CF911F910895CF93CFB7F894FC012081C4
:102D50002E7F2083D3DFCFBF8FB7F894E6EAFAE265
:102D60009081915090838FBFCF9108951F920F92C1
:102D70000FB60F9211242F933F934F935F936F934E
:102D80007F938F939F93AF93BF93EF93FF93E0E075
:102D9000F2E044A155A1E091AB2AF091AC2A61E0A8
:102DA00080E092E00995FF91EF91BF91AF919F91E3
:102DB0008F917F916F915F914F913F912F910F90E4
:102DC0000FBE0F901F901895DF92EF92FF920F9316
:102DD0001F93CF93DF93EC018B01C11582E0D807DD
:102DE00051F561E270E082E0F0D0E82EF12C60E273
:102DF00070E082E0EAD0FE2CEE24E82ADFB6F894F8
:102E0000CE016DDF2881217082E08883EC86FD860B
:102E1000F80184819581888F998F81818A8383814C
:102E20008C8382818B8380818983868188872883B4
:102E3000CE0164DFDFBEDF91CF911F910F91FF9034
:102E4000EF90DF900895FF920F931F93CF93DF933E
:102E5000EC018B01FFB6F89442DF888D998DF80163
:102E6000848395838A8181838C8183838B81828310
:102E70008981808388858683CE0140DFFFBEDF9114
:102E8000CF911F910F91FF900895FF920F931F9381
:102E9000CF93DF93EC018A01FFB6F89420DFF801AD
:102EA000808188A382818AA3818189A383818EA363
:102EB00084818FA3858188A7868189A787818AA736
:102EC00080858BA781858CA7CE0118DFFFBEDF919F
:102ED000CF911F910F91FF900895FF920F931F9331
:102EE000CF93DF93EC018A01FFB6F894F8DE88A156
:102EF000F80180838AA1828389A181838EA1838343
:102F00008FA1848388A5858389A586838AA58783E5
:102F10008BA580878CA58187CE01F0DEFFBEDF9177
:102F2000CF911F910F91FF9008951BBEFC0128EDDA
:102F300024BF60830895E0ECF1E027852223ECF3C1
:102F4000FC01F05F80810895E0ECF1E08785882343
:102F5000ECF3E0ECF1E0878581FF06C086E3828731
:102F600061E08BEC91E0E1CF0895E0ECF1E0978532
:102F70009923ECF3E82FF0E0F05F60830895FF926F
:102F80000F931F93CF93DF93182FF92EC62FE0ECEA
:102F9000F1E00285D9DFE0ECF1E027852223ECF3B4
:102FA0006C2F812FE2DFC0ECD1E01A82F982188306
:102FB00085E38A8761E08BEC91E0B7DF0A87DF91D8
:102FC000CF911F910F91FF9008954091CA01E62F74
:102FD000F72F8093CA0184914093CA0108951F92EC
:102FE0000F920FB60F9211242F933F934F935F933D
:102FF0006F937F938F939F93AF93BF93EF93FF93C1
:10300000E0915E21F0915F21309709F00995FF91E1
:10301000EF91BF91AF919F918F917F916F915F9150
:103020004F913F912F910F900FBE0F901F901895C9
:103030001F920F920FB60F9211242F933F934F932D
:103040005F936F937F938F939F93AF93BF93EF9310
:10305000FF93E0915C21F0915D21309709F0099593
:10306000FF91EF91BF91AF919F918F917F916F9160
:103070005F914F913F912F910F900FBE0F901F9036
:1030800018951F920F920FB60F9211242F933F9312
:103090004F935F936F937F938F939F93AF93BF9360
:1030A000EF93FF93E0915A21F0915B21309709F063
:1030B0000995FF91EF91BF91AF919F918F917F9172
:1030C0006F915F914F913F912F910F900FBE0F9095
:1030D0001F9018951F920F920FB60F9211242F93E5
:1030E0003F934F935F936F937F938F939F93AF9390
:1030F000BF93EF93FF93E0915821F09159213097BE
:1031000009F00995FF91EF91BF91AF919F918F9138
:103110007F916F915F914F913F912F910F900FBED3
:103120000F901F9018951F920F920FB60F921124B7
:103130002F933F934F935F936F937F938F939F93BF
:10314000AF93BF93EF93FF93E0915621F0915721F6
:10315000309709F00995FF91EF91BF91AF919F9141
:103160008F917F916F915F914F913F912F910F9030
:103170000FBE0F901F9018951F920F920FB60F92CF
:1031800011242F933F934F935F936F937F938F936C
:103190009F93AF93BF93EF93FF93E0915421F091EE
:1031A0005521309709F00995FF91EF91BF91AF91AB
:1031B0009F918F917F916F915F914F913F912F914F
:1031C0000F900FBE0F901F9018951F920F920FB681
:1031D0000F9211242F933F934F935F936F937F939D
:1031E0008F939F93AF93BF93EF93FF93E0915221FF
:1031F000F0915321309709F00995FF91EF91BF911C
:10320000AF919F918F917F916F915F914F913F917E
:103210002F910F900FBE0F901F9018951F920F9235
:103220000FB60F9211242F933F934F935F936F9399
:103230007F938F939F93AF93BF93EF93FF93E0910F
:103240005021F0915121309709F00995FF91EF91AC
:10325000BF91AF919F918F917F916F915F914F91AE
:103260003F912F910F900FBE0F901F9018951F92B6
:103270000F920FB60F9211242F933F934F935F93AA
:103280006F937F938F939F93AF93BF93EF93FF932E
:10329000E0914E21F0914F21309709F00995FF916F
:1032A000EF91BF91AF919F918F917F916F915F91BE
:1032B0004F913F912F910F900FBE0F901F90189537
:1032C0001F920F920FB60F9211242F933F934F939B
:1032D0005F936F937F938F939F93AF93BF93EF937E
:1032E000FF93E0914C21F0914D21309709F0099521
:1032F000FF91EF91BF91AF919F918F917F916F91CE
:103300005F914F913F912F910F900FBE0F901F90A3
:1033100018951F920F920FB60F9211242F933F937F
:103320004F935F936F937F938F939F93AF93BF93CD
:10333000EF93FF93E0914A21F0914B21309709F0F0
:103340000995FF91EF91BF91AF919F918F917F91DF
:103350006F915F914F913F912F910F900FBE0F9002
:103360001F9018951F920F920FB60F9211242F9352
:103370003F934F935F936F937F938F939F93AF93FD
:10338000BF93EF93FF93E0914821F091492130974B
:1033900009F00995FF91EF91BF91AF919F918F91A6
:1033A0007F916F915F914F913F912F910F900FBE41
:1033B0000F901F9018951F920F920FB60F92112425
:1033C0002F933F934F935F936F937F938F939F932D
:1033D000AF93BF93EF93FF93E0914621F091472184
:1033E000309709F00995FF91EF91BF91AF919F91AF
:1033F0008F917F916F915F914F913F912F910F909E
:103400000FBE0F901F9018951F920F920FB60F923C
:1034100011242F933F934F935F936F937F938F93D9
:103420009F93AF93BF93EF93FF93E0914421F0916B
:103430004521309709F00995FF91EF91BF91AF9128
:103440009F918F917F916F915F914F913F912F91BC
:103450000F900FBE0F901F901895CF93CFB7F89491
:10346000282F392F211588E0380739F461E083E0EF
:10347000ECDB64E083E0E9DB17C0203488E0380748
:1034800039F462E083E0E1DB64E083E0DEDB0CC082
:103490002034394039F462E084E0D7DB64E084E032
:1034A000D4DB02C0CFBF09C08FB7F894E6EAFAE2D6
:1034B00090819F5F90838FBFCFBFCF910895CF93AF
:1034C000CFB7F8942FB7F894E6EAFAE2308131509A
:1034D00030832FBF282F392F211588E0380739F482
:1034E00061E083E0BEDB64E083E0BBDB17C0203437
:1034F00088E0380739F462E083E0B3DB64E083E01E
:10350000B0DB0CC02034394039F461E084E0A9DB41
:1035100064E084E0A6DB02C0CFBF01C0CFBFCF9183
:103520000895811528E0920729F460935E21709335
:103530005F210895803428E0920729F46093522196
:103540007093532108958034994021F460934A2167
:1035500070934B2108951F920F920FB60F92112472
:103560002F933F934F935F936F937F938F939F938B
:10357000AF93BF93CF93DF93EF93FF93E0916021DD
:10358000F0916121848183FF08C08860848383E097
:10359000838386EF80936A2199C0982F947131F0CC
:1035A00083E083838FEF80936A2190C086FF45C0BC
:1035B000A0916221B0916321809164219091652155
:1035C00014962D913C911597821793076CF49C01EA
:1035D0002F5F3F4F2093642130936521A80FB91FBF
:1035E00011968C91878372C080916621909167219A
:1035F00018962D913C91199782179307C8F4209142
:103600006821222321F08681816086835FC016961F
:103610002D913C911797AC014F5F5F4F409366210E
:1036200050936721D901A80FB91F8C9187834EC091
:1036300083E0838310926A2149C088230CF043C041
:10364000A0916221B09163218091662190916721C0
:1036500018962D913C9119978217930770F516963D
:103660006D917C9117979C012F5F3F4F20936621AE
:10367000309367214781860F971FEC014883EB0148
:10368000888190E0019618964D915C9119974817A2
:10369000590721F018968D939C93199718968D9140
:1036A0009C9119972817390718F482E083830EC07C
:1036B00087E0838310926A2109C083E0838389EFC6
:1036C00080936A2103C08BEF80936A21FF91EF9171
:1036D000DF91CF91BF91AF919F918F917F916F912A
:1036E0005F914F913F912F910F900FBE0F901F90C0
:1036F0001895FC01DB0114968C91858388EB8183FE
:1037000081E084831092692110926A21E0EAF0E05E
:10371000828182608283789480E00895009709F422
:1037200053C06115710509F451C0FB013285209128
:10373000692102C031114CC02111FCCF2FB7F89480
:1037400031E03093692130E830936A212FBF8093B4
:1037500060219093612160936221709363211092A4
:103760006421109265211092662110926721409386
:103770006821FB012081522F550F24813581232B95
:1037800011F4411103C0FC01568303C05160FC01D8
:103790005683EAE6F1E280818038E9F3E091602126
:1037A000F091612184818370813049F0A0E6B1E21B
:1037B000ED91FC911197848183708130C9F78091DC
:1037C0006A2110926921089588EF089588EF08957D
:1037D00086EF0895FC01818185FFFDCF608380E045
:1037E00090E00895FC0181818823ECF780810895A1
:1037F0004F925F926F927F928F929F92AF92BF9201
:10380000CF92DF92EF92FF920F931F93CF93DF93AC
:10381000EC014A015B0128013901D901C801689412
:1038200012F8B695A795979587951694D1F7B90193
:10383000A801032E36E176956795579547953A95F9
:10384000D1F7302D2B8122FD08C0B695A79597950D
:103850008795769567955795479588159905AA0593
:10386000BB0508F4A2C084169506A606B70608F4A0
:103870009EC08B8182FD04C0880C991CAA1CBB1CB5
:10388000C301B201A50194019BD32F3F310541052E
:10389000510508F48EC0C12CD12C7601CA9419EFC1
:1038A00005C02C153D054E055F0568F0CC0CDD1CF0
:1038B000EE1CFF1C1D3F14F46894C0F81F5F173006
:1038C00081F7212F4EC0212F11230CF04AC0D501C2
:1038D000C401880F991FAA1FBB1F880F991FAA1F19
:1038E000BB1F880F991FAA1FBB1F481A590A6A0AD3
:1038F0007B0A1E3FECF46DEF7FEF611B710917FD32
:10390000739504C0440C551C661C771C6A95D2F74D
:10391000D501C401B695A79597958795BC01CD01B2
:10392000640D751D861D971DA501940149D334C0F2
:1039300023E0210FD501C40104C0880F991FAA1FDD
:10394000BB1F2A95D2F79C01AD01B695A795979517
:103950008795BC01CD01640D751D861D971D30D363
:103960001BC02D5FD501C40104C0880F991FAA1F79
:10397000BB1F2A95D2F79C01AD01B695A7959795E7
:103980008795BC01CD01640D751D861D971D18D34B
:103990002150310941095109832F8F701295107FF1
:1039A000182B1F832E8381E018C080E016C080E0B2
:1039B00014C0D501C401880F991FAA1FBB1F880F0F
:1039C000991FAA1FBB1F880F991FAA1FBB1F481A48
:1039D000590A6A0A7B0A19EF8ECFDF91CF911F91A6
:1039E0000F91FF90EF90DF90CF90BF90AF909F909E
:1039F0008F907F906F905F904F9008950F931F93DB
:103A0000CF93DF93EC018B01009709F477C0C115C8
:103A100084E0D80721F464E080E017D96FC0C03893
:103A2000E1E0DE0721F462E080E00FD967C0C11554
:103A3000F1E0DF0721F461E080E007D95FC0C03822
:103A400083E0D80721F461E081E0FFD857C0C115B9
:103A5000E2E0DE0721F462E081E0F7D84FC0C11553
:103A6000F3E0DF0721F464E081E0EFD847C0C1153F
:103A700088E0D80721F461E083E0E7D83FC0C03494
:103A8000E8E0DE0721F462E083E0DFD837C0C0342D
:103A9000F9E0DF0721F462E084E0D7D82FC0C03B13
:103AA00088E0D80721F464E083E0CFD827C0C03E87
:103AB000E8E0DE0721F468E083E0C7D81FC0C03C1F
:103AC000F8E0DF0721F460E183E0BFD817C0C03C15
:103AD00089E0D80721F460E184E0B7D80FC0C0388E
:103AE000E4E0DE0721F460E483E0AFD807C0C0362D
:103AF000F4E0DF0719F460E880E0A7D88C818F73C9
:103B00008C83F80194818581892B9681992311F00A
:103B100098E001C090E0892B8C83F80140815181AD
:103B20006281738100E018E428EE31E0CE0160DEAE
:103B30009B8198609B839B8190619B83DF91CF9158
:103B40001F910F9108955058BB27AA270ED070C11E
:103B500061D130F066D120F031F49F3F11F41EF4B2
:103B600056C10EF4E095E7FB4CC1E92F72D180F30A
:103B7000BA17620773078407950718F071F49EF56A
:103B80008AC10EF4E0950B2EBA2FA02D0B01B901BE
:103B900090010C01CA01A0011124FF27591B99F0C3
:103BA000593F50F4503E68F11A16F040A22F232FCF
:103BB000342F4427585FF3CF469537952795A7951F
:103BC000F0405395C9F77EF41F16BA0B620B730BC6
:103BD000840BBAF09150A1F0FF0FBB1F661F771F37
:103BE000881FC2F70EC0BA0F621F731F841F48F4EC
:103BF000879577956795B795F7959E3F08F0B3CF72
:103C00009395880F08F09927EE0F9795879508955B
:103C1000D4D008F481E008950CD00AC102D140F05C
:103C2000F9D030F021F45F3F19F0EBC0511134C1ED
:103C3000EEC00FD198F39923C9F35523B1F3951B27
:103C4000550BBB27AA2762177307840738F09F5FBD
:103C50005F4F220F331F441FAA1FA9F333D00E2E2C
:103C60003AF0E0E830D091505040E695001CCAF799
:103C700029D0FE2F27D0660F771F881FBB1F26175E
:103C800037074807AB07B0E809F0BB0B802DBF0131
:103C9000FF2793585F4F2AF09E3F510568F0B1C04F
:103CA000FBC05F3FECF3983EDCF386957795679514
:103CB000B795F7959F5FC9F7880F911D96958795E2
:103CC00097F90895E1E0660F771F881FBB1F621701
:103CD00073078407BA0720F0621B730B840BBA0BBF
:103CE000EE1F88F7E0950895BCD088F09F5790F0BC
:103CF000B92F9927B751A0F0D1F0660F771F881F11
:103D0000991F1AF0BA95C9F712C0B13081F0C3D02B
:103D1000B1E00895C0C0672F782F8827B85F39F0C9
:103D2000B93FCCF3869577956795B395D9F73EF46F
:103D300090958095709561957F4F8F4F9F4F089517
:103D4000E89409C097FB3EF4909580957095619535
:103D50007F4F8F4F9F4F9923A9F0F92F96E9BB27EB
:103D60009395F695879577956795B795F111F8CF67
:103D7000FAF4BB0F11F460FF1BC06F5F7F4F8F4FD2
:103D80009F4F16C0882311F096E911C0772321F0C8
:103D90009EE8872F762F05C0662371F096E8862F60
:103DA00070E060E02AF09A95660F771F881FDAF7B7
:103DB000880F9695879597F90895990F0008550FE4
:103DC000AA0BE0E8FEEF16161706E807F907C0F0A1
:103DD00012161306E407F50798F0621B730B840BA9
:103DE000950B39F40A2661F0232B242B252B21F483
:103DF00008950A2609F4A140A6958FEF811D811D23
:103E0000089597F99F6780E870E060E008959FEF5C
:103E100080EC089500240A94161617061806090661
:103E2000089500240A941216130614060506089530
:103E3000092E0394000C11F4882352F0BB0F40F4B8
:103E4000BF2B11F460FF04C06F5F7F4F8F4F9F4FF8
:103E5000089557FD9058440F551F59F05F3F71F07A
:103E60004795880F97FB991F61F09F3F79F08795E1
:103E70000895121613061406551FF2CF4695F1DF6A
:103E800008C0161617061806991FF1CF86957105FA
:103E9000610508940895E894BB2766277727CB012E
:103EA00097F908958ADF08F48FEF08950BD0C0CFFB
:103EB000B1DF28F0B6DF18F0952309F0A2CFA7CF25
:103EC0001124EACFC6DFA0F3959FD1F3950F50E000
:103ED000551F629FF001729FBB27F00DB11D639FBC
:103EE000AA27F00DB11DAA1F649F6627B00DA11D62
:103EF000661F829F2227B00DA11D621F739FB00D08
:103F0000A11D621F839FA00D611D221F749F332777
:103F1000A00D611D231F849F600D211D822F762F10
:103F20006A2F11249F5750408AF0E1F088234AF00D
:103F3000EE0FFF1FBB1F661F771F881F9150504059
:103F4000A9F79E3F510570F05CCFA6CF5F3FECF321
:103F5000983EDCF3869577956795B795F795E79545
:103F60009F5FC1F7FE2B880F911D9695879597F956
:103F70000895AA1BBB1B51E107C0AA1FBB1FA617B0
:103F8000B70710F0A61BB70B881F991F5A95A9F702
:103F900080959095BC01CD01089597FB072E16F4EE
:103FA000009406D077FD08D0E4DF07FC05D03EF48E
:103FB000909581959F4F0895709561957F4F0895D5
:103FC000A1E21A2EAA1BBB1BFD010DC0AA1FBB1F1D
:103FD000EE1FFF1FA217B307E407F50720F0A21B8F
:103FE000B30BE40BF50B661F771F881F991F1A94FC
:103FF00069F760957095809590959B01AC01BD0126
:10400000CF010895EE0FFF1F0590F491E02D099464
:04401000F894FFCF52
:104014006464646666663F0000803F6B00120003C0
:10402400008080808080808080808080808080800C
:10403400808080808080808080808080808080807C
:10404400808080808080808080808080808080806C
:10405400808080808080808080808080808080805C
:10406400808080808080808080808080808080804C
:10407400808080808080808080808080808080803C
:10408400808080808080808080808080808080802C
:10409400808080808080808080808080808080801C
:1040A400808080808080808080808080808080800C
:1040B40080808080808080808080808080808080FC
:1040C40080808080808080808080808080808080EC
:1040D40080808080808080808080808080808080DC
:1040E400808080800100960000030000FF00000033
:1040F400FF000000FF80808080808080808080803E
:0E41040006604038E02E302A201CC0126009F0
:00000001FF
